:020000020000FC
:10000000DDCB4FC3FFFFFFFFFFFFFFFFFFFF53C32A
:10001000FFFFFFFFFFFFFFFFFFFFFFFFFFFFFFFFF0
:10002000FFFFFFFFFFFFFFFFFFFFFFFFFFFFFFFFE0
:1000300077C0B800A001EC18AA0058020000FF0821
:100040000093BA000FEF0093BB0004E03AC0109198
:10005000BC00012F017008950091BC0000FDFCCF91
:100060000091C101089503DC422F2091BC0020FDC6
:10007000FCCF45D040A320E00DC0D801A20FB31F94
:100080005C91DF01A20FB31F50965C932395241758
:10009000A0F32395241718F420E030E0F8CF00E017
:1000A00002A308EF01A30CD0E4E0EDCB0091BC006B
:1000B00000FDFCCF00E00093C20108EF0093C101F6
:1000C00005EC0093BC0008953091BC0030FDFCCFDE
:1000D00016D032A130FF11C040E050E009C0FA0153
:1000E000E056FE4F3081F801E40FF51F3083439551
:1000F0004217A8F37ED00D7F02A302A1ABCFE0EAA6
:10010000F1E008950091BC0000FDFCCF0091C40116
:10011000013118F000E10093C4010091C401089579
:10012000BA93AA93FA93EA933A932A931A930A9367
:100130003FB70091B900005809F444C0005109F4D8
:1001400041C0005179F1085049F0005169F0085060
:1001500009F1005A81F1005159F141C0D0DF00E0AE
:1001600004A302A1086002A3CADF04A13DD05096F7
:100170000C910093BB0004A1039504A305ECA1DF3F
:100180003FBF0991199129913991E991F991A9916B
:10019000B9911895B4DF04A110A1011729F402A1A7
:1001A000016002A304E0EBCF0091B90001A3FACFF4
:1001B00020D0046002A31DD0026002A300E004A3CB
:1001C00003A3DCCF9CDF2091BB0003A10DD02C93B7
:1001D00003A1039503A302A1016002A3CFCF009165
:1001E000B9000093C101DECF10E0DF01A00FB11F05
:1001F0000895E0EAF1E002A108958A93802F56DF86
:10020000082F8991089500E00895219718835BD005
:10021000B2D0219608958A9321970023389A81F0CD
:10022000409A80E002E0809FE5ECF1E0E00DF11DF6
:10023000018148D000819FD08395813160F4F2CF55
:10024000409880E000E0F0E0E82FEB53FE4F02A37F
:1002500083958730C0F321968991089508DB239711
:10026000812F0730D0F410E0A5ECB1E0A00FB11F52
:10027000FD0102A1081789F082A3882301E031F073
:1002800021D00ED0898313D00DD006C00BD008D05A
:1002900000EC09830CD016D003D02396E4E0F3CA17
:1002A0000FE769C00A830FD02E5F3F4F08950BD030
:1002B0002F5F3F4FFD0101A55ED0A5CF219702D052
:1002C00000E2A6CF088311E09E0108958A9321974A
:1002D000802F00E00BD0882311F006E001C00CE075
:1002E000F1DF0DE248D001E001D0B5CFEBDF00E354
:1002F00042C025D006D0399A419800C023D000C012
:10030000089500C03A9A429AFACF399A4198F9DF93
:1003100016D0F5CF17D0102F08E017FB399A16F436
:10032000419A01C04198EDDF110F0CD00A95A9F751
:1003300000C005D0E7DF06B105D002700895399AF4
:10034000419A08953A9A4298089590DA402E812F62
:10035000922FDA01CEDF440C042DDCDF442403C0ED
:100360000D91D8DF43944816D8F3992309F4CDDFD3
:1003700000C0E5E087CA6097103108F01FE00883ED
:1003800000E050E009C0F901E00FF51F6081FE01B7
:10039000E00FF51F618303950117A8F3AE0120E07C
:1003A000139504E7D2DF00E060960895213108F04C
:1003B00020E160E043EF51E070E009C0F801E60F92
:1003C000F71F3081FB01ED50FE4F308363956217BC
:1003D000A8F30FEF00930202FA01408B518B0789BB
:1003E0000F71078B089543DAE3EFF1E007890F3FC0
:1003F00099F0007E21F007890052078B26C0A08962
:10040000B1890C91078B8D010F5F1F4F008B118BF2
:1004100000910A020F3F11F400E018C080E090E064
:10042000E3EFF1E0E80FF91F228930910A02482F2B
:1004300001E010E0EAD9302311F01FEC01C010E018
:10044000022F0CDF8395853058F301E0E4E01BCAEE
:10045000F89410E810936100009361007894089577
:1004600006DA14D160E057E043E03AE020E013E020
:1004700000E06AD7CFD3DDD0EDD000E0E1EBF2E0D1
:10048000008301837894ABE0B2E001E000932A029C
:1004900007C03DD100912E02002311F457985F98B8
:1004A00000913402002309F466C000E00093340296
:1004B00000913202002319F0FD010A9507A3009173
:1004C0002802002319F0FD010A95058FFD0104891A
:1004D0001589B4D310FBD6F300FB1EF4E2D113D27E
:1004E00012C0FD0102891389012B69F0DAD130D2E3
:1004F00001E00093310200912B0210912C021017A1
:1005000011F000932C0200912F02002339F4009186
:100510002E020023A9F0579A5F9812C0009133026F
:10052000002371F40091090210913202112321F489
:1005300010912602112311F01FEC01C010E08EDE95
:10054000009133020023B9F000912802002399F4AE
:1005500003E00093280247DF002369F480E090E085
:10056000FD01E80FF91F1689FC012ED18395853016
:10057000B8F39093330200E04A9901E0FD0100FBDB
:1005800004A100F904A3078D002311F411E001C0B8
:1005900010E004A10D7F110F012B04A315A110176A
:1005A00099F0002321F400E0038F90DE09C080E081
:1005B00000E0FD01E80FF01F068B83958530C8F33E
:1005C00000912F020093300200912F02002309F4C2
:1005D00060CF009131020023E9F000912C0202303B
:1005E00011F0033061F410913202112329F0FD0162
:1005F00013A1146013A303C01EE11093320205304F
:1006000011F0063021F4FD0103A1046003A300E012
:1006100000933102FD0103A102FF04C0579A5F98C5
:1006200000E003A304A100FF02C064D039CF6FD063
:1006300037CFEAEAF2E002E0018304E1048305E057
:10064000058300E0038304E1028301E0008303E00B
:100650000683089500E00093700000910B0202955C
:10066000007F0093B300009170000260009370005F
:100670000091B10005600093B10003E00093B00069
:100680000091B100077F0093B100089502E0E0DE21
:1006900005B7006105BF529807E8D2DC07DD01E02D
:1006A000BACD1A930A931FB703B70E7F03BF1FBFBC
:1006B000099119911895FA93EA934A933A932A93D8
:1006C0001A930A934FB701E00093340200910B0292
:1006D00010910C02FFD024893589200F311F248B03
:1006E000358B4FBF09911991299139914991E99120
:1006F000F991189500E00093690003B7016003BF0A
:1007000007E003BF889503B70E7F03BF08959FDC02
:10071000002391F40091C20100FF0CC001FF06C04C
:1007200020E10DE012E0D0DC08D052D090DC0023B4
:1007300019F4BCCC91DC61DD08958A93E3DC20914F
:100740000D0220932902213F10F00023D9F180915E
:100750000E02122F1059155060F0B9F01A95D1F011
:100760001950E9F0145031F1135038F1135050F191
:1007700024C0182FF0E02F70E22F26D0009129021C
:1007800010E00F7089D0868B1DC0082F97DD8093F5
:10079000270218C0082F9ADD8093260213C0809389
:1007A00033020A95202F0EE012E000DE01E00093F4
:1007B000280208C080932A0205C0203818F4182F98
:1007C000022F23DD89910895EB5FFD4F008146CD17
:1007D0004FD880D0CF010296A1E0068D102F1F596F
:1007E000A9F01A95B9F01A95B9F01250C9F01A95F6
:1007F000C9F01A95D9F01A9551F11A9559F11A952F
:1008000061F11A95D1F0175419F03CC000A50CC045
:1008100002E40AC00DE408C0EFE3F0E0049135C043
:10082000078D02C00091A802028331C00091A90285
:10083000028303A10E7F03A32AC000A1028300E06C
:1008400000A303A10D7F03A300E006A320C080EA5C
:1008500092E016C088E992E013C0A0E00A2F5DD2B2
:1008600034E0A39F37D0E00DF11D0283212F0A2F22
:1008700010E043E0CAD710D02283A395A43070F3D0
:10088000A8E005C0003818F4BEDC00930D022A2F42
:100890008C01E9DBE3E0F8C7EBE0F2E0E00FF11FE9
:1008A0000895E5D717D0078D013019F403A1016031
:1008B00003A32091A90202890F73A02FB0E0A85AC8
:1008C000BD4F2C93028913890F5F1F4F028B138B2F
:1008D000E4E0D9C7EBE0F2E00895033098F4FADFE2
:1008E0001FEF10A711E0158FB89621E0013019F421
:1008F000E9E4F2E004C0023019F4EEE4F2E025E0AD
:100900008F0154DD0895B3D7AFD0203200E0300717
:1009100010F002A31BC0D901A95ABD4F0C9114E0DD
:10092000019F412D01E057D72230304010F402A33F
:100930000EC012A1102359F412A1102B12A31730CC
:1009400011F401E003C01E3011F402E0C6DFC0CF95
:1009500090D7609789D0A90180E090E04150504045
:10096000042F0F7310E0F801E85AFD4F0081FE01DB
:10097000E80FF91F0083042F052B21F00196803129
:10098000910764F3088114E0019F139410922B02E5
:100990002032304008F059C0682F40E050E020E09D
:1009A00030E080E090E070E008C0001608F4239585
:1009B000400D571F401B50400196861797074CF477
:1009C000FE01E80FF91F01810080001570F73395D3
:1009D000EFCF8A01005E1F4F01341040B0F100904C
:1009E000330241325040C4F0243078F538D000351D
:1009F00050F40881013A58F005E000932B020020E2
:100A000021F501E017C0013C10F008E01CC008818E
:100A10000034D8F409E017C03430B8F420D018817D
:100A2000103550F4013A40F006E000932B0200200C
:100A300061F402E052DF09C0013C10F00AE003C09B
:100A4000103418F407E000932B0244DF03A1026086
:100A500003A300E0028B038B6096E2E016C7FE0161
:100A6000E60FF71F00810895EBE0F2E02289338959
:100A700008956F939F9368B1902F9095692368B9FB
:100A80006BB1912F909569236BB9902F67B1692B4A
:100A900067B96AB1912F692B6AB9922F909565B1A8
:100AA000692365B964B1922F692B64B95C98549A33
:100AB0009F916F9108956F939F936AB16093E6023F
:100AC0006093E40267B16093E7026093E502602FF0
:100AD00060959091E40296239093E402612F6095D3
:100AE0009091E50296239093E50200270000000014
:100AF00000006091E50267B99F916F9108952AB94E
:100B000003B900000000000057B900000000000019
:100B100037B94AB903B908955C9A08955C98609111
:100B2000E70267B900000000000008959FD6C801E1
:100B3000202F26952695F894009164000E7F00934F
:100B4000640030E0220FE7E4F2E0E20FF31F0081DF
:100B500000937C00009164000160009364001181A7
:100B6000F901EB5BFD4F0181A6DFA02FF0E0E82F3C
:100B7000EC5AFD4F4080B0E01AC05091E70240911E
:100B8000E6023091E5022091E4021A2F092FB7DF27
:100B90003DD0E3E5F2E0008103950083023030F0C0
:100BA000033020F0043010F001E00083B395B41559
:100BB000F89418F3B1DF00E010E000938500009393
:100BC0008400B59A90E0880F991FE8E9F2E0E80FF9
:100BD000F91F00B705FF13C019D0B5990BC00091DC
:100BE00084001091850020E21032B8F300E0008309
:100BF000218308C0009186001091870001C001E0A8
:100C0000008311838BDF02D0E5E03CC60091E8024F
:100C10000FBF089508D000E0E8E9F2E0058F068FE5
:100C2000DCD2899108958A9380E003C0082FB5D063
:100C300083950091D9028017C8F3089517D64424EC
:100C400090E0A8E9B2E0FD01438E448E458D568DBB
:100C50009801241B350B058F168F078D10A1020FED
:100C6000131F078F10A305C0085C1040078F10A347
:100C70009395078D10A1083C1405B0F70091DA0296
:100C8000002341F0091718F44092DA0203C0091B4F
:100C90000093DA020CD3FD01018D128D0030140592
:100CA00011F0F801099580E004C08C0145D1402A7B
:100CB00083952DD08017C8F3442021F0FD01048DC9
:100CC0000160048F00E00093A80280E018C0082FA4
:100CD00021D0F801E754FD4F0081087179F0282FE9
:100CE000269526952695482F477001E074D530E06B
:100CF000FD01E20FF31F1089102B108B839507D095
:100D0000801728F3FD01038D148DE5E0BBC500912C
:100D1000D902089510E043E078C5A9D5302F60E0EE
:100D200070E0F8DFA9EBB2E0A00FB11FFD01558123
:100D3000038110E04091AA0274D5802F043008F49A
:100D400084E0E5DF301730F50481007CD9F4052F0D
:100D500026D2B801082F0695069510E090E0081BF2
:100D600010400617170724F4FD0104810B7F04834C
:100D700081959040861797076CF0FD01048104600F
:100D8000048308C004810B7F0483282F152F032FB1
:100D90001ED3B8018B01E4E076C58A93802F08D07A
:100DA000082F62D001E000830FE00183899108954C
:100DB0005ED55AD01581368102E00083A3EBB2E004
:100DC0000C9102600C9300E00283012F07C020E821
:100DD000F0E0E02FE754FD4F22A303953017B8F75A
:100DE00031C045D5D1D116969C918E91159706C0EC
:100DF00011961C911197082F04D083959817C0F76E
:100E000021C035D5D9D1E8E9F2E0E20FF31FA8E916
:100E1000B2E0A20FB31F1A3018F00D911C9111C04F
:100E20007ED02D913C9111972017310718F4015075
:100E3000104007C02D913C910217130718F40F5F63
:100E40001F4F70D0E4E01FC5202F72D003600083D5
:100E5000022F0AD000E1008300E001830481007CBE
:100E600011F0022F34D3089565D1E9EBF2E0E00FE1
:100E7000F11F0895FDD4812FF7DFA681958104C06D
:100E8000182F092F05D09395A917D0F7E3E0FCC4DC
:100E9000EED4212F402F50E0440F551FFA01E856A1
:100EA000FD4F60817181E8E9F2E0E40FF51F10E089
:100EB0006CD135D00617170780F492960C91020F6B
:100EC0000C93102F92970091AF020058101718F151
:100ED00023D00F5F1F4F26D01EC06017710780F40C
:100EE00092960C91021B0C9300E81091AE02011B2C
:100EF0001C919297011778F00FD001501040EBCF62
:100F0000FD0102A1013810F00A9502A302A10038E8
:100F100010F4039502A396CF00E892960C930085F7
:100F2000118508950087118703D008600083089514
:100F3000E3EBF2E00081089593D4902E412EAA2491
:100F40005524EBDEC801092D1FD1FD010381448129
:100F50004370439545D4023008F402E0638077245F
:100F600010E0601A710A0C910A9571F00A95C9F0A7
:100F7000025089F1045009F4AAC0085009F47BC05A
:100F8000005109F4B6C0D3C0F1D00183092D29DF87
:100F9000FD0101810A95018311F4092D09DFD0D0EB
:100FA000C6C0048102FF05C0092D0BD1502EDBD035
:100FB000BDC0CBD020F004E00C93A282B6C0442088
:100FC00009F4B5C00091DA02002309F0B0C0142D75
:100FD000092D50DFACC0B9D008F44AC0AED003959B
:100FE0000283448008E3402246944694469499F153
:100FF000882406C00081003139F1083029F183943A
:101000000091D902801628F58914C9F3082D92D0D1
:1010100029EB622E22E0722E600E711EF301048114
:101020000873069506950695041549F7082D75DE93
:10103000FD012381AC01421B5040F3012381021BBF
:10104000104040175107B4F6FD015282AA24A39420
:10105000D6CFAA2039F40091AB02002319F089D031
:10106000086001837AD008F462C0092DEDDE5FC00C
:10107000092D9EDE5CC0048102FF07C010E8092D27
:10108000A0D0502E70D001838ACF65D006151705E9
:1010900020F408E00C9375D0F6CF70D05ED010F439
:1010A000039502830481007C11F0092DDDD10091AC
:1010B000AD02002309F473CFFD011181101718F45C
:1010C000012F040DE0CF092D68DE50D0DCCF35D0E4
:1010D000002371F240D06016710620F400E10C93F9
:1010E0004DD002C04ED00183FD0102810A950283DA
:1010F0001EC0258109EB12E0020F1A1DF80122A182
:10110000239522A3FD012481F80102A122FD05C03F
:1011100007FFAECF00E10C930AC01091B002011797
:1011200020F0092D3ADE539442CF2BD00183052DB8
:10113000EBE0A2C310E043E068C302D0028108954F
:101140000091AC020093DA02089505D0FD012381DD
:101150000217104008958C011DC0FD0102811091FD
:10116000AB020117089506D00061089502D0026015
:1011700008955394E3EBF2E001810895D9DE016014
:10118000D5CEF7DF04600895D5DFA9EBB2E0A00F5C
:10119000B11F0895112312F400E010E008950CD05F
:1011A000F901E856FD4FBBDEF901E856FD4F2081FD
:1011B0003181021B130B0895202F30E0220F331FC3
:1011C000089555D3212F50DEA581B0E0A552BD4F23
:1011D0002C9300E2008301E035CE01E0009353023E
:1011E00000E00093DF020093E0020093E10200932D
:1011F000E2020093E3020CE219E00BD04091E3021B
:101200003091E2022091E1021091DF020091E002B0
:1012100030CC2CD3C801A0E007C00B2FFC010995EE
:10122000B3954B16D0F7A3950091D902A01790F46F
:101230000A2F10E043E0E9D2E9EBF2E0E00FF11F02
:1012400005811481107C19F4FC010995ECCF4680CE
:10125000B02FE7CFE5E016C3602F637006950695C3
:10126000202F30E0220FF901EB5BFD4F19D01081E8
:10127000102B1083F901E95BFD4F12D01181102B67
:101280001183660F660FE5E3F2E0E60FF31F22819C
:10129000E381F0E0E152FD4F0081022B00830895CD
:1012A000408101E010E0B1D2EFEDF2E00895DAD232
:1012B0000FB70093E802A0917B00B0B74090800088
:1012C0005090810066B2809184009091850070906A
:1012D000640080907C0000E400937B0004E000BF89
:1012E00000E00093800001E800938100F8940FE88B
:1012F00019E08FDFA0937B00B0BF40928000509236
:10130000810066BA90938500809384007092640097
:1013100080927C000091E8020FBFE9E0AFC2202F6D
:10132000237030E0220F220FE5E3F2E0E20FF31F1B
:10133000408151814030530719F01281FA0109951B
:101340000091E8020FBF089570E008D000680483A0
:10135000E9EDF2E0008103950083089505D0009146
:10136000D902C5D0048108950801232E342F00919D
:10137000D9021ED2E9EBF2E017D2238200E0048307
:101380000091010307831481177C2770220F220F1D
:10139000220F122B14830582168214811C7F337056
:1013A000132B148305D2E9EEF2E0FED15295507F63
:1013B000550F6770562B508B772319F0052F086057
:1013C000008BE9EEF2E0008D0395008F08954CD27A
:1013D000312F822F44245524EBD1A9EBB2E0A00F8A
:1013E000B11FFD016680932F0FC0092FD8DE282F73
:1013F00030E02195304068D024F0FD012481246044
:101400002483400E511E9395691678F78201E7E018
:1014100037C22FD280E090E04395522F532B51F4E6
:101420008FEF9FEF442311F08FEF9FEFA3C04A95FA
:10143000000F111F17FB16F04423C9F737FB26F0E6
:101440004395220F331FFACF442381F397FB66F3B2
:10145000880F991F4A950217130718F0021B130BE8
:10146000019636952795F0CF00D23CD028019FD128
:10147000A9EEB2E0A00FB11F21D069D09D01205F7D
:101480003F4F48D01BD079D0FD010189128947E038
:10149000208922952F702695421BBDD190E0E8E966
:1014A000F2E0E80FF91F21890ED031F0018BE3EB58
:1014B000F2E0008104600083E6E0E3C19D01205F6B
:1014C0003F4F8201089530E02017310708958A9335
:1014D00009D0B80129EF32E06AD1B5D08B010CD028
:1014E00089910895202F03D08781022FAFC060D14A
:1014F000F801E754FD4F0895F901408147700183D9
:1015000012834683458340E0478346E07ED10383D0
:1015100014830895B80111231AF4719561957040F0
:1015200050E0452F00E410E076D10617170758F475
:10153000F9010781501710F40A9503C0063030F402
:101540000395078308955395563058F3089591D124
:10155000C801F9014CD0801B910B008103FF0AC028
:10156000813800E0900714F09A9504C08038940701
:101570000CF493958C01E2E088C179D1D9018C916A
:101580008770E5DFFD012781013030E013075CF053
:1015900032D059D0238334830C9103FF0FC01481C0
:1015A0001F7314830BC011950195104024D0201B8C
:1015B000310B238334830C9103FDF1CF9D01018115
:1015C0001281C5DFFD0125817EDF1CF48683358312
:1015D00009C02681219530400217130734F400E03A
:1015E0000683858304D001831283E4E04CC1038128
:1015F000148146E010C146E008D1422F0CD123816E
:10160000348108951801F901BA012416350668F0ED
:101610001AD00EEF1FEFE9D0200D311D4AE0E61B76
:10162000F70B8F01F6DE14500895E40FF51F0EEF4F
:101630001FEFA101DAD0E00DF11D9F014AE0621910
:1016400073098B01E6CE200F311F08950BD155246D
:101650006624AED029EB32E0F6DFA9EEB2E0F90164
:101660000781A6D0A0D0408808E04022F90176800A
:101670008580872D88198395982D03C050825182CB
:101680009395791688F0092F8ADD292F30E02819E3
:101690003040220F331FFD01E20FF31F013015050B
:1016A0006CF300831183ECCF2D913C91119791E065
:1016B00009C0092F75D00081118106DF10F4692E51
:1016C000980193959817A8F3062D10E0000F111FAD
:1016D000AD01400F511F662091F4442069F0082F9E
:1016E0005FD0329700811181FD01628173816017A3
:1016F000710748F4539407C000E010E004C0FA01F9
:10170000329700811181682F6A95661641F4442052
:1017100019F04D915C9106C040E050E003C0FA0121
:1017200042815381552011F0B82F01C0B62DBB0F57
:10173000BB0F68DFA02FB10F833050F0442040E092
:10174000282F30E011F4215030401B2F62DED801E9
:101750001B2F1C7F11F0AFEFB3E0442029F0B695AA
:10176000A795B695A79519C0A63600E0B00718F45E
:10177000A0E0B0E002C0A656B0408D0120E030E00D
:1017800048E35FE960E070E052D089011695079563
:10179000D801113010F0AFEFB0E08D01E9E06EC07C
:1017A00010E0000F111FFD01E00FF11F0895082F39
:1017B00010E043E02AC000008895FECF0FE90DBF7E
:1017C00001E00EBFC0E4D1E067D0002309F074D07F
:1017D00047D6F1DFF0CF4A9512F0000FE1F70895F8
:1017E0004A9512F00695E1F708950024112400307F
:1017F000010741F01695079510F4040E151E440FCD
:10180000551FF5CF002D112D08954A951AF0000FA0
:10181000111FFBCF08954A951AF016950795FBCF37
:1018200008954A951AF015950795FBCF0895002461
:1018300011241001E02FE12BE22BE32B71F0369500
:1018400027951795079520F4040E151E261E371EA2
:10185000440F551F661F771FEDCF8001910108953A
:10186000AA929A928A927A926A925A924A92BA93D7
:10187000AA939A938A930895AA84998488847F80EE
:101880006E805D804C80BB81AA8199818881F0E067
:10189000EC0FFD1FEF01089501E0089520E006D050
:1018A000E9F70895259102D0E9F708952D930150A5
:1018B0001040202F212B089582E390E0FC01059138
:1018C0001491FC013296A591B491FC0134962591B6
:1018D0003491422F432B19F0F901E4DF01C0DEDF20
:1018E000069610E08E33910748F30895000000003B
:1018F00000000000000000000000000000000000E8
:1019000000000000000000000000000000F80000DF
:10191000007F000108113F20007F01010007000D3A
:1019200000130019001E007F0021082D007F002DEC
:101930000430010000000000000001070D13190031
:101940000000000000000000000000000000000097
:10195000000104000203000C000000000000000071
:101960000000000000000000000000000000000077
:101970000000000000000000000000000000000067
:1019800000960520029605100296058002960540F5
:1019900002030803082123272FFF282C2E2FFF01E5
:1019A00040404040FFFFFFFFFFFFFFFFFFFFFFFF43
:1019B000FFFFFFFFFFFFFFFFFFFFFFFFFFFFFFFF37
:1019C000FFFFFFFFFFFFFFFFFFFFFFFFFFFFFFFF27
:1019D000FFFFFFFFFFFFFFFFFFFFFFFFFFFFFFFF17
:1019E000FFFFFFFFFFFFFFFFFFFFFFFFFFFFFFFF07
:101BF000FFFFFFFFFFFFFFFFFFFFFFFFFFFFF1847E
:0400000300000000F9
:00000001FF
