:020000020000FC
:10000000D1CAEEC2FFFFFFFFFFFFFFFFFFFFF2C2FB
:10001000FFFFFFFFFFFFFFFFFFFFFFFFFFFFFFFFF0
:10002000FFFFFFFFFFFFFFFFFFFFFFFFFFFFFFFFE0
:1000300077C07000A001D416AA0010020000FF08CB
:100040000093BA000FEF0093BB0004E03AC0109198
:10005000BC00012F017008950091BC0000FDFCCF91
:100060000091C1010895F7DA422F2091BC0020FDD4
:10007000FCCF45D040A320E00DC0D801A20FB31F94
:100080005C91DF01A20FB31F50965C932395241758
:10009000A0F32395241718F420E030E0F8CF00E017
:1000A00002A308EF01A30CD0E4E0E1CA0091BC0078
:1000B00000FDFCCF00E00093C20108EF0093C101F6
:1000C00005EC0093BC0008953091BC0030FDFCCFDE
:1000D00016D032A130FF11C040E050E009C0FA0153
:1000E000E056FE4F3081F801E40FF51F3083439551
:1000F0004217A8F37DD00D7F02A302A1ABCFE0EAA7
:10010000F1E008950091BC0000FDFCCF0091C40116
:10011000013118F000E10093C4010091C401089579
:10012000BA93AA93FA93EA933A932A931A930A9367
:100130003FB70091B900005809F443C0005109F4D9
:1001400040C0005179F1085049F0005169F0085061
:1001500009F1005A81F1005159F140C0D0DF00E0AF
:1001600004A302A1086002A3CADF04A13CD05096F8
:100170000C910093BB0004A1039504A305ECA1DF3F
:100180003FBF0991199129913991E991F991A9916B
:10019000B9911895B4DF04A110A1011729F402A1A7
:1001A000016002A304E0EBCF0091B90001A3FACFF4
:1001B0001FD0046002A31CD0026002A300E003A3CE
:1001C000DDCF9DDF2091BB0003A10DD02C9303A1B7
:1001D000039503A302A1016002A3D0CF0091B9004F
:1001E0000093C101DFCF10E0DF01A00FB11F089520
:1001F000E0EAF1E002A108958A93802F57DF082FEB
:100200008991089500E00895219718833FD0A1D0E7
:100210002196089520DA2497073080F5183070F57C
:1002200030E0E5ECF1E0E00FF31F2081211731F120
:100230001083A5ECB1E0A00FB31F123001E088F0ED
:100240000B8324D02D5F25D00FEC1FD01AD009834B
:100250001DD02F5F1ED000E20A8318D02E5F3F4FC3
:100260000CC00A8313D02E5F14D000EC09830ED08B
:100270002F5F3F4F06D009D00FE76BD02496E4E004
:10028000F6C917960C9165D0BDCF088311E09E0189
:1002900008953F4F0FE75DC0012B11F03A9801C060
:1002A0003A9A42980895012B11F0399801C0399A71
:1002B0004198089501E009D000E005D000E02DC08C
:1002C00000E003D001E022D02AC020D028D001E0F5
:1002D00024C0C3D9802F1CD0982F88E097FB16F438
:1002E00001E001C000E0F1DF990F12D08A95B1F76B
:1002F00016D001E010D086B10BD081FB16F401E0DE
:1003000001C000E0E2E0B5C9E5E0B0C910E0CBCF44
:1003100000E010E0C1CFFADF01E010E0BDDF03E054
:100320000A95F1F70000089595D9402E812F922F5C
:10033000DA01C0DF440C042DCCDF442403C00D914E
:10034000C8DF43944816D8F3992309F4B9DFE7DFEF
:10035000DBCF6097103108F01FE0088300E050E029
:1003600009C0F901E00FF51F6081FE01E00FF51FE4
:10037000618303950117A8F3AE0120E0139504E70C
:10038000D3DF00E060960895F89410E810936100C0
:1003900000936100789408955ED916D160E057E02B
:1003A00043E03AE020E013E000E0C2D627D3DFD0FC
:1003B000EFD000E0E9E6F2E0008301837894A1ED5C
:1003C000B1E001E00093ED0101C040D10091F601E0
:1003D000002309F47DC000E00093F6010091EF01D5
:1003E000002341F0FD0102A1039502A30D3310F09B
:1003F00000E0068F2FD2FD012AD20081002311F0E8
:100400000A95008383958530B0F3FD01018D128D2F
:1004100009D310FBD6F3FD014789508D242F2F738C
:10042000E0E1F2E0E20FF91F00FB46F495D0009105
:10043000F5010023E1F0579A5F984AC0452B89F0F7
:100440008BD078D101E00093F2010091EE01109180
:10045000EF01101731F00093EF01002311F090939A
:10046000F30157985F980091F501002389F50091F9
:1004700060020023E9F00091610214E0019F012D68
:10048000212D112021F40EE10093D10111C0213062
:1004900021F40EE10093D2010BC0223021F40EE1D1
:1004A0000093D30105C0033019F40EE10093D40189
:1004B00080E0E82FF0E0EF52FE4F0081002311F0C2
:1004C00012E001C010E0082FA5DE8395853088F387
:1004D0004A9902C001E001C000E00093F50100FD6F
:1004E00074CF0091F201002329F10091EF01023055
:1004F00011F0033091F41091F101112349F01091A2
:10050000F30113501B3160F411E01093F00105C0AA
:100510001EE11093D30111E001C010E01093F1012E
:10052000053011F0063019F401E00093F00100E00D
:100530000093F2010091F001002351F000E00093DC
:10054000F001579A5F9802E40A95F1F700C002C0E3
:1005500057985F986ED03ACF009161020083FD01F9
:100560000789108D0F5F1F4F078B108F0895E2E6EC
:10057000F2E004E0018304E1048305E0058300E088
:10058000038304E1028301E0008303E0068308950E
:1005900000E0009370000091D6010295007F009367
:1005A000B300009170000260009370000091B100F0
:1005B00005600093B10003E00093B0000091B1002A
:1005C000077F0093B100089502E0DEDE05B7006109
:1005D00005BF529807E834DD69DD389A409A0895DE
:1005E0001A930A931FB703B70E7F03BF1FBF09916A
:1005F00019911895FA93EA934A933A932A931A9386
:100600000A934FB701E00093F6010091D6011091D3
:10061000D70150D0218D328D200F311F218F328F85
:100620004FBF09911991299139914991E991F99116
:10063000189500E00093690003B7016003BF07E06D
:1006400003BF889503B70E7F03BF089500DD002325
:1006500091F40091C20100FF0CC001FF06C020E12F
:1006600008ED11E031DD08D028D0F1DC002319F4C9
:100670001DCDF2DCC1DD089545DD1CD027812A3A6D
:1006800010F00023B1F0238F1085022F0059045081
:1006900038F00A9529F00A9519F0095021F005C0A3
:1006A0002059022FB7CD13A30895203A10F4022F3A
:1006B000ABDD0895E1EDF1E00895CFD788ED91E04D
:1006C0000091EC01102F1F5979F01A9581F01A95BD
:1006D00081F01A9551F11A9581F01A9589F01A95C1
:1006E00091F0145099F01CC00091F4011CC00DE46D
:1006F0001AC0EFE3F0E0049116C00091ED0113C0C1
:100700000091600210C081E692E00FC00091EE01FE
:100710000093D80100E00093EE010093F20105C0C0
:10072000003A18F46FDD0093D80121E08C019BDCC6
:10073000E2E09FC792D76097BDDF2789308DB9016E
:1007400089D061507040062F0F7310E0F801E05F10
:10075000FD4F00817BD00083062F072B21F00196EF
:100760008031910774F3482F4395088114E0019F6D
:1007700013941092EE01213200E0304008F052C094
:10078000842F90E003C062D00083019680319007EF
:10079000D4F34A9560E070E020E030E05BD050E0B8
:1007A00008C0001608F42395600D751F601B70408B
:1007B0000196841795073CF449D00181008000150B
:1007C00080F73395F1CF8B01005E1F4F013410404D
:1007D00048F1613270409CF0243020F532D0003571
:1007E00028F40881013A30F005E01AC00E3710F005
:1007F00008E016C008810D37A8F409E011C03430B4
:1008000088F40881003528F41CD0013A40F006E055
:1008100007C00E3710F00AE003C00D3718F407E0E8
:100820000093EE0117D000E0FC01E05FFD4F008374
:10083000019680349007C4F33DDF078B008F6096EC
:1008400077CFFE01E40FF51F00810895FE01E80F48
:10085000F91F089580E090E008956F939F9368B129
:10086000902F9095692368B96BB1912F909569236A
:100870006BB9902F67B1692B67B96AB1912F692B5A
:100880006AB9922F909565B1692365B964B1922FC9
:10089000692B64B95C98549A9F916F9108956F93F6
:1008A0009F936AB160939E0260939C0267B16093CC
:1008B0009F0260939D02602F609590919C02962309
:1008C00090939C02612F609590919D029623909346
:1008D0009D02002700000000000060919D0267B9A2
:1008E0009F916F9108952AB903B90000000000009C
:1008F00057B900000000000037B94AB903B908959C
:100900005C9A08955C9860919F0267B900000000AE
:10091000000008959FD6C801202F26952695F894AB
:10092000009164000E7F0093640030E0220FE9E044
:10093000F2E0E20FF31F008100937C00009164005D
:100940000160009364001181F901E95FFD4F0181AD
:10095000A6DFA02FF0E0E82FE45FFD4F4080B0E07D
:100960001AC050919F0240919E0230919D022091A9
:100970009C021A2F092FB7DF3DD0EBE0F2E0008197
:1009800003950083023030F0033020F0043010F083
:1009900001E00083B395B415F89418F3B1DF00E0DB
:1009A00010E00093850000938400B59A90E0880FD2
:1009B000991FE0E5F2E0E80FF91F00B705FF13C04B
:1009C00019D0B5990BC0009184001091850020E2E8
:1009D0001032B8F300E00083218308C00091860044
:1009E0001091870001C001E0008311838BDF02D0EA
:1009F000E5E03CC60091A0020FBF089508D000E0DA
:100A0000E0E5F2E0058F068FDCD2899108958A93A4
:100A100080E003C0082FB5D0839500919102801724
:100A2000C8F3089517D6442490E0A0E5B2E0FD0194
:100A3000438E448E458D568D9801241B350B058FB2
:100A4000168F078D10A1020F131F078F10A305C06B
:100A5000085C1040078F10A39395078D10A1083CE8
:100A60001405B0F700919202002341F0091718F421
:100A70004092920203C0091B009392020CD3FD0125
:100A8000018D128D0030140511F0F801099580E0F8
:100A900004C08C0145D1402A83952DD08017C8F31E
:100AA000442021F0FD01048D0160048F00E00093DB
:100AB000600280E018C0082F21D0F801EF58FD4FE8
:100AC0000081087179F0282F269526952695482FC4
:100AD000477001E074D530E0FD01E20FF31F10898B
:100AE000102B108B839507D0801728F3FD01038D01
:100AF000148DE5E0BBC500919102089510E043E03C
:100B000078C5A9D5302F60E070E0F8DFA1E7B2E04A
:100B1000A00FB11FFD015581038110E040916202D9
:100B200074D5802F043008F484E0E5DF301730F509
:100B30000481007CD9F4052F26D2B801082F069530
:100B4000069510E090E0081B10400617170724F4E4
:100B5000FD0104810B7F04838195904086179707E0
:100B60006CF0FD0104810460048308C004810B7FE4
:100B70000483282F152F032F1ED3B8018B01E4E027
:100B800076C58A93802F08D0082F62D001E00083B9
:100B90000FE00183899108955ED55AD01581368181
:100BA00002E00083ABE6B2E00C9102600C9300E03F
:100BB0000283012F07C020E8F0E0E02FEF58FD4F3F
:100BC00022A303953017B8F731C045D5D1D1169679
:100BD0009C918E91159706C011961C911197082F24
:100BE00004D083959817C0F721C035D5D9D1E0E559
:100BF000F2E0E20FF31FA0E5B2E0A20FB31F1A303C
:100C000018F00D911C9111C07ED02D913C9111973F
:100C10002017310718F40150104007C02D913C9166
:100C20000217130718F40F5F1F4F70D0E4E01FC5C1
:100C3000202F72D003600083022F0AD000E10083CE
:100C400000E001830481007C11F0022F34D3089569
:100C500065D1E1E7F2E0E00FF11F0895FDD4812FA7
:100C6000F7DFA681958104C0182F092F05D0939531
:100C7000A917D0F7E3E0FCC4EED4212F402F50E0B9
:100C8000440F551FFA01E05BFD4F60817181E0E583
:100C9000F2E0E40FF51F10E06CD135D0061717070E
:100CA00080F492960C91020F0C93102F9297009162
:100CB00067020058101718F123D00F5F1F4F26D07E
:100CC0001EC06017710780F492960C91021B0C9362
:100CD00000E810916602011B1C919297011778F0B1
:100CE0000FD001501040EBCFFD0102A1013810F0F0
:100CF0000A9502A302A1003810F4039502A396CF2F
:100D000000E892960C93008511850895008711875D
:100D100003D0086000830895EBE6F2E000810895B7
:100D200093D4902E412EAA245524EBDEC801092D20
:100D30001FD1FD01038144814370439545D40230A6
:100D400008F402E06380772410E0601A710A0C91C5
:100D50000A9571F00A95C9F0025089F1045009F41E
:100D6000AAC0085009F47BC0005109F4B6C0D3C032
:100D7000F1D00183092D29DFFD0101810A9501834D
:100D800011F4092D09DFD0D0C6C0048102FF05C0CF
:100D9000092D0BD1502EDBD0BDC0CBD020F004E00C
:100DA0000C93A282B6C0442009F4B5C0009192020F
:100DB000002309F0B0C0142D092D50DFACC0B9D00C
:100DC00008F44AC0AED003950283448008E3402271
:100DD00046944694469499F1882406C000810031D7
:100DE00039F1083029F1839400919102801628F599
:100DF0008914C9F3082D92D021E7622E22E0722EC9
:100E0000600E711EF3010481087306950695069520
:100E1000041549F7082D75DEFD012381AC01421B45
:100E20005040F3012381021B104040175107B4F6D4
:100E3000FD015282AA24A394D6CFAA2039F40091AE
:100E40006302002319F089D0086001837AD008F486
:100E500062C0092DEDDE5FC0092D9EDE5CC00481FD
:100E600002FF07C010E8092DA0D0502E70D00183DA
:100E70008ACF65D00615170520F408E00C9375D0CD
:100E8000F6CF70D05ED010F4039502830481007C0D
:100E900011F0092DDDD100916502002309F473CF13
:100EA000FD011181101718F4012F040DE0CF092D59
:100EB00068DE50D0DCCF35D0002371F240D0601610
:100EC000710620F400E10C934DD002C04ED0018396
:100ED000FD0102810A9502831EC0258101E712E00F
:100EE000020F1A1DF80122A1239522A3FD012481DE
:100EF000F80102A122FD05C007FFAECF00E10C936F
:100F00000AC010916802011720F0092D3ADE5394AF
:100F100042CF2BD00183052DEBE0A2C310E043E0CC
:100F200068C302D002810895009164020093920286
:100F3000089505D0FD0123810217104008958C010A
:100F40001DC0FD010281109163020117089506D0B2
:100F50000061089502D0026008955394EBE6F2E038
:100F600001810895D9DE0160D5CEF7DF04600895D0
:100F7000D5DFA1E7B2E0A00FB11F0895112312F44D
:100F800000E010E008950CD0F901E05BFD4FBBDEFE
:100F9000F901E05BFD4F20813181021B130B0895A5
:100FA000202F30E0220F331F089555D3212F50DE1C
:100FB000A581B0E0AD56BD4F2C9300E2008301E067
:100FC00035CE01E000930B0200E0009397020093FE
:100FD00098020093990200939A0200939B0200E208
:100FE00018E00BD040919B0230919A022091990217
:100FF000109197020091980230CC2CD3C801A0E048
:1010000007C00B2FFC010995B3954B16D0F7A3959C
:1010100000919102A01790F40A2F10E043E0E9D26A
:10102000E1E7F2E0E00FF11F05811481107C19F473
:10103000FC010995ECCF4680B02FE7CFE5E016C361
:10104000602F637006950695202F30E0220FF9017E
:10105000E95FFD4F19D01081102B1083F901E75F74
:10106000FD4F12D01181102B1183660F660FE7EF31
:10107000F1E0E60FF31F2281E381F0E0E956FD4F36
:101080000081022B00830895408101E010E0B1D27D
:10109000E7E9F2E00895DAD20FB70093A002A09139
:1010A0007B00B0B7409080005090810066B2809184
:1010B0008400909185007090640080907C0000E432
:1010C00000937B0004E000BF00E00093800001E893
:1010D00000938100F89403E818E08FDFA0937B0071
:1010E000B0BF409280005092810066BA9093850014
:1010F000809384007092640080927C000091A00232
:101100000FBFE9E0AFC2202F237030E0220F220F83
:10111000E7EFF1E0E20FF31F4081518140305307C8
:1011200019F01281FA0109950091A0020FBF0895EC
:1011300070E008D000680483E1E9F2E000810395E3
:101140000083089505D000919102C5D004810895CF
:101150000801232E342F009191021ED2E1E7F2E024
:1011600017D2238200E004830091B902078314811F
:10117000177C2770220F220F220F122B1483058257
:10118000168214811C7F3370132B148305D2E1EA7D
:10119000F2E0FED15295507F550F6770562B508B61
:1011A000772319F0052F0860008BE1EAF2E0008D4B
:1011B0000395008F08954CD2312F822F442455245B
:1011C000EBD1A1E7B2E0A00FB11FFD016680932F24
:1011D0000FC0092FD8DE282F30E02195304068D08D
:1011E00024F0FD01248124602483400E511E939538
:1011F000691678F78201E7E037C22FD280E090E0ED
:101200004395522F532B51F48FEF9FEF442311F04E
:101210008FEF9FEFA3C04A95000F111F17FB16F029
:101220004423C9F737FB26F04395220F331FFACF2B
:10123000442381F397FB66F3880F991F4A950217A1
:10124000130718F0021B130B019636952795F0CF64
:1012500000D23CD028019FD1A1EAB2E0A00FB11F7B
:1012600021D069D09D01205F3F4F48D01BD079D05D
:10127000FD010189128947E0208922952F7026956A
:10128000421BBDD190E0E0E5F2E0E80FF91F2189B3
:101290000ED031F0018BEBE6F2E0008104600083B8
:1012A000E6E0E3C19D01205F3F4F8201089530E0F9
:1012B0002017310708958A9309D0B80121EB32E055
:1012C0006AD1B5D08B010CD089910895202F03D01D
:1012D0008781022FAFC060D1F801EF58FD4F08950C
:1012E000F90140814770018312834683458340E0C2
:1012F000478346E07ED1038314830895B801112308
:101300001AF471956195704050E0452F00E410E0AB
:1013100076D10617170758F4F9010781501710F412
:101320000A9503C0063030F403950783089553955A
:10133000563058F3089591D1C801F9014CD0801B63
:10134000910B008103FF0AC0813800E0900714F080
:101350009A9504C0803894070CF493958C01E2E0D0
:1013600088C179D1D9018C918770E5DFFD01278192
:10137000013030E013075CF032D059D0238334833E
:101380000C9103FF0FC014811F7314830BC01195C0
:101390000195104024D0201B310B238334830C9102
:1013A00003FDF1CF9D0101811281C5DFFD01258182
:1013B0007EDF1CF48683358309C026812195304069
:1013C0000217130734F400E00683858304D00183F9
:1013D0001283E4E04CC10381148146E010C146E071
:1013E00008D1422F0CD12381348108951801F901CD
:1013F000BA012416350668F01AD00EEF1FEFE9D0B7
:10140000200D311D4AE0E61BF70B8F01F6DE14506C
:101410000895E40FF51F0EEF1FEFA101DAD0E00DE4
:10142000F11D9F014AE0621973098B01E6CE200F7E
:10143000311F08950BD155246624AED021E732E048
:10144000F6DFA1EAB2E0F9010781A6D0A0D040887A
:1014500008E04022F90176808580872D88198395E0
:10146000982D03C0508251829395791688F0092FE8
:101470008ADD292F30E028193040220F331FFD016B
:10148000E20FF31F013015056CF300831183ECCFDD
:101490002D913C91119791E009C0092F75D00081E1
:1014A000118106DF10F4692E980193959817A8F31F
:1014B000062D10E0000F111FAD01400F511F6620D7
:1014C00091F4442069F0082F5FD032970081118198
:1014D000FD01628173816017710748F4539407C05E
:1014E00000E010E004C0FA01329700811181682FFA
:1014F0006A95661641F4442019F04D915C9106C03E
:1015000040E050E003C0FA0142815381552011F0C0
:10151000B82F01C0B62DBB0FBB0F68DFA02FB10FD6
:10152000833050F0442040E0282F30E011F4215067
:1015300030401B2F62DED8011B2F1C7F11F0AFEF54
:10154000B3E0442029F0B695A795B695A79519C0A4
:10155000A63600E0B00718F4A0E0B0E002C0A6563E
:10156000B0408D0120E030E048E35FE960E070E0EA
:1015700052D0890116950795D801113010F0AFEFC0
:10158000B0E08D01E9E06EC010E0000F111FFD0119
:10159000E00FF11F0895082F10E043E02AC000007B
:1015A0008895FECF0FE90DBF01E00EBFC0E4D1E08A
:1015B00067D0002309F074D0EFD6F1DFF0CF4A9561
:1015C00012F0000FE1F708954A9512F00695E1F741
:1015D0000895002411240030010741F01695079565
:1015E00010F4040E151E440F551FF5CF002D112DBC
:1015F00008954A951AF0000F111FFBCF08954A95E0
:101600001AF016950795FBCF08954A951AF015958F
:101610000795FBCF0895002411241001E02FE12B42
:10162000E22BE32B71F0369527951795079520F45B
:10163000040E151E261E371E440F551F661F771FEA
:10164000EDCF800191010895AA929A928A927A929E
:101650006A925A924A92BA93AA939A938A93089555
:10166000AA84998488847F806E805D804C80BB8151
:10167000AA8199818881F0E0EC0FFD1FEF010895A8
:1016800001E0089520E006D0E9F70895259102D001
:10169000E9F708952D9301501040202F212B089534
:1016A00082E390E0FC0105911491FC013296A59132
:1016B000B491FC01349625913491422F432B19F0BB
:1016C000F901E4DF01C0DEDF069610E08E339107FA
:1016D00048F3089500000000000000000000000032
:1016E00000000000000000000000000000000000FA
:1016F0000000000000F800000000000000000000F2
:1017000001070D131900000000000C00000000008C
:1017100000000000000000000000000000000000C9
:1017200000000000000000000001008A0410028A8E
:101730000420028A0440028A04800203080308018C
:1017400040404040FFFFFFFFFFFFFFFFFFFFFFFFA5
:10175000FFFFFFFFFFFFFFFFFFFFFFFFFFFFFFFF99
:10176000FFFFFFFFFFFFFFFFFFFFFFFFFFFFFFFF89
:10177000FFFFFFFFFFFFFFFFFFFFFFFFFFFFFFFF79
:10178000FFFFFFFFFFFFFFFFFFFFFFFFFFFFFFFF69
:101BF000FFFFFFFFFFFFFFFFFFFFFFFFFFFF668A03
:0400000300000000F9
:00000001FF
