:020000020000FC
:1000000024CC8CC3FFFFFFFFFFFFFFFFFFFF90C368
:10001000FFFFFFFFFFFFFFFFFFFFFFFFFFFFFFFFF0
:10002000FFFFFFFFFFFFFFFFFFFFFFFFFFFFFFFFE0
:100030006FC0C000A0017A198A0060020000FF09A9
:100040000093BA000FEF0093BB0004E03AC0109198
:10005000BC00012F017008950091BC0000FDFCCF91
:100060000091C10108954ADC422F2091BC0020FD7F
:10007000FCCFB7D040A320E00DC0D801A20FB31F22
:100080005C91DF01A20FB31F50965C932395241758
:10009000A0F32395241718F420E030E0F8CF00E017
:1000A00002A308EF01A30CD0E4E034CC0091BC0023
:1000B00000FDFCCF00E00093C20108EF0093C101F6
:1000C00005EC0093BC0008953091BC0030FDFCCFDE
:1000D0003091C20130FFFCCF40E050E009C0FA018E
:1000E000E056FE4F3081F801E40FF51F3083439551
:1000F0004217A8F379D00D7F02A3ACCF0091C401C1
:10010000013118F000E10093C4010091C401089589
:10011000BA93AA93FA93EA933A932A931A930A9377
:100120003FB70091B900005809F444C0005109F4E8
:1001300041C0005179F1085049F0005169F0085070
:1001400009F1005A81F1005159F141C04AD000E053
:1001500004A302A1086002A344D004A13DD050969C
:100160000C910093BB0004A1039504A305ECA9DF47
:100170003FBF0991199129913991E991F991A9917B
:10018000B99118952ED004A110A1011729F402A14C
:10019000016002A304E0EBCF0091B90001A3FACF04
:1001A00023D0046002A320D0026002A300E004A3D5
:1001B00003A3DCCF16D02091BB0003A10DD02C935C
:1001C00003A1039503A302A1016002A3CFCF009175
:1001D000B9000093C101DECF10E0DF01A00FB11F15
:1001E0000895E0EAF1E00895E0EAF1E002A108955F
:1001F0008A93802F5BDF082F8991089500E008958E
:10020000219718835ED0C2D0219608958A932197B2
:100210000023389A81F0409A80E002E0809FE5EC6C
:10022000F1E0E00DF11D018158D00081AFD0839540
:10023000813160F4F2CF409880E000E0F0E0E82FF8
:10024000EB53FE4F03A383958730C0F3219689912A
:10025000089554DB2497812F073058F510E0A5EC62
:10026000B1E0A00FB11FFD0103A1081711F183A395
:10027000882301E091F00B8324D02D5F25D0888363
:1002800020D01AD01DD02F5F1FD00091E7010A8324
:1002900018D02E5F3F4F00E20BC00A8312D02E5FB2
:1002A00013D000EC0DD02F5F3F4F06D016D00FE7D4
:1002B0006DD02496E4E02ECBFD0102A567D09ECF41
:1002C000098311E09E0108953F4F0FE75FC021971A
:1002D0000093E70102D000E296CF0883F2CF8A9321
:1002E0002197802F00E00BD0882311F006E001C099
:1002F0000CE0F3DF0DE24AD001E001D0A7CF088384
:1003000011E09E0100E342C025D006D0399A419801
:1003100000C023D000C0089500C03A9A429AFACF94
:10032000399A4198F9DF16D0F5CF17D0102F08E091
:1003300017FB399A16F4419A01C04198EDDF110F6D
:100340000CD00A95A9F700C005D0E7DF06B105D0AB
:1003500002700895399A419A08953A9A42980895F8
:10036000CCDA402E812F922FDA01CEDF440C042DFF
:10037000DCDF442403C00D91D8DF43944816D8F342
:10038000992309F4CDDF00C0E5E0C3CA60971031BE
:1003900008F01FE0088300E050E009C0F901E00F19
:1003A000F51F6081FE01E00FF51F618303950117C2
:1003B000A8F3AE0120E0139504E7D2DF00E06096D9
:1003C00008959EDA80E090E019D0978B10E00289C2
:1003D00040DF83958530C0F3E2E09ECA91DA80E089
:1003E00090E00CD00789002329F00A95078B102F85
:1003F00002892FDF83958530A0F3EECFE4EFF1E0A3
:10040000E80FF91F0895213108F020E160E044EF82
:1004100051E070E009C0F801E60FF71F3081FB01E1
:10042000EC50FE4F308363956217A8F30FEF0093F3
:100430000302FA01408B518B758F748FC2CF5EDA45
:10044000CDDF04EF11E0209110022F3FF1F0209159
:100450001102222369F0F801022F0A95058F32C09C
:10046000248D2395248FA089B32F2E93008B118B7D
:10047000F801A089B1892C91248F9D012F5F3F4FF6
:10048000208B318B248D2F3F11F400E01CC0207F86
:10049000203F31F3048D02950F700695058F20E003
:1004A00030911002422F01E010E0F6D9302339F0EC
:1004B0000FE030E0E4EFF1E0E20FF31F078B23954C
:1004C000253070F301E0E4E025CAF89410E81093B9
:1004D0006100009361007894089510DA14D160E00F
:1004E00057E043E03AE020E013E000E074D7D9D3CE
:1004F000DDD0EDD000E0E9E9F2E0008301837894FB
:10050000A2E1B2E001E00093310207C03DD10091C9
:100510003502002311F457985F9800913C020023A4
:1005200009F466C000E000933C0200913902002308
:1005300019F0FD010A9507A300912F02002319F07D
:10054000FD010A95058FFD0104891589BED310FBB5
:10055000D6F300FB1EF4E5D118D212C0FD010289CA
:100560001389012B69F0DDD137D201E00093380205
:100570000091320210913302101711F000933302F0
:1005800000913602002339F4009135020023A9F0CE
:10059000579A5F9812C000913A02002371F40091BB
:1005A0000A0210913902112321F410912D02112316
:1005B00011F01FEC01C010E04CDE00913A02002364
:1005C000B9F000912F02002399F402E000932F026A
:1005D00036DF002369F480E090E0FD01E80FF91FA9
:1005E0001689FC012ED183958530B8F390933A0299
:1005F00000E04A9901E0FD0100FB04A100F904A319
:10060000078D002311F411E001C010E004A10D7F5B
:10061000110F012B04A315A1101799F0002321F449
:1006200000E0038F5CDE09C080E000E0FD01E80F20
:10063000F01F068B83958530C8F300913602009336
:10064000370200913602002309F460CF009138028E
:100650000023E9F000913302023011F0033061F41D
:1006600010913902112329F0FD0113A1146013A385
:1006700003C01EE110933902053011F0063021F459
:10068000FD0103A1046003A300E000933802FD0113
:1006900003A102FF04C0579A5F9800E003A304A1DE
:1006A00000FF02C064D039CF6FD037CFE2E9F2E06B
:1006B00002E0018304E1048305E0058300E0038395
:1006C00004E1028301E0008303E00683089500E073
:1006D00000937000009112020295007F0093B30016
:1006E000009170000260009370000091B1000560FD
:1006F0000093B10003E00093B0000091B100077FC8
:100700000093B100089502E0E0DE05B7006105BF87
:10071000529807E895DCCADC01E078CD1A930A9379
:100720001FB703B70E7F03BF1FBF0991199118951B
:10073000FA93EA934A933A932A931A930A934FB7F8
:1007400001E000933C02009112021091130204D1C7
:1007500024893589200F311F248B358B4FBF099198
:100760001991299139914991E991F991189500E0F0
:100770000093690003B7016003BF07E003BF8895DA
:1007800003B70E7F03BF089562DC002391F400914C
:10079000C20100FF0CC001FF06C020E104E112E02D
:1007A00093DC08D052D053DC002319F47FCC54DC06
:1007B0001FDD08958A93A2DC209114022093300259
:1007C000213F10F00023D9F180911502122F10590A
:1007D000155060F0B9F01A95D1F01950E9F01450A5
:1007E00031F1135038F1135050F124C0182FF0E0BC
:1007F0002F70E22F26D00091300210E00F708CD0C5
:10080000868B1DC0082F63DD80932E0218C0082F31
:1008100066DD80932D0213C080933A020A95202F43
:1008200005E112E0F0DD01E000932F0208C08093A3
:10083000310205C0203818F4182F022FE1DC89910D
:100840000895EA5FFD4F008104CD59D857DC02308E
:1008500008F060C081D0CF010296A1E0068D102F74
:100860001F59A9F01A95B9F01A95B9F01250C9F0AC
:100870001A95C9F01A95D9F01A9549F11A9551F1BE
:100880001A9559F11A95C9F0175419F03BC000A5F3
:100890000CC002E40AC00DE408C0EFE3F0E00491EC
:1008A00034C0078D02C000919002028330C001A5C0
:1008B000028303A10E7F03A32AC000A1028300E0EC
:1008C00000A303A10D7F03A300E006A320C088E8D6
:1008D00092E016C080E892E013C0A0E00A2F64D234
:1008E00034E0A39F39D0E00DF11D0283212F0A2FA0
:1008F00010E043E0D1D710D02283A395A43070F349
:10090000A8E005C0003818F479DC009314022A2FFF
:100910008C01A9DBE3E0FFC7E2E1F2E0E00FF11FA9
:100920000895ECD719D0078D013019F403A10160A7
:1009300003A30091910201A7202F02890F71A02F1C
:10094000B0E0A05ABD4F2C93028913890F5F1F4F4F
:10095000028B138BE4E0DEC7E2E1F2E0089503309E
:1009600098F4FADF1FEF10A711E0158FB89621E079
:10097000013019F4E1E5F2E004C0023019F4E6E5D3
:10098000F2E025E08F013FDD0895E6DF228933891B
:10099000203200E0300710F002A3E1CF01A514E0FF
:1009A000019F412D01E05ED72230304010F402A3B8
:1009B000089512A1102379F412A1102B12A317305D
:1009C00021F407E802A301E0CACF1E3021F40EE8AB
:1009D00002A302E0C4DF089591D76097A2E1B2E0DC
:1009E000FD0122893389A90180E090E04150504007
:1009F000042F0F7110E0F801E05AFD4F0081FE0155
:100A0000E80FF91F0083042F052B21F00196803198
:100A1000910764F3088114E0019F1394109232024D
:100A20002131304008F058C0682F6A9520E030E04E
:100A300080E090E070E004C0011708F4239501966F
:100A4000FE01E80FF91F0081861797072CF411812A
:100A5000101790F73395F3CF488150E0401B50407A
:100A60008A01005E1F4F01341040B0F14132504006
:100A7000CCF0243088F53FD0003558F40881013A95
:100A800060F005E033D007FD27C0006802A301E055
:100A900018C0013C10F008E01DC008810034E0F4EB
:100AA00009E018C03430C0F426D01881103558F44D
:100AB000013A48F006E01AD007FD0EC0006802A314
:100AC00002E04DDF09C0013C10F00AE003C0103421
:100AD00018F407E000933202FD0103A1026003A3B2
:100AE00000E0028B038B02A3609634CF00933202A6
:100AF000FD0102A10895FE01E60FF71F0081089590
:100B00006F939F9368B1902F9095692368B96BB1EB
:100B1000912F909569236BB9902F67B1692B67B9B5
:100B20006AB1912F692B6AB9922F909565B16923AB
:100B300065B964B1922F692B64B95C98549A9F91FE
:100B40006F9108956F939F936AB16093CE02609303
:100B5000CC0267B16093CF026093CD02602F6095A5
:100B60009091CC0296239093CC02612F6095909146
:100B7000CD0296239093CD020027000000000000D4
:100B80006091CD0267B99F916F9108952AB903B919
:100B900000000000000057B900000000000037B955
:100BA0004AB903B908955C9A08955C986091CF02A0
:100BB00067B900000000000008959FD6C801202FEB
:100BC00026952695F894009164000E7F00936400AA
:100BD00030E0220FEFE4F2E0E20FF31F0081009318
:100BE0007C00009164000160009364001181F901B0
:100BF000E35BFD4F0181A6DFA02FF0E0E82FE45A70
:100C0000FD4F4080B0E01AC05091CF024091CE021B
:100C10003091CD022091CC021A2F092FB7DF3DD0A1
:100C2000EBE5F2E0008103950083023030F0033001
:100C300020F0043010F001E00083B395B415F8946F
:100C400018F3B1DF00E010E000938500009384000A
:100C5000B59A90E0880F991FE0E8F2E0E80FF91FDD
:100C600000B705FF13C019D0B5990BC000918400DF
:100C70001091850020E21032B8F300E00083218358
:100C800008C0009186001091870001C001E0008338
:100C900011838BDF02D0E5E03CC60091D0020FBF8C
:100CA000089508D000E0E0E8F2E0058F068FDCD27E
:100CB000899108958A9380E003C0082FB5D0839569
:100CC0000091C1028017C8F3089517D6442490E01C
:100CD000A0E8B2E0FD01438E448E458D568D98010B
:100CE000241B350B058F168F078D10A1020F131FC4
:100CF000078F10A305C0085C1040078F10A39395C1
:100D0000078D10A1083C1405B0F70091C202002322
:100D100041F0091718F44092C20203C0091B009366
:100D2000C2020CD3FD01018D128D0030140511F0AB
:100D3000F801099580E004C08C0145D1402A8395D3
:100D40002DD08017C8F3442021F0FD01048D0160EF
:100D5000048F00E00093900280E018C0082F21D09B
:100D6000F801EF55FD4F0081087179F0282F269585
:100D700026952695482F477001E074D530E0FD0197
:100D8000E20FF31F1089102B108B839507D080176B
:100D900028F3FD01038D148DE5E0BBC50091C10270
:100DA000089510E043E078C5A9D5302F60E070E0E9
:100DB000F8DFA1EAB2E0A00FB11FFD015581038168
:100DC00010E04091920274D5802F043008F484E042
:100DD000E5DF301730F50481007CD9F4052F26D2E9
:100DE000B801082F0695069510E090E0081B10400A
:100DF0000617170724F4FD0104810B7F04838195F6
:100E00009040861797076CF0FD010481046004830D
:100E100008C004810B7F0483282F152F032F1ED3B6
:100E2000B8018B01E4E076C58A93802F08D0082FA3
:100E300062D001E000830FE00183899108955ED5BF
:100E40005AD01581368102E00083ABE9B2E00C9103
:100E500002600C9300E00283012F07C020E8F0E05D
:100E6000E02FEF55FD4F22A303953017B8F731C09F
:100E700045D5D1D116969C918E91159706C01196A5
:100E80001C911197082F04D083959817C0F721C0A3
:100E900035D5D9D1E0E8F2E0E20FF31FA0E8B2E0E7
:100EA000A20FB31F1A3018F00D911C9111C07ED003
:100EB0002D913C9111972017310718F401501040E3
:100EC00007C02D913C910217130718F40F5F1F4FB5
:100ED00070D0E4E01FC5202F72D003600083022F82
:100EE0000AD000E1008300E001830481007C11F05E
:100EF000022F34D3089565D1E1EAF2E0E00FF11F4B
:100F00000895FDD4812FF7DFA681958104C0182FA5
:100F1000092F05D09395A917D0F7E3E0FCC4EED4D0
:100F2000212F402F50E0440F551FFA01E058FD4F8C
:100F300060817181E0E8F2E0E40FF51F10E06CD110
:100F400035D00617170780F492960C91020F0C9378
:100F5000102F9297009197020058101718F123D084
:100F60000F5F1F4F26D01EC06017710780F4929646
:100F70000C91021B0C9300E810919602011B1C912E
:100F80009297011778F00FD001501040EBCFFD0180
:100F900002A1013810F00A9502A302A1003810F452
:100FA000039502A396CF00E892960C9300851185D5
:100FB00008950087118703D0086000830895EBE946
:100FC000F2E00081089593D4902E412EAA24552456
:100FD000EBDEC801092D1FD1FD010381448143705F
:100FE000439545D4023008F402E06380772410E092
:100FF000601A710A0C910A9571F00A95C9F00250B5
:1010000089F1045009F4AAC0085009F47BC00051CA
:1010100009F4B6C0D3C0F1D00183092D29DFFD0149
:1010200001810A95018311F4092D09DFD0D0C6C0D2
:10103000048102FF05C0092D0BD1502EDBD0BDC0AD
:10104000CBD020F004E00C93A282B6C0442009F477
:10105000B5C00091C202002309F0B0C0142D092DC3
:1010600050DFACC0B9D008F44AC0AED003950283BB
:10107000448008E3402246944694469499F188249B
:1010800006C00081003139F1083029F183940091C4
:10109000C102801628F58914C9F3082D92D021EADF
:1010A000622E22E0722E600E711EF301048108731D
:1010B000069506950695041549F7082D75DEFD0180
:1010C0002381AC01421B5040F3012381021B1040DD
:1010D00040175107B4F6FD015282AA24A394D6CF3B
:1010E000AA2039F400919302002319F089D00860F6
:1010F00001837AD008F462C0092DEDDE5FC0092DAE
:101100009EDE5CC0048102FF07C010E8092DA0D05C
:10111000502E70D001838ACF65D00615170520F4B4
:1011200008E00C9375D0F6CF70D05ED010F4039524
:1011300002830481007C11F0092DDDD1009195021C
:10114000002309F473CFFD011181101718F4012F4A
:10115000040DE0CF092D68DE50D0DCCF35D0002360
:1011600071F240D06016710620F400E10C934DD06E
:1011700002C04ED00183FD0102810A9502831EC088
:10118000258101EA12E0020F1A1DF80122A1239520
:1011900022A3FD012481F80102A122FD05C007FF61
:1011A000AECF00E10C930AC010919802011720F015
:1011B000092D3ADE539442CF2BD00183052DEBE06D
:1011C000A2C310E043E068C302D0028108950091F9
:1011D00094020093C202089505D0FD0123810217F5
:1011E000104008958C011DC0FD01028110919302F1
:1011F0000117089506D00061089502D00260089595
:101200005394EBE9F2E001810895D9DE0160D5CE77
:10121000F7DF04600895D5DFA1EAB2E0A00FB11FA7
:101220000895112312F400E010E008950CD0F901A4
:10123000E058FD4FBBDEF901E058FD4F20813181C0
:10124000021B130B0895202F30E0220F331F089547
:1012500055D3212F50DEA581B0E0AD53BD4F2C9367
:1012600000E2008301E035CE01E000935B0200E084
:101270000093C7020093C8020093C9020093CA02F8
:101280000093CB0203E719E00BD04091CB023091E1
:10129000CA022091C9021091C7020091C80230CC45
:1012A0002CD3C801A0E007C00B2FFC010995B39512
:1012B0004B16D0F7A3950091C102A01790F40A2F06
:1012C00010E043E0E9D2E1EAF2E0E00FF11F05812E
:1012D0001481107C19F4FC010995ECCF4680B02FE5
:1012E000E7CFE5E016C3602F637006950695202FC3
:1012F00030E0220FF901E35BFD4F19D01081102B74
:101300001083F901E15BFD4F12D01181102B118385
:10131000660F660FEDE3F2E0E60FF31F2281E38133
:10132000F0E0E953FD4F0081022B008308954081D6
:1013300001E010E0B1D2E7ECF2E00895DAD20FB7A5
:101340000093D002A0917B00B0B7409080005090F5
:10135000810066B280918400909185007090640055
:1013600080907C0000E400937B0004E000BF00E07C
:101370000093800001E800938100F89406ED19E0E5
:101380008FDFA0937B00B0BF40928000509281001D
:1013900066BA909385008093840070926400809276
:1013A0007C000091D0020FBFE9E0AFC2202F237074
:1013B00030E0220F220FEDE3F2E0E20FF31F408155
:1013C00051814030530719F01281FA0109950091BB
:1013D000D0020FBF089570E008D000680483E1ECEC
:1013E000F2E0008103950083089505D00091C102C9
:1013F000C5D0048108950801232E342F0091C10225
:101400001ED2E1EAF2E017D2238200E004830091C9
:10141000E90207831481177C2770220F220F220F05
:10142000122B14830582168214811C7F3370132BB8
:10143000148305D2E1EDF2E0FED15295507F550FB5
:101440006770562B508B772319F0052F0860008B9F
:10145000E1EDF2E0008D0395008F08954CD2312F1D
:10146000822F44245524EBD1A1EAB2E0A00FB11F92
:10147000FD016680932F0FC0092FD8DE282F30E0A2
:101480002195304068D024F0FD012481246024831C
:10149000400E511E9395691678F78201E7E037C236
:1014A0002FD280E090E04395522F532B51F48FEFD1
:1014B0009FEF442311F08FEF9FEFA3C04A95000FD9
:1014C000111F17FB16F04423C9F737FB26F043958D
:1014D000220F331FFACF442381F397FB66F3880F63
:1014E000991F4A950217130718F0021B130B019658
:1014F00036952795F0CF00D23CD028019FD1A1EDA1
:10150000B2E0A00FB11F21D069D09D01205F3F4FF5
:1015100048D01BD079D0FD010189128947E020898C
:1015200022952F702695421BBDD190E0E0E8F2E0B5
:10153000E80FF91F21890ED031F0018BEBE9F2E0C1
:10154000008104600083E6E0E3C19D01205F3F4F1E
:101550008201089530E02017310708958A9309D059
:10156000B80121EE32E06AD1B5D08B010CD089915F
:101570000895202F03D08781022FAFC060D1F801DA
:10158000EF55FD4F0895F9014081477001831283A3
:101590004683458340E0478346E07ED1038314833E
:1015A0000895B80111231AF471956195704050E0C7
:1015B000452F00E410E076D10617170758F4F9011B
:1015C0000781501710F40A9503C0063030F40395D4
:1015D000078308955395563058F3089591D1C80163
:1015E000F9014CD0801B910B008103FF0AC08138A8
:1015F00000E0900714F09A9504C0803894070CF42A
:1016000093958C01E2E088C179D1D9018C918770E2
:10161000E5DFFD012781013030E013075CF032D0B7
:1016200059D0238334830C9103FF0FC014811F739F
:1016300014830BC011950195104024D0201B310B51
:10164000238334830C9103FDF1CF9D01018112812D
:10165000C5DFFD0125817EDF1CF48683358309C04B
:101660002681219530400217130734F400E00683E9
:10167000858304D001831283E4E04CC1038114818B
:1016800046E010C146E008D1422F0CD123813481BD
:1016900008951801F901BA012416350668F01AD028
:1016A0000EEF1FEFE9D0200D311D4AE0E61BF70BCE
:1016B0008F01F6DE14500895E40FF51F0EEF1FEFB3
:1016C000A101DAD0E00DF11D9F014AE06219730912
:1016D0008B01E6CE200F311F08950BD155246624CF
:1016E000AED021EA32E0F6DFA1EDB2E0F9010781E8
:1016F000A6D0A0D0408808E04022F90176808580FD
:10170000872D88198395982D03C050825182939517
:10171000791688F0092F8ADD292F30E0281930400A
:10172000220F331FFD01E20FF31F013015056CF38B
:1017300000831183ECCF2D913C91119791E009C06A
:10174000092F75D00081118106DF10F4692E9801F0
:1017500093959817A8F3062D10E0000F111FAD0107
:10176000400F511F662091F4442069F0082F5FD08C
:10177000329700811181FD016281738160177107C9
:1017800048F4539407C000E010E004C0FA01329717
:1017900000811181682F6A95661641F4442019F082
:1017A0004D915C9106C040E050E003C0FA014281D7
:1017B0005381552011F0B82F01C0B62DBB0FBB0FC0
:1017C00068DFA02FB10F833050F0442040E0282F75
:1017D00030E011F4215030401B2F62DED8011B2F66
:1017E0001C7F11F0AFEFB3E0442029F0B695A79528
:1017F000B695A79519C0A63600E0B00718F4A0E08A
:10180000B0E002C0A656B0408D0120E030E048E3D1
:101810005FE960E070E052D0890116950795D80124
:10182000113010F0AFEFB0E08D01E9E06EC010E0D4
:10183000000F111FFD01E00FF11F0895082F10E0A8
:1018400043E02AC000008895FECF0FE90DBF01E0FC
:101850000EBFC0E4D1E067D0002309F074D03DD6BC
:10186000F1DFF0CF4A9512F0000FE1F708954A95A5
:1018700012F00695E1F708950024112400300107C5
:1018800041F01695079510F4040E151E440F551FD0
:10189000F5CF002D112D08954A951AF0000F111F54
:1018A000FBCF08954A951AF016950795FBCF08953A
:1018B0004A951AF015950795FBCF08950024112439
:1018C0001001E02FE12BE22BE32B71F036952795E9
:1018D0001795079520F4040E151E261E371E440F7B
:1018E000551F661F771FEDCF800191010895AA92C1
:1018F0009A928A927A926A925A924A92BA93AA9346
:101900009A938A930895AA84998488847F806E80AC
:101910005D804C80BB81AA8199818881F0E0EC0FC9
:10192000FD1FEF01089501E0089520E006D0E9F7DA
:101930000895259102D0E9F708952D9301501040A4
:10194000202F212B089582E390E0FC010591149152
:10195000FC013296A591B491FC0134962591349105
:10196000422F432B19F0F901E4DF01C0DEDF0696B8
:1019700010E08E33910748F3089500000000000046
:101980000000000000000000000000000000000057
:101990000000000000000000000000F80000007FD0
:1019A000000108113F20007F01010007000D001316
:1019B0000019001E007F0021482D007F002D0430FB
:1019C00001000000000000000001070D13190000D5
:1019D0000000000000000000000000000000000007
:1019E0000104000203000000000000000C000000E1
:1019F00000000000000000000000000000000000E7
:101A000000000000000000000000000000000000D6
:101A100000000000000000DD052002DD051002DDF1
:101A2000058002DD054002030803082122272FFF5D
:101A3000282C2E2FFF0140404040FFFFFFFFFFFFFB
:101A4000FFFFFFFFFFFFFFFFFFFFFFFFFFFFFFFFA6
:101A5000FFFFFFFFFFFFFFFFFFFFFFFFFFFFFFFF96
:101A6000FFFFFFFFFFFFFFFFFFFFFFFFFFFFFFFF86
:101A7000FFFFFFFFFFFFFFFFFFFFFFFFFFFFFFFF76
:101A8000FFFFFFFFFFFFFFFFFFFFFFFFFFFFFFFF66
:101A9000FFFFFFFFFFFFFFFFFFFFFFFFFFFFFFFF56
:101AA000FFFFFFFFFFFFFFFFFFFFFFFFFFFFFFFF46
:101AB000FFFFFFFFFFFFFFFFFFFFFFFFFFFFFFFF36
:101AC000FFFFFFFFFFFFFFFFFFFFFFFFFFFFFFFF26
:101AD000FFFFFFFFFFFFFFFFFFFFFFFFFFFFFFFF16
:101AE000FFFFFFFFFFFFFFFFFFFFFFFFFFFFFFFF06
:101AF000FFFFFFFFFFFFFFFFFFFFFFFFFFFFFFFFF6
:101B0000FFFFFFFFFFFFFFFFFFFFFFFFFFFFFFFFE5
:101B1000FFFFFFFFFFFFFFFFFFFFFFFFFFFFFFFFD5
:101B2000FFFFFFFFFFFFFFFFFFFFFFFFFFFFFFFFC5
:101B3000FFFFFFFFFFFFFFFFFFFFFFFFFFFFFFFFB5
:101B4000FFFFFFFFFFFFFFFFFFFFFFFFFFFFFFFFA5
:101B5000FFFFFFFFFFFFFFFFFFFFFFFFFFFFFFFF95
:101B6000FFFFFFFFFFFFFFFFFFFFFFFFFFFFFFFF85
:101B7000FFFFFFFFFFFFFFFFFFFFFFFFFFFFFFFF75
:101B8000FFFFFFFFFFFFFFFFFFFFFFFFFFFFFFFF65
:101B9000FFFFFFFFFFFFFFFFFFFFFFFFFFFFFFFF55
:101BA000FFFFFFFFFFFFFFFFFFFFFFFFFFFFFFFF45
:101BB000FFFFFFFFFFFFFFFFFFFFFFFFFFFFFFFF35
:101BC000FFFFFFFFFFFFFFFFFFFFFFFFFFFFFFFF25
:101BD000FFFFFFFFFFFFFFFFFFFFFFFFFFFFFFFF15
:101BE000FFFFFFFFFFFFFFFFFFFFFFFFFFFFFFFF05
:101BF000FFFFFFFFFFFFFFFFFFFFFFFFFFFF21FBD7
:0400000300000000F9
:00000001FF
