:020000020000FC
:1000000005CC88C3FFFFFFFFFFFFFFFFFFFF8CC38F
:10001000FFFFFFFFFFFFFFFFFFFFFFFFFFFFFFFFF0
:10002000FFFFFFFFFFFFFFFFFFFFFFFFFFFFFFFFE0
:100030006EC0AA0070020000D000A0013C19FF0AA7
:100040000093BA000FEF0093BB0004E039C0109199
:10005000BC00012F017008950091BC0000FDFCCF91
:100060000091C10108952BDC422F2091BC0020FD9E
:10007000FCCFB5D040A320E00CC0D801A20FB31F25
:100080005C91DF01A20FB31F5C9323952417A8F3A3
:100090002395241718F420E030E0F8CF00E002A305
:1000A00008EF01A30CD0E4E016CC0091BC0000FDE9
:1000B000FCCF00E00093C20108EF0093C10105EC02
:1000C0000093BC0008953091BC0030FDFCCF30910E
:1000D000C20130FFFCCF40E050E009C0FA01E05916
:1000E000FD4F3081F801E40FF51F3083439542172F
:1000F000A8F378D00D7F02A3ADCF0091C4010132E7
:1001000018F000E20093C4010091C4010895BA936D
:10011000AA93FA93EA933A932A931A930A933FB7CE
:100120000091B900005809F446C0005109F443C0D9
:10013000005189F1085049F0005169F0085019F157
:10014000005A91F1005169F145C049D000E004A383
:1001500002A1086002A343D004A110E0DF01A00FB8
:10016000B11F0C910093BB0004A1039504A305ECFF
:10017000A7DF3FBF0991199129913991E991F9912F
:10018000A991B99118952BD004A110A1011729F4B8
:1001900002A1016002A304E0EBCF0091B90001A32A
:1001A000FACF20D0046002A31DD0026002A300E0B9
:1001B00004A303A3DCCF13D02091BB00A3A1B0E024
:1001C000A059BD4F2C9303A1039503A302A1016085
:1001D00002A3CDCF0091B9000093C101DCCFE0EACA
:1001E000F1E00895E0EAF1E002A108958A93802FFA
:1001F0005CDF082F8991089500E008952197188306
:100200005ED0C2D0219608958A9321970023389A10
:1002100081F0409A80E002E0809FE5ECF1E0E00DA3
:10022000F11D018158D00081AFD08395813160F4F8
:10023000F2CF409880E000E0F0E0E82FEB53FE4F73
:1002400003A383958730C0F321968991089537DB06
:100250002497812F073058F510E0A5ECB1E0A00FEE
:10026000B11FFD0103A1081711F183A3882301E049
:1002700091F00B8324D02D5F25D0888320D01AD015
:100280001DD02F5F1FD00091E7010A8318D02E5F89
:100290003F4F00E20BC00A8312D02E5F13D000EC58
:1002A0000DD02F5F3F4F06D016D00FE76DD02496AC
:1002B000E4E011CBFD0102A567D09ECF098311E0D8
:1002C0009E0108953F4F0FE75FC021970093E7011C
:1002D00002D000E296CF0883F2CF8A932197802F35
:1002E00000E00BD0882311F006E001C00CE0F3DF42
:1002F0000DE24AD001E001D0A7CF088311E09E01B2
:1003000000E342C025D006D0399A419800C023D0DE
:1003100000C0089500C03A9A429AFACF399A41989B
:10032000F9DF16D0F5CF17D0102F08E017FB399A58
:1003300016F4419A01C04198EDDF110F0CD00A95D7
:10034000A9F700C005D0E7DF06B105D00270089517
:10035000399A419A08953A9A42980895AFDA402E10
:10036000812F922FDA01CEDF440C042DDCDF4424F0
:1003700003C00D91D8DF43944816D8F3992309F4AC
:10038000CDDF00C0E5E0A6CA6097103108F01FE09D
:10039000088300E050E009C0F901E00FF51F60811B
:1003A000FE01E00FF51F618303950117A8F3AE016D
:1003B00020E0139504E7D2DF00E06096089581DA2B
:1003C00080E090E019D0978B10E0028940DF8395A0
:1003D0008530C0F3E2E081CA74DA80E090E00CD0AE
:1003E0000789002329F00A95078B102F02892FDF38
:1003F00083958530A0F3EECFE4EFF1E0E80FF91F2D
:100400000895213108F020E160E044EF51E070E010
:1004100009C0F801E60FF71F3081FB01EC50FE4FD9
:10042000308363956217A8F30FEF00930302FA017C
:10043000408B518B758F748FC2CF41DACDDF04EFC3
:1004400011E0209110022F3FF1F0209111022223A0
:1004500069F0F801022F0A95058F32C0248D23958B
:10046000248FA089B32F2E93008B118BF801A089C4
:10047000B1892C91248F9D012F5F3F4F208B318BB1
:10048000248D2F3F11F400E01CC0207F203F31F36A
:10049000048D02950F700695058F20E030911002B3
:1004A000422F01E010E0D9D9302339F00FE030E0DD
:1004B000E4EFF1E0E20FF31F078B2395253070F393
:1004C00001E0E4E008CAF89410E81093610000939A
:1004D000610078940895F3D912D160E057E043E0C9
:1004E0003FE020E013E000E057D7BCD3DBD0EBD0F7
:1004F00000E0E9ECF2E0008301837894A2E1B2E04D
:1005000001E00093410207C03BD100914502002366
:1005100011F457985F9800914C02002309F466C0CB
:1005200000E000934C0200914902002319F0FD0104
:100530000A9507AB00913F02002319F0FD010A95CF
:1005400005A7FD0104A115A1A1D310FBD6F300FB63
:100550001EF4C4D1F6D112C0FD0102A113A1012BDA
:1005600069F0BCD114D201E000934802009142022C
:1005700010914302101711F00093430200914602BC
:10058000002339F4009145020023A9F0579A5F989F
:1005900012C000914A02002371F400910A021091E6
:1005A0004902112321F410913D02112311F01FEC97
:1005B00001C010E04CDE00914A020023B9F0009126
:1005C0003F02002399F402E000933F0236DF00234C
:1005D00069F480E090E0FD01E80FF91F16A1FC012D
:1005E0002AD183958530B8F390934A0200E04A9966
:1005F00001E0FD0100FB04A900F904AB07A50023FD
:1006000011F411E001C010E004A90D7F110F012BBE
:1006100004AB15A9101799F0002321F400E003A7FB
:100620005CDE09C080E000E0FD01E80FF01F06A3DA
:1006300083958530C8F300914602009347020091EC
:100640004602002309F460CF009148020023E1F044
:1006500000914302023011F0033061F4109149021D
:10066000112329F0FD0113A9146013AB03C01EE18F
:1006700010934902053011F0063019F42CD10460B2
:1006800003AB00E00093480226D102FF04C0579A52
:100690005F9800E003AB04A900FF02C064D03BCF29
:1006A0006FD039CFE2ECF2E002E0018304E1048391
:1006B00005E0058300E0038304E1028301E0008399
:1006C00003E00683089500E0009370000091120299
:1006D0000295007F0093B3000091700002600093C8
:1006E00070000091B10005600093B10003E0009339
:1006F000B0000091B100077F0093B100089502E0BF
:10070000E2DE05B7006105BF529807E899DCCDDC51
:1007100001E07ACD1A930A931FB703B70E7F03BF88
:100720001FBF099119911895FA93EA934A933A9346
:100730002A931A930A934FB701E000934C02009159
:10074000120210911302E4D024A135A1200F311F11
:1007500024A335A34FBF099119912991399149914A
:10076000E991F991189500E00093690003B70160E1
:1007700003BF07E003BF889503B70E7F03BF08954B
:1007800066DC002391F40091C20100FF0CC001FF60
:1007900006C020E204E112E096DC08D050D057DC1D
:1007A000002319F482CC58DC21DD08958A93A5DC5E
:1007B0002091140220934002213F10F00023C9F140
:1007C00080911502122F1059155040F0A9F01A957A
:1007D000C1F01950D9F0145021F126C0182FF0E0C3
:1007E0002F70E22F28D00091400210E00F7090D0BF
:1007F000E00FF11F86A31DC0082F67DD80933E0226
:1008000018C0082F6ADD80933D0213C080934A020E
:100810000A95202F05E112E0F4DD01E000933F028C
:1008200008C08093410205C0203818F4182F022F09
:10083000E5DC89910895EA5FFD4F008108CD3FD83E
:100840005CDC023008F045C0A2E1B2E00091400259
:10085000102F1F5979F01A9591F01A9591F01250B6
:10086000A1F01A95A9F01A95B1F01450E1F01754BF
:1008700021F026C000914A0226C002E424C00DE403
:1008800022C0EFE3F0E004911EC0009141021BC0C2
:100890000091C00218C000914B02009314021BD0BB
:1008A0000E7F03AB12C0009142020093140200E0DD
:1008B0000093420210D00D7F03AB00E006AB05C0F1
:1008C000003818F499DC0093140221E012968D018F
:1008D000CADBE4E000C8FD0103A90895F0D718D0F1
:1008E00007A5013019F403A9016003AB0091C1020F
:1008F00001AF202F02A10F71A02FB0E0A057BD4F74
:100900002C9302A113A10F5F1F4F02A313A3E1CFEA
:10091000E2E1F2E00895033098F4FADF1FEF10AF40
:1009200011E015A7F89621E0013019F4E1E6F2E0B4
:1009300004C0023019F4E6E6F2E025E08F0161DD43
:100940000895E6DF22A133A1203200E0300710F045
:1009500002ABE1CF01AD14E0019F412D01E063D76F
:100960002230304008F4ABC012A9102379F412A948
:10097000102B12AB173021F407E802AB01E0CBCF0C
:100980001E3021F40EE802AB02E0C5DF089597D7D0
:100990006097A2E1B2E0FD0122A133A1A90180E0AC
:1009A00090E041505040042F0F7110E0F801E057E3
:1009B000FD4F0081FE01E80FF91F0083042F052B76
:1009C00021F001968031910764F3088114E0019FC2
:1009D0001394109242022131304008F05DC0682F1C
:1009E0006A9520E030E080E090E070E004C00117FC
:1009F00008F423950196FE01E80FF91F0081861780
:100A000097072CF41181101790F73395F3CF488195
:100A100050E0401B50408A01005E1F4F01341040DF
:100A2000D8F141325040DCF02430B0F5FD0102A98C
:100A300007FF02C005E01AC038D0003538F408813D
:100A4000013A40F005E036D001E01BC0013C10F057
:100A500008E020C008810034F8F409E01BC03430FD
:100A6000D8F4FD0102A907FF03C006E000AB14C0E3
:100A70001CD01881103538F4013A28F006E01AD05D
:100A800002E049DF09C0013C10F00AE003C0103465
:100A900018F407E0009342021EDF026003AB00E09F
:100AA00002A303A302AB609614CFFE01E60FF71F6B
:100AB0000081089500934202FD0102A9006802AB83
:100AC00008956F939F9368B1902F9095692368B9AB
:100AD0006BB1912F909569236BB9902F67B1692BFA
:100AE00067B96AB1912F692B6AB9922F909565B158
:100AF000692365B964B1922F692B64B95C98549AE3
:100B00009F916F9108956F939F936AB16093FE02D6
:100B10006093FC0267B16093FF026093FD02602F57
:100B200060959091FC0296239093FC02612F609552
:100B30009091FD0296239093FD0200270000000093
:100B400000006091FD0267B99F916F9108952AB9E5
:100B500003B900000000000057B9000000000000C9
:100B600037B94AB903B908955C9A08955C986091C1
:100B7000FF0267B900000000000008959FD6C80179
:100B8000202F26952695F894009164000E7F0093FF
:100B9000640030E0220FEFE5F2E0E20FF31F008186
:100BA00000937C0000916400016000936400118157
:100BB000F901E35AFD4F0181A6DFA02FF0E0E82FF5
:100BC000E459FD4F4080B0E01AC05091FF024091BF
:100BD000FE023091FD022091FC021A2F092FB7DF8F
:100BE0003DD0EBE6F2E0008103950083023030F067
:100BF000033020F0043010F001E00083B395B41509
:100C0000F89418F3B1DF00E010E000938500009342
:100C10008400B59A90E0880F991FE0EBF2E0E80FAE
:100C2000F91F00B705FF13C019D0B5990BC000918B
:100C300084001091850020E21032B8F300E00083B8
:100C4000218308C0009186001091870001C001E057
:100C5000008311838BDF02D0E5E03CC600910003E6
:100C60000FBF089508D000E0E0EBF2E0058F068F9B
:100C7000DCD2899108958A9380E003C0082FB5D013
:100C800083950091F1028017C8F3089517D6442484
:100C900090E0A0EBB2E0FD01438E448E458D568D71
:100CA0009801241B350B058F168F078D10A1020F9D
:100CB000131F078F10A305C0085C1040078F10A3F7
:100CC0009395078D10A1083C1405B0F70091F2022E
:100CD000002341F0091718F44092F20203C0091BE7
:100CE0000093F2020CD3FD01018D128D003014052A
:100CF00011F0F801099580E004C08C0145D1402A2B
:100D000083952DD08017C8F3442021F0FD01048D78
:100D10000160048F00E00093C00280E018C0082F3B
:100D200021D0F801EF52FD4F0081087179F0282F92
:100D3000269526952695482F477001E074D530E01A
:100D4000FD01E20FF31F1089102B108B839507D044
:100D5000801728F3FD01038D148DE5E0BBC50091DC
:100D6000F102089510E043E078C5A9D5302F60E086
:100D700070E0F8DFA1EDB2E0A00FB11FFD015581D9
:100D8000038110E04091C20274D5802F043008F432
:100D900084E0E5DF301730F50481007CD9F4052FBD
:100DA00026D2B801082F0695069510E090E0081BA2
:100DB00010400617170724F4FD0104810B7F0483FC
:100DC00081959040861797076CF0FD0104810460BF
:100DD000048308C004810B7F0483282F152F032F61
:100DE0001ED3B8018B01E4E076C58A93802F08D02A
:100DF000082F62D001E000830FE0018389910895FC
:100E00005ED55AD01581368102E00083ABECB2E0AA
:100E10000C9102600C9300E00283012F07C020E8D0
:100E2000F0E0E02FEF52FD4F22A303953017B8F703
:100E300031C045D5D1D116969C918E91159706C09B
:100E400011961C911197082F04D083959817C0F71D
:100E500021C035D5D9D1E0EBF2E0E20FF31FA0EBD2
:100E6000B2E0A20FB31F1A3018F00D911C9111C0FF
:100E70007ED02D913C9111972017310718F4015025
:100E8000104007C02D913C910217130718F40F5F13
:100E90001F4F70D0E4E01FC5202F72D00360008385
:100EA000022F0AD000E1008300E001830481007C6E
:100EB00011F0022F34D3089565D1E1EDF2E0E00F97
:100EC000F11F0895FDD4812FF7DFA681958104C01D
:100ED000182F092F05D09395A917D0F7E3E0FCC48C
:100EE000EED4212F402F50E0440F551FFA01E0555A
:100EF000FD4F60817181E0EBF2E0E40FF51F10E03F
:100F00006CD135D00617170780F492960C91020F1A
:100F10000C93102F92970091C7020058101718F1E8
:100F200023D00F5F1F4F26D01EC06017710780F4BB
:100F300092960C91021B0C9300E81091C602011BC3
:100F40001C919297011778F00FD001501040EBCF11
:100F5000FD0102A1013810F00A9502A302A1003898
:100F600010F4039502A396CF00E892960C930085A7
:100F7000118508950087118703D0086000830895C4
:100F8000EBECF2E00081089593D4902E412EAA2438
:100F90005524EBDEC801092D1FD1FD0103814481D9
:100FA0004370439545D4023008F402E0638077240F
:100FB00010E0601A710A0C910A9571F00A95C9F057
:100FC000025089F1045009F4AAC0085009F47BC00A
:100FD000005109F4B6C0D3C0F1D00183092D29DF37
:100FE000FD0101810A95018311F4092D09DFD0D09B
:100FF000C6C0048102FF05C0092D0BD1502EDBD0E5
:10100000BDC0CBD020F004E00C93A282B6C0442037
:1010100009F4B5C00091F202002309F0B0C0142D0C
:10102000092D50DFACC0B9D008F44AC0AED003954A
:101030000283448008E3402246944694469499F102
:10104000882406C00081003139F1083029F18394E9
:101050000091F102801628F58914C9F3082D92D069
:1010600021ED622E22E0722E600E711EF3010481CA
:101070000873069506950695041549F7082D75DE43
:10108000FD012381AC01421B5040F3012381021B6F
:10109000104040175107B4F6FD015282AA24A394D0
:1010A000D6CFAA2039F40091C302002319F089D0C9
:1010B000086001837AD008F462C0092DEDDE5FC0BC
:1010C000092D9EDE5CC0048102FF07C010E8092DD7
:1010D000A0D0502E70D001838ACF65D00615170599
:1010E00020F408E00C9375D0F6CF70D05ED010F4E9
:1010F000039502830481007C11F0092DDDD100915C
:10110000C502002309F473CFFD011181101718F4F3
:10111000012F040DE0CF092D68DE50D0DCCF35D093
:10112000002371F240D06016710620F400E10C93A8
:101130004DD002C04ED00183FD0102810A95028389
:101140001EC0258101ED12E0020F1A1DF80122A137
:10115000239522A3FD012481F80102A122FD05C0EF
:1011600007FFAECF00E10C930AC01091C80201172F
:1011700020F0092D3ADE539442CF2BD00183052D68
:10118000EBE0A2C310E043E068C302D002810895FF
:101190000091C4020093F202089505D0FD0123815D
:1011A0000217104008958C011DC0FD0102811091AD
:1011B000C3020117089506D00061089502D00260AD
:1011C00008955394EBECF2E001810895D9DE0160BB
:1011D000D5CEF7DF04600895D5DFA1EDB2E0A00F12
:1011E000B11F0895112312F400E010E008950CD00F
:1011F000F901E055FD4FBBDEF901E055FD4F2081BF
:101200003181021B130B0895202F30E0220F331F72
:10121000089555D3212F50DEA581B0E0AD50BD4FCC
:101220002C9300E2008301E035CE01E000936B02D5
:1012300000E00093F7020093F8020093F902009394
:10124000FA020093FB0204E519E00BD04091FB0287
:101250003091FA022091F9021091F7020091F80200
:1012600030CC2CD3C801A0E007C00B2FFC0109959E
:10127000B3954B16D0F7A3950091F102A01790F407
:101280000A2F10E043E0E9D2E1EDF2E0E00FF11FB8
:1012900005811481107C19F4FC010995ECCF46807E
:1012A000B02FE7CFE5E016C3602F63700695069573
:1012B000202F30E0220FF901E35AFD4F19D01081A1
:1012C000102B1083F901E15AFD4F12D01181102B20
:1012D0001183660F660FEDE4F2E0E60FF31F228143
:1012E000E381F0E0E950FD4F0081022B0083089577
:1012F000408101E010E0B1D2E7EFF2E00895DAD2E8
:101300000FB700930003A0917B00B0B7409080001E
:101310005090810066B28091840090918500709019
:10132000640080907C0000E400937B0004E000BF38
:1013300000E00093800001E800938100F89407EB3F
:1013400019E08FDFA0937B00B0BF409280005092E5
:10135000810066BA90938500809384007092640047
:1013600080927C00009100030FBFE9E0AFC2202F04
:10137000237030E0220F220FEDE4F2E0E20FF31FC2
:10138000408151814030530719F01281FA010995CB
:10139000009100030FBF089570E008D00068048337
:1013A000E1EFF2E0008103950083089505D00091FC
:1013B000F102C5D0048108950801232E342F009135
:1013C000F1021ED2E1EDF2E017D2238200E00483A5
:1013D0000091190307831481177C2770220F220FB5
:1013E000220F122B14830582168214811C7F337006
:1013F000132B148305D2E1E0F3E0FED15295507F28
:10140000550F6770562B508B772319F0052F086006
:10141000008BE1E0F3E0008D0395008F08954CD23E
:10142000312F822F44245524EBD1A1EDB2E0A00F3F
:10143000B11FFD016680932F0FC0092FD8DE282F22
:1014400030E02195304068D024F0FD0124812460F3
:101450002483400E511E9395691678F78201E7E0C8
:1014600037C22FD280E090E04395522F532B51F496
:101470008FEF9FEF442311F08FEF9FEFA3C04A95AA
:10148000000F111F17FB16F04423C9F737FB26F096
:101490004395220F331FFACF442381F397FB66F362
:1014A000880F991F4A950217130718F0021B130B98
:1014B000019636952795F0CF00D23CD028019FD1D8
:1014C000A1E0B3E0A00FB11F21D069D09D01205F42
:1014D0003F4F48D01BD079D0FD010189128947E0E8
:1014E000208922952F702695421BBDD190E0E0EB1C
:1014F000F2E0E80FF91F21890ED031F0018BEBECFF
:10150000F2E0008104600083E6E0E3C19D01205F1A
:101510003F4F8201089530E02017310708958A93E4
:1015200009D0B80121E133E06AD1B5D08B010CD0EC
:1015300089910895202F03D08781022FAFC060D1F9
:10154000F801EF52FD4F0895F90140814770018382
:1015500012834683458340E0478346E07ED1038380
:1015600014830895B80111231AF4719561957040A0
:1015700050E0452F00E410E076D10617170758F425
:10158000F9010781501710F40A9503C0063030F4B2
:101590000395078308955395563058F3089591D1D4
:1015A000C801F9014CD0801B910B008103FF0AC0D8
:1015B000813800E0900714F09A9504C080389407B1
:1015C0000CF493958C01E2E088C179D1D9018C911A
:1015D0008770E5DFFD012781013030E013075CF003
:1015E00032D059D0238334830C9103FF0FC0148170
:1015F0001F7314830BC011950195104024D0201B3C
:10160000310B238334830C9103FDF1CF9D010181C4
:101610001281C5DFFD0125817EDF1CF486833583C1
:1016200009C02681219530400217130734F400E0E9
:101630000683858304D001831283E4E04CC10381D7
:10164000148146E010C146E008D1422F0CD123811D
:10165000348108951801F901BA012416350668F09D
:101660001AD00EEF1FEFE9D0200D311D4AE0E61B26
:10167000F70B8F01F6DE14500895E40FF51F0EEFFF
:101680001FEFA101DAD0E00DF11D9F014AE06219C0
:1016900073098B01E6CE200F311F08950BD155241D
:1016A0006624AED021ED32E0F6DFA1E0B3E0F9012F
:1016B0000781A6D0A0D0408808E04022F9017680BA
:1016C0008580872D88198395982D03C0508251827B
:1016D0009395791688F0092F8ADD292F30E0281993
:1016E0003040220F331FFD01E20FF31F01301505BB
:1016F0006CF300831183ECCF2D913C91119791E015
:1017000009C0092F75D00081118106DF10F4692E00
:10171000980193959817A8F3062D10E0000F111F5C
:10172000AD01400F511F662091F4442069F0082F4D
:101730005FD0329700811181FD0162817381601752
:10174000710748F4539407C000E010E004C0FA01A8
:10175000329700811181682F6A95661641F4442002
:1017600019F04D915C9106C040E050E003C0FA01D1
:1017700042815381552011F0B82F01C0B62DBB0F07
:10178000BB0F68DFA02FB10F833050F0442040E042
:10179000282F30E011F4215030401B2F62DED80199
:1017A0001B2F1C7F11F0AFEFB3E0442029F0B6955A
:1017B000A795B695A79519C0A63600E0B00718F40E
:1017C000A0E0B0E002C0A656B0408D0120E030E0BD
:1017D00048E35FE960E070E052D089011695079513
:1017E000D801113010F0AFEFB0E08D01E9E06EC02C
:1017F00010E0000F111FFD01E00FF11F0895082FE9
:1018000010E043E02AC000008895FECF0FE90DBF2D
:1018100001E00EBFC0E4D1E067D0002309F074D02E
:101820005AD6F1DFF0CF4A9512F0000FE1F7089594
:101830004A9512F00695E1F708950024112400302E
:10184000010741F01695079510F4040E151E440F7C
:10185000551FF5CF002D112D08954A951AF0000F50
:10186000111FFBCF08954A951AF016950795FBCFE7
:1018700008954A951AF015950795FBCF0895002411
:1018800011241001E02FE12BE22BE32B71F03695B0
:1018900027951795079520F4040E151E261E371E52
:1018A000440F551F661F771FEDCF800191010895EA
:1018B000AA929A928A927A926A925A924A92BA9387
:1018C000AA939A938A930895AA84998488847F809E
:1018D0006E805D804C80BB81AA8199818881F0E017
:1018E000EC0FFD1FEF01089501E0089520E006D000
:1018F000E9F70895259102D0E9F708952D93015055
:101900001040202F212B089582E390E0FC010591E7
:101910001491FC013296A591B491FC013496259165
:101920003491422F432B19F0F901E4DF01C0DEDFCF
:10193000069610E08E33910748F3089500000000EA
:101940000000000000000000000000000000000097
:1019500000000000000000000000000000F800008F
:10196000007F000108113F20007F01010007000DEA
:1019700000130019001E007F0021482D007F002D5C
:10198000043001000000000000000001070D1319E1
:101990000000000000000000000000000000000047
:1019A00000000104000203000000000000000C0021
:1019B0000000000000000000000000000000000027
:1019C0000000000000000000000000000000000017
:1019D0000000000000000000000000000000000007
:1019E000000000000000000000BE052002BE05103F
:1019F00002BE058002BE054002030803082122271B
:101A00002FFF282C2E2FFF0140404040FFFFFFFFFB
:101A1000FFFFFFFFFFFFFFFFFFFFFFFFFFFFFFFFD6
:101A2000FFFFFFFFFFFFFFFFFFFFFFFFFFFFFFFFC6
:101A3000FFFFFFFFFFFFFFFFFFFFFFFFFFFFFFFFB6
:101A4000FFFFFFFFFFFFFFFFFFFFFFFFFFFFFFFFA6
:101A5000FFFFFFFFFFFFFFFFFFFFFFFFFFFFFFFF96
:101A6000FFFFFFFFFFFFFFFFFFFFFFFFFFFFFFFF86
:101A7000FFFFFFFFFFFFFFFFFFFFFFFFFFFFFFFF76
:101A8000FFFFFFFFFFFFFFFFFFFFFFFFFFFFFFFF66
:101A9000FFFFFFFFFFFFFFFFFFFFFFFFFFFFFFFF56
:101AA000FFFFFFFFFFFFFFFFFFFFFFFFFFFFFFFF46
:101AB000FFFFFFFFFFFFFFFFFFFFFFFFFFFFFFFF36
:101AC000FFFFFFFFFFFFFFFFFFFFFFFFFFFFFFFF26
:101AD000FFFFFFFFFFFFFFFFFFFFFFFFFFFFFFFF16
:101AE000FFFFFFFFFFFFFFFFFFFFFFFFFFFFFFFF06
:101AF000FFFFFFFFFFFFFFFFFFFFFFFFFFFFFFFFF6
:101B0000FFFFFFFFFFFFFFFFFFFFFFFFFFFFFFFFE5
:101B1000FFFFFFFFFFFFFFFFFFFFFFFFFFFFFFFFD5
:101B2000FFFFFFFFFFFFFFFFFFFFFFFFFFFFFFFFC5
:101B3000FFFFFFFFFFFFFFFFFFFFFFFFFFFFFFFFB5
:101B4000FFFFFFFFFFFFFFFFFFFFFFFFFFFFFFFFA5
:101B5000FFFFFFFFFFFFFFFFFFFFFFFFFFFFFFFF95
:101B6000FFFFFFFFFFFFFFFFFFFFFFFFFFFFFFFF85
:101B7000FFFFFFFFFFFFFFFFFFFFFFFFFFFFFFFF75
:101B8000FFFFFFFFFFFFFFFFFFFFFFFFFFFFFFFF65
:101B9000FFFFFFFFFFFFFFFFFFFFFFFFFFFFFFFF55
:101BA000FFFFFFFFFFFFFFFFFFFFFFFFFFFFFFFF45
:101BB000FFFFFFFFFFFFFFFFFFFFFFFFFFFFFFFF35
:101BC000FFFFFFFFFFFFFFFFFFFFFFFFFFFFFFFF25
:101BD000FFFFFFFFFFFFFFFFFFFFFFFFFFFFFFFF15
:101BE000FFFFFFFFFFFFFFFFFFFFFFFFFFFFFFFF05
:101BF000FFFFFFFFFFFFFFFFFFFFFFFFFFFF31289A
:0400000300000000F9
:00000001FF
