:020000020000FC
:1000000059CA0CC8FFFFFFFFFFFFFFFFFFFF12C829
:10001000FFFFFFFFFFFFFFFFFFFFFFFFFFFFFFFFF0
:10002000FFFFFFFFFFFFFFFFFFFFFFFFFFFFFFFFE0
:10003000C3C4FFFFFFFFFFFFFFFFFFFFFFFFFF1B2B
:100040009001BB0880080180080180080180080138
:10005000800801930801980809C00804A10803C09A
:100060000801A70801AD0803B50801AA0850A408B3
:1000700001B10801AF08FB0090014209DB0801DB78
:100080000801DB0801DB0801DB0801E30801E608E1
:1000900009D80801EB0801ED0802F10801F4080194
:1000A000F708010F09013909013F0901FE0801099B
:1000B00009010C09013C0944E8080C3609FB6E00F3
:1000C0006E020000CE00A00142167BDAC801202F8C
:1000D00026952695F894009164000E7F00936400A5
:1000E00030E0220FECE6F2E0E20FF31F0081009314
:1000F0007C00009164000160009364001181F901AB
:10010000E659FD4F018198D9A02FF0E0E82FEF5577
:10011000FE4F4080B0E01AC05091B4024091B3024B
:100120003091B2022091B1021A2F092FA9D93DD0E6
:10013000E0EAF1E0008103950083023030F0033003
:1001400020F0043010F001E00083B395B415F8946A
:1001500018F3A3D900E010E0009385000093840019
:10016000B59A90E0880F991FEEE6F2E0E80FF91FCC
:1001700000B705FF13C019D0B5990BC000918400DA
:100180001091850020E21032B8F300E00083218353
:1001900008C0009186001091870001C001E0008333
:1001A00011837DD902D0E5E018CA0091B5020FBFD6
:1001B00008950AD000E0EEE6F2E0048F058FE0D269
:1001C0008991089501D0FCCF8A9380E003C0082F65
:1001D000E3D0839588D0D8F3089500E00093A60279
:1001E00004E00093800204E10093830205E00093A1
:1001F000840200E00093820204E10093810201E0A6
:1002000000937F0203E000938502D6D200E0EEE681
:10021000F2E0008F018F0895D4D9442490E0AEE637
:10022000B2E0FD01428E438E448D558D9801241B12
:10023000350B048F158F068D178D020F131F068F38
:10024000178F05C0085C1040068F178F9395068D99
:10025000178D083C1405B0F70091A702002341F068
:10026000091718F44092A70203C0091B0093A702C4
:10027000EFD2FD01008D118D0030140511F0F80151
:10028000099580E004C08C012CD1402A83952BD0A5
:10029000D0F3442021F0FD01038D0160038F00E0C5
:1002A00000937E0280E018C0482F3CD0F801E2574E
:1002B000FD4F0081087179F0282F26952695269507
:1002C000482F477001E003D930E0FD01E20FF31F32
:1002D0001089102B108B839506D030F3FD01028D11
:1002E000138DE5E07AC90091A60280170895702F5A
:1002F000612F4091A60216D0EEE8F2E0E00DF11D6C
:1003000023836770660F660F660F648375830481AD
:100310000C7F3370032B0483E6EAF2E0008103953F
:100320000083089550E006E010E0DBC84BD9602F51
:1003300020E030E0402FF6DFAEE8B2E0A00DB11DC6
:10034000FD015581038110E040917F02E0D8802FAC
:10035000043008F484E00091A6026017D0F4052F61
:10036000F1D19801082F0695069510E090E0081B42
:1003700010400217130724F4FD0104810B7F04834E
:10038000819590408217930724F0FD010481046059
:1003900004838901E4E022C98A93802F08D0482F82
:1003A00045D001E000830FE00183899108950AD9C7
:1003B0003CD0058112E01083A8E8B2E01C911260E5
:1003C0001C9310E0128320E8F801E257FD4F228FC2
:1003D00079C0F8D8C4D1EEE6F2E0E20FF31FAEE642
:1003E000B2E0A20FB31F1A3018F00D911C9111C08A
:1003F0006ED02D913C9111972017310718F40150C0
:10040000104007C02D913C910217130718F40F5F9D
:100410001F4F60D057C081D120812360208305D039
:1004200000E1008300E001830895402F82D1EEE8CF
:10043000F2E0E00DF11D0895C5D8212F402F50E0C6
:10044000440F551FFA01E259FD4F60817181EEE6BC
:10045000F2E0E40FF51F10E0AEE8B2E0A00FB11F2C
:1004600036D00617170780F45A960C91020F0C939A
:10047000102F5A97009184020058101718F124D0B9
:100480000F5F1F4F27D01EC06017710780F45A9668
:100490000C91021B0C9300E810918302011B1C912C
:1004A0005A97011778F010D001501040EBCFFD01A2
:1004B000028D013810F00A95028F028D003810F479
:1004C0000395028FE4E08AC800E85A960C930085F1
:1004D000118508950087118720D10081086000836D
:1004E000089569D8902E412EAA2455241FDFC801F3
:1004F000492D1FD1AEE8B2E0A00DB11DFD01038171
:10050000448143704395E8D7023008F402E06380E9
:10051000772410E0601A710A0C910A9571F00A951F
:10052000E1F00250A9F1045009F4AAC0085009F4FE
:100530007FC0005109F4B6C0D3C0EBD00260018384
:10054000FD011181058145DFFD0101810A950183CE
:1005500011F4092D2CDFCAD0C3C0048102FF06C0EC
:10056000092D02D1502ED6D00061B9C0CAD020F0DA
:1005700004E00C93A282B2C0442009F4B1C00091FF
:10058000A702002309F0ACC0142D058155DFA8C0D7
:10059000B8D008F44AC0A7D003950283448008E38A
:1005A000402246944694469499F1882406C00081DE
:1005B000003139F1083029F183940091A6028016A8
:1005C00028F58914C9F3482DB4D02EE8622E22E014
:1005D000722E600C711CF301048108730695069558
:1005E0000695041549F7082DA1DEFD012381AC0114
:1005F000421B5040F3012381021B1040401751075A
:10060000B4F6FD015282AA24A394D6CFAA2039F4CD
:1006100000918002002319F07CD0086001836BD028
:1006200008F45EC0092DF7DE5BC0092DC0DE58C09E
:10063000048102FF08C010E8092D96D0502E6AD020
:100640000061018388CF63D00615170520F408E008
:100650000C936AD0F6CF64D04ED010F40395028389
:1006600000918202002309F476CF1181101718F44B
:10067000012F040DE6CF092D8FDE4BD00260E1CFB4
:1006800032D0002391F243D06016710620F400E1CD
:100690000C9346D002C048D00183FD0102810A9527
:1006A00002831EC025810EE812E0020F1A1DF80118
:1006B000228D2395228FFD012481F801028D22FDD8
:1006C00005C007FFB2CF00E10C930AC0109185026C
:1006D000011720F0092D60DE539445CF25D001830A
:1006E000052DEBE074C702D00281089500918102CC
:1006F0000093A7020895FD01028110918002011765
:10070000089505D0FD0123810217104008958C0142
:1007100014C0539402D001810895E8E8F2E00895EE
:10072000FCDF00810160DBCE5394F7DF01810460C0
:10073000089550E006E010E0D4C6112312F400E062
:1007400010E008950CD0F901E259FD4FC0DEF90127
:10075000E259FD4F20813181021B130B0895202F98
:1007600030E0220F331F08952DD7212F5EDEA581A3
:10077000B0E0A855BD4F2C9300E2008301E0A2CE6B
:1007800001E00093A00100E00093AC020093AD02F1
:100790000093AE020093AF020093B0020DEF13E09E
:1007A00016D04091B0023091AF022091AE0210916C
:1007B000AC020091AD021EC600E020E4F0E0E02FA4
:1007C000EF55FE4F208303950430B8F30895FAD611
:1007D000D80180E00CC0482F50E006E010E081D640
:1007E000F801E257FD4F0581FD01099583950091C0
:1007F000A602801780F3E4E0F1C6602F63700695CF
:100800000695202F30E0220FF901E659FD4F19D04F
:100810001081102B1083F901E459FD4F12D0118182
:10082000102B1183660F660FEAE5F2E0E60FF31F67
:100830002281E381F0E0E455FD4F0081022B00832B
:100840000895408101E010E05CD6ECEAF2E0089502
:10085000B4D60FB70093B502A0917B00B0B740901B
:1008600080005090810066B2809184009091850054
:100870007090640080907C0000E400937B0004E0B2
:1008800000BF00E00093800001E800938100F8942D
:1008900000E614E09CDFA0937B00B0BF4092800094
:1008A0005092810066BA9093850080938400709284
:1008B000640080927C000091B5020FBFE9E089C618
:1008C000202F237030E0220F220FEAE5F2E0E20F42
:1008D000F31F408151814030530719F01281FA0112
:1008E00009950091B5020FBF08950093BA000FEF6C
:1008F0000093BB0004E039C01091BC00012F0170CF
:1009000008950091BC0000FDFCCF0091C601089540
:1009100059D6422F2091BC0020FDFCCFB5D040A37A
:1009200020E00CC0D801A20FB31F5C91DF01A20F21
:10093000B31F5C9323952417A8F32395241718F469
:1009400020E030E0F8CF00E002A308EF01A30CD0D4
:10095000E4E044C60091BC0000FDFCCF00E0009341
:10096000C70108EF0093C60105EC0093BC00089591
:100970003091BC0030FDFCCF3091C70130FFFCCF7F
:1009800040E050E009C0FA01EA54FD4F3081F8011F
:10099000E40FF51F308343954217A8F378D00D7FFD
:1009A00002A3ADCF0091C901013218F000E200931B
:1009B000C9010091C9010895BA93AA93FA93EA93E1
:1009C0003A932A931A930A933FB70091B9000058BB
:1009D00009F446C0005109F443C0005189F10850A0
:1009E00049F0005169F0085019F1005A91F1005195
:1009F00069F145C049D000E004A302A1086002A348
:100A000043D004A110E0DF01A00FB11F0C910093AF
:100A1000BB0004A1039504A305ECA7DF3FBF099128
:100A2000199129913991E991F991A991B991189563
:100A30002BD004A110A1011729F402A1016002A387
:100A400004E0EBCF0091B90001A3FACF20D00460FD
:100A500002A31DD0026002A300E004A303A3DCCF25
:100A600013D02091BB00A3A1B0E0AA54BD4F2C939A
:100A700003A1039503A302A1016002A3CDCF0091BE
:100A8000B9000093C601DCCFE5EAF1E00895E5EA9C
:100A9000F1E002A108958A93802F5CDF082F8991ED
:100AA000089500E008952197188326D0E6D0219676
:100AB00008958A9321971091F9011017C9F00093B6
:100AC000F9010023389A99F0409A80E002E0809F73
:100AD000EAECF1E0E00DF11D01810DD00081CDD0F7
:100AE0008395813198F30091EC015ED001C040986C
:100AF000219689910895088311E09E01089562D599
:100B00002497812F0730E0F510E0AAECB1E0A00FA8
:100B1000B11FFD0103A1081799F183A3082F0F70DE
:100B2000B1F001E0C6DF01E00B83E6DF2D5F2FD0DF
:100B30008883E2DF28D00983DFDF2F5F28D0009190
:100B4000EC010A83D9DF2E5F3F4F00E218C000E0BE
:100B500021D013A11F7031F403950730C8F300E0D2
:100B6000A8DF0EC001E00A83C7DF2E5F10D000EEC1
:100B70000983C2DF2F5F3F4F06D0BDDF0FE77DD077
:100B80002496E4E02BC5FD0102A577D08ACF3F4F24
:100B90000FE773C0F0E0E02FE653FE4F0895219772
:100BA0000093EC0101D083CF088311E09E0100E2A5
:100BB00064C08A932197802F00E00BD0882311F026
:100BC00002E001C00CE097DF0DE257D001E001D058
:100BD0008FCF088311E09E0100E34FC02BD009D0D6
:100BE000419830D02AD02EC0399A419802D0419AEB
:100BF00029C028D025D0399A08951FD0102F08E099
:100C000017FB399A16F4419A01C041980ED03A9ACE
:100C1000429A0BD0110F11D00A9591F713D00AD038
:100C20000FD006B10AD00270089523E02A95F1F79B
:100C300000000895399A419A08953A9A4298089581
:100C40003A9A429A03E00A95F1F700000895B9D460
:100C5000402E812F922FDA01C1DF440C042DCDDF0D
:100C6000442403C00D91C9DF43944816D8F3992357
:100C700009F4BADFE7DFE5E0B0C46097103108F0AF
:100C80001FE0088300E050E009C0F901E00FF51F04
:100C90006081FE01E00FF51F618303950117A8F342
:100CA000AE0120E0139504E7D2DF00E060960895DE
:100CB000F89410E81093610000936100789408950F
:100CC00081D493D173D175D100E0E6E8F2E00083DE
:100CD00001837894AAE1B2E001E000934B0286ED33
:100CE00092E001C0C6D1FC012081318189010F5FF2
:100CF0001F4F008311832130304128F05AD100E08A
:100D0000FC010083018300914B02043039F400E0C0
:100D1000D0DE04E0CDDFF894C3D188D100914B023E
:100D2000033079F402D1FD0107A900FF02C0A1D16F
:100D300001C0BDD1009159020023A9F204D1E8D02D
:100D4000D2CFFD0100A111A1013B144010F000E041
:100D50001CD2009159020023E1F1F5D0F1D0FC0141
:100D600000FF04C003810395038303C0048103953E
:100D70000483CED000FB16F5FD0100A111A10F5F89
:100D80001F4F00A311A300917E0205AF16D30023CD
:100D900049F000915102002311F4579A5F98D0D086
:100DA000016015C0FD0107A900FFBFD003D381F08A
:100DB00005AD17A1012361F000E009C000E0FD01CD
:100DC00000A301A307A900FFB0D006AD0E7F06AFB8
:100DD00079D200E04A9901E0FD0100FB07A900F982
:100DE00007AB01A9002311F411E001C010E007A92D
:100DF0000D7F110F012B07AB1091D8021017A1F036
:100E0000002339F477D001AFC7D200E00093580235
:100E100007C0112329F400A50093DB0200E006AF10
:100E2000009151020093D80283D099F006AD00FFE3
:100E300010C000AD002369F45DD002AF01AF0EE138
:100E400000AF35D2002311F000E0B3DE01E00093E3
:100E500055026ED091F000EF02AB06AD00FB01F938
:100E600006AF01FF07C000E00093D90206AD005FA6
:100E700006AF03C000E00093DA0205A90130B9F41F
:100E800099D259F106AD00FF28C00091D902013373
:100E900020F106A902FD21C042D000FD23D02FD0B1
:100EA0000FE001AF00E000AF06AD0F7006AF05A97F
:100EB000002399F47FD289F006AD00FF0EC006A989
:100EC00002FD0BC006AD02950F70023030F027D046
:100ED00000FD08D000E006AF12D007A900FD02CF48
:100EE000E6D001CF07E813E101501040E9F700C058
:100EF0000000089506A90B7F06AB00E0089506A93F
:100F0000046006AB00EF02AF04A9039504AB08959B
:100F1000FD0102A113A180D910FBD6F3089505D0DD
:100F2000E1DF579A5F9807A9089557985F98089549
:100F300007D001FB00E000F916AD1170011708950C
:100F4000FD0106AD089500E000935902FC01008305
:100F500001830895009140020093A2010093A30130
:100F6000EFE7F2E003E0018304E1048305E0058399
:100F700000E0038304E1028301E0008303E00683D1
:100F8000089509D000E00CD001E00AD002E0AFD90A
:100F900002D003E0ACC933E020913F0210E0089595
:100FA000A6D933E020913E022695F8CFEADF01D999
:100FB000D1CF00E000937000009118020295007FED
:100FC0000093B300009170000260009370000091E4
:100FD000B10005600093B10003E00093B000009100
:100FE000B100077F0093B100089502E061DE05B70C
:100FF000006105BF3A98429803EC19E00150104097
:10100000E9F700C00000329903C000E500934902EF
:10101000529807E86ADC9EDC01E04BCD1A930A93F4
:101020001FB704D01FBF09911991189503B70E7F00
:1010300003BF0895FA93EA934A933A932A931A9333
:101040000A934FB701E000935902009118021091E2
:10105000190298D022A133A1200F311F22A333A35C
:101060004FBF09911991299139914991E991F991CC
:10107000189500914C02002331F000914C020A9522
:1010800000934C02089500E00093690003B70160EB
:1010900003BF07E003BF889503B70E7F03BF089522
:1010A00003B7016003BF05E003BF8895089524DC02
:1010B000002391F40091C70100FF0CC001FF06C09E
:1010C00020E20AE112E054DC08D062D015DC0023F3
:1010D00019F440CC16DCDFDC089575D263DC109186
:1010E0001A0210934A0280914A028F3F19F400239A
:1010F00009F446C0A0911B02082FE0E4F0E016C2FC
:10110000AF70A06E1A2FF0E08F70E82FE45FFD4FF4
:101110000081F5DC00914A0210E00F7033D0E00F3F
:10112000F11FA0A72DC00A2F3ADDA093480228C0C6
:10113000BED00A1729F12BD10A2F3BDDA09347021D
:101140001FC0A0934B021CC0A093410219C0A093E2
:101150003E0205C0A0933F0202C0A09340023DD8CA
:1011600025DF00E00FD011D00BC0A0934F0200E0AC
:1011700000934E0205C0803818F41A2F082F93DC14
:10118000E3E02DC2EAE1F2E0089500A301A31AC84A
:1011900017D2229707DC023008F07DC0AAE1B2E046
:1011A0002D0191E080914A02082FE8E7F0E0BEC1EE
:1011B000009156026BC0082F10E00F70FD01E00F88
:1011C000F11F00A563C00091480260C070D05EC0EE
:1011D000009149025BC00DE459C0EFE3F0E00491D7
:1011E00055C000914B0252C000917E024FC0009149
:1011F000570200931A02DBD00E7F09C000914D0206
:1012000000931A0200E000934D02D1D00D7F06AB8F
:101210003FC000914E023AC000914F0237C006E72E
:10122000402E02E0502E80E090E044D08830E8F379
:101230000EE6402E02E0502E01C03CD08031E8F393
:10124000092F74D80883198328812ED029812CD0A6
:1012500093959430A8F39AE120917E021FD02091BB
:101260007E02217083951AD02D0112C00091410297
:101270000DC000913E020AC000913F0207C00091DC
:10128000400204C0803820F4082F0BDC00931A02BF
:10129000292F82013DDB2296E6E09EC1E82FF0E097
:1012A000E65EFD4F20830895F9DF83950895009150
:1012B00047020895F20101912F01FC01E65EFD4F06
:1012C0000083F3CF7FD1AAE1B2E000915402002362
:1012D00019F0FD010A9502AF0091480210915202E7
:1012E0001123D9F0FD011A9510AF103118F08EE1DD
:1012F000811B01C0812F16A912FF05C01FE0181B1A
:1013000011AF10E010AF4BD000914202102F0F70C0
:10131000800F803170F08FE00CC0109153021123C8
:1013200069F0FD011A9511AF8FE0811B38D0109143
:101330004202107F8F70182B2CD027C000915502CD
:10134000002369F034D002FD0AC021D025D0AFDFE0
:10135000002311F001E02DDC00E000935502009124
:101360005802007F19F0ECDD0F7006AF20D002FFAD
:101370000CC020D051F002AD002339F406A90B7F38
:1013800006AB0FE000AF00E001AFE4E027C1109131
:10139000420200910C02B3CB0091480200CC182FFE
:1013A000110F110F010F003408F00FE3F8CBFD010E
:1013B00006A9089507A90023089504D1802F01E00C
:1013C000B5D7D80102E0B2D7897FDCDE24A130E0B6
:1013D000A00FB11F2A173B070CF48460EBDF21F04C
:1013E00007A1182F102321F4867011F001E001C02D
:1013F00000E0CBCF6F939F9368B1902F90956923B6
:1014000068B96BB1912F909569236BB9902F67B133
:10141000692B67B96AB1912F692B6AB9922F9095A0
:1014200065B1692365B964B1922F692B64B95C9881
:10143000549A9F916F9108956F939F936AB16093AF
:10144000B3026093B10267B16093B4026093B202D9
:10145000602F60959091B10296239093B102612F15
:1014600060959091B20296239093B20200270000FB
:10147000000000006091B20267B99F916F910895DA
:101480002AB903B900000000000057B900000000AD
:10149000000037B94AB903B908955C9A08955C9879
:1014A0006091B40267B900000000000008950000D8
:1014B0008895FECF0FE90DBF01E00EBFC0E4D1E07B
:1014C00096D0002309F0A3D0FBDBF1DFF0CF4A95E3
:1014D00012F0000FE1F708954A9512F00695E1F732
:1014E0000895002411240030010741F01695079556
:1014F00010F4040E151E440F551FF5CF002D112DAD
:1015000008954A951AF0000F111FFBCF08954A95D0
:101510001AF015950795FBCF089575916591559132
:101520004591159011FA259035900895F9DF041B27
:1015300010E003C0F4DF041B150B20E030E005C011
:10154000ECDF041B150B260B370BB8F010FC17C093
:1015500045910590E00FF11F0417100540E02407A6
:10156000340758F436F404910024F101E01BF0092B
:101570000994E00FF11F25903590F101099411F4C1
:10158000D6F7F1CF31960EF0319650E060E070E082
:1015900045914B3F48F089F34F3F29F04E3F11F002
:1015A0007591659155914591041B150B260B370BD1
:1015B00039F318F3E7CFAA929A928A927A926A92B2
:1015C0005A924A92BA93AA939A938A930895AA84B4
:1015D000998488847F806E805D804C80BB81AA81E5
:1015E00099818881F0E0EC0FFD1FEF01089501E083
:1015F000089520E006D0E9F70895259102D0E9F793
:1016000008952D9301501040202F212B08958EEB2B
:1016100090E0FC0105911491FC013296A591B491E2
:10162000FC01349625913491422F432B19F0F90196
:10163000E4DF01C0DEDF069610E08A3C910748F344
:1016400008950140404040000000000000000000FC
:10165000000000000000000000000000000000008A
:101660000000000000000000F80000007F000108FA
:10167000113F20007F01010007000D001300190039
:101680001E007F0021482D007F002D043001000046
:1016900000000000000001070D1319000000000009
:1016A0000000000000000000000000000000030136
:1016B000040002000000000000000C000000000018
:1016C000000000000000000000000000000000001A
:1016D000000000000000000000000000000000000A
:1016E0000A0A40080000000000000042000000005C
:1016F0000000000000000000000000006500200263
:1017000065001002650080026500400203080308BE
:10171000FFFFFFFFFFFFFFFFFFFFFFFFFFFFFFFFD9
:10172000FFFFFFFFFFFFFFFFFFFFFFFFFFFFFFFFC9
:10173000FFFFFFFFFFFFFFFFFFFFFFFFFFFFFFFFB9
:10174000FFFFFFFFFFFFFFFFFFFFFFFFFFFFFFFFA9
:101BF000FFFFFFFFFFFFFFFFFFFFFFFFFFFFE6A36A
:0400000300000000F9
:00000001FF
