:020000020000FC
:10000000D0C8F7C6FFFFFFFFFFFFFFFFFFFFFFFFA7
:10001000FFFFFFFFFFFFEEC6FFFFFFFFFFFFFFFF3A
:10002000FFFFFFFFFFFFFFFFFFFFFFFFFFFFFFFFE0
:100030007EC47A00320200009200A0019412FF11E7
:10004000E9D8C801202F26952695F89400916400E0
:100050000E7F0093640030E0220FE5E2F2E0E20F51
:10006000F31F008100937C00009164000160009305
:1000700064001181F901ED5DFD4F018100D8A02FD1
:10008000F0E0E82FEF55FE4F4080B0E01AC05091ED
:1000900078024091770230917602209175021A2FF2
:1000A000092F11D83DD0E0EAF1E0008103950083EB
:1000B000023030F0033020F0043010F001E0008313
:1000C000B395B415F89418F30BD800E010E0009342
:1000D000850000938400B59A90E0880F991FE2E3B1
:1000E000F2E0E80FF91F00B705FF13C019D0B5996A
:1000F0000BC0009184001091850020E21032B8F30B
:1001000000E00083218308C00091860010918700E1
:1001100001C001E000831183E5D702D0E5E086C885
:10012000009179020FBF08950AD000E0E2E3F2E007
:10013000048F058FE0D28991089501D0FCCF8A9376
:1001400080E003C0082FE3D0839588D0D8F30895CA
:1001500000E000936A0204E00093440204E100938B
:10016000470205E00093480200E00093460204E1E4
:100170000093450201E00093430203E0009349022B
:10018000D6D200E0E2E3F2E0008F018F089542D87A
:10019000442490E0A2E3B2E0FD01428E438E448D00
:1001A000558D9801241B350B048F158F068D178DE7
:1001B000020F131F068F178F05C0085C1040068FB3
:1001C000178F9395068D178D083C1405B0F7009195
:1001D0006B02002341F0091718F440926B0203C030
:1001E000091B00936B02EFD2FD01008D118D0030D1
:1001F000140511F0F801099580E004C08C012CD1A0
:10020000402A83952BD0D0F3442021F0FD01038DAB
:100210000160038F00E00093420280E018C0482F85
:100220003CD0F801EE5AFD4F0081087179F0282F7B
:10023000269526952695482F477001E0BFD730E0D8
:10024000FD01E20FF31F1089102B108B839506D050
:1002500030F3FD01028D138DE5E0E8C700916A02DD
:1002600080170895702F612F40916A0216D0E2E541
:10027000F2E0E00DF11D23836770660F660F660FD5
:100280006483758304810C7F3370032B0483EAE657
:10029000F2E0008103950083089550E006E010E04D
:1002A00097C7B9D7602F20E030E0402FF6DFA2E5F6
:1002B000B2E0A00DB11DFD015581038110E0409118
:1002C00043029CD7802F043008F484E000916A0236
:1002D0006017D0F4052FF1D19801082F06950695E7
:1002E00010E090E0081B10400217130724F4FD01F2
:1002F00004810B7F0483819590408217930724F03B
:10030000FD010481046004838901E4E090C78A93BD
:10031000802F08D0482F45D001E000830FE00183F3
:100320008991089578D73CD0058112E01083ACE420
:10033000B2E01C9112601C9310E0128320E8F801D7
:10034000EE5AFD4F228F79C066D7C4D1E2E3F2E0C6
:10035000E20FF31FA2E3B2E0A20FB31F1A3018F0AE
:100360000D911C9111C06ED02D913C9111972017C9
:10037000310718F40150104007C02D913C9102172D
:10038000130718F40F5F1F4F60D057C081D1208131
:100390002360208305D000E1008300E001830895FD
:1003A000402F82D1E2E5F2E0E00DF11D089533D750
:1003B000212F402F50E0440F551FFA01EE5CFD4FF6
:1003C00060817181E2E3F2E0E40FF51F10E0A2E545
:1003D000B2E0A00FB11F36D00617170780F45A9667
:1003E0000C91020F0C93102F5A970091480200585D
:1003F000101718F124D00F5F1F4F27D01EC06017B1
:10040000710780F45A960C91021B0C9300E810912E
:100410004702011B1C915A97011778F010D0015028
:100420001040EBCFFD01028D013810F00A95028FCC
:10043000028D003810F40395028FE4E0F8C600E85E
:100440005A960C930085118508950087118720D155
:100450000081086000830895D7D6902E412EAA24EB
:1004600055241FDFC801492D1FD1A2E5B2E0A00D20
:10047000B11DFD010381448143704395A4D6023030
:1004800008F402E06380772410E0601A710A0C918E
:100490000A9571F00A95E1F00250A9F1045009F4AF
:1004A000AAC0085009F47FC0005109F4B6C0D3C0F7
:1004B000EBD002600183FD011181058145DFFD0163
:1004C00001810A95018311F4092D2CDFCAD0C3C024
:1004D000048102FF06C0092D02D1502ED6D0006142
:1004E000B9C0CAD020F004E00C93A282B2C044206C
:1004F00009F4B1C000916B02002309F0ACC0142DC7
:10050000058155DFA8C0B8D008F44AC0A7D003952C
:100510000283448008E3402246944694469499F12D
:10052000882406C00081003139F1083029F1839414
:1005300000916A02801628F58914C9F3482DB4D0B9
:1005400022E5622E22E0722E600C711CF301048100
:100550000873069506950695041549F7082DA1DE42
:10056000FD012381AC01421B5040F3012381021B9A
:10057000104040175107B4F6FD015282AA24A394FB
:10058000D6CFAA2039F400914402002319F07CD080
:10059000086001836BD008F45EC0092DF7DE5BC0F4
:1005A000092DC0DE58C0048102FF08C010E8092DE3
:1005B00096D0502E6AD00061018388CF63D0061593
:1005C000170520F408E00C936AD0F6CF64D04ED023
:1005D00010F40395028300914602002309F476CFBC
:1005E0001181101718F4012F040DE6CF092D8FDEAD
:1005F0004BD00260E1CF32D0002391F243D060169D
:10060000710620F400E10C9346D002C048D001836B
:10061000FD0102810A9502831EC0258102E512E0D8
:10062000020F1A1DF801228D2395228FFD012481CE
:10063000F801028D22FD05C007FFB2CF00E10C9347
:100640000AC010914902011720F0092D60DE539471
:1006500045CF25D00183052DEBE0E2C502D0028114
:1006600008950091450200936B020895FD010281F7
:10067000109144020117089505D0FD01238102174E
:10068000104008958C0114C0539402D00181089544
:10069000ECE4F2E00895FCDF00810160DBCE5394CE
:1006A000F7DF01810460089550E006E010E090C596
:1006B000112312F400E010E008950CD0F901EE5C73
:1006C000FD4FC0DEF901EE5CFD4F20813181021B40
:1006D000130B0895202F30E0220F331F08959BD570
:1006E000212F5EDEA581B0E0A459BD4F2C9300E21E
:1006F000008301E0A2CE01E00093A00100E000939E
:1007000070020093710200937202009373020093CF
:10071000740208EB13E016D040917402309173021A
:1007200020917202109170020091710286C400E063
:1007300020E4F0E0E02FEF55FE4F208303950430D6
:10074000B8F3089568D5D80180E00CC0482F50E078
:1007500006E010E03DD5F801EE5AFD4F0581FD01A0
:100760000995839500916A02801780F3E4E05FC5E4
:10077000602F637006950695202F30E0220FF90157
:10078000ED5DFD4F19D01081102B1083F901EB5D49
:10079000FD4F12D01181102B1183660F660FE3E11C
:1007A000F2E0E60FF31F2281E381F0E0E059FD4F14
:1007B0000081022B00830895408101E010E018D5EC
:1007C000E0E7F2E0089522D50FB700937902A091F7
:1007D0007B00B0B7409080005090810066B280915D
:1007E0008400909185007090640080907C0000E40B
:1007F00000937B0004E000BF00E00093800001E86C
:1008000000938100F8940BE114E09CDFA0937B003F
:10081000B0BF409280005092810066BA90938500EC
:10082000809384007092640080927C000091790231
:100830000FBFE9E0F7C4202F237030E0220F220F12
:10084000E3E1F2E0E20FF31F4081518140305307B2
:1008500019F01281FA010995009179020FBF0895EC
:100860000093BA000FEF0093BB0004E039C0109171
:10087000BC00012F017008950091BC0000FDFCCF69
:100880000091C6010895C7D4422F2091BC0020FDDD
:10089000FCCFB5D040A320E00CC0D801A20FB31FFD
:1008A0005C91DF01A20FB31F5C9323952417A8F37B
:1008B0002395241718F420E030E0F8CF00E002A3DD
:1008C00008EF01A30CD0E4E0B2C40091BC0000FD2D
:1008D000FCCF00E00093C70108EF0093C60105ECD0
:1008E0000093BC0008953091BC0030FDFCCF3091E6
:1008F000C70130FFFCCF40E050E009C0FA01E658E4
:10090000FD4F3081F801E40FF51F30834395421706
:10091000A8F378D00D7F02A3ADCF0091C9010132B9
:1009200018F000E20093C9010091C9010895BA933B
:10093000AA93FA93EA933A932A931A930A933FB7A6
:100940000091B900005809F446C0005109F443C0B1
:10095000005189F1085049F0005169F0085019F12F
:10096000005A91F1005169F145C049D000E004A35B
:1009700002A1086002A343D004A110E0DF01A00F90
:10098000B11F0C910093BB0004A1039504A305ECD7
:10099000A7DF3FBF0991199129913991E991F99107
:1009A000A991B99118952BD004A110A1011729F490
:1009B00002A1016002A304E0EBCF0091B90001A302
:1009C000FACF20D0046002A31DD0026002A300E091
:1009D00004A303A3DCCF13D02091BB00A3A1B0E0FC
:1009E000A658BD4F2C9303A1039503A302A1016058
:1009F00002A3CDCF0091B9000093C601DCCFE5EA98
:100A0000F1E00895E5EAF1E002A108958A93802FCC
:100A10005CDF082F8991089525D006D0399A419836
:100A200000C023D000C0089500C03A9A429AFACF7D
:100A3000399A4198F9DF16D0F5CF17D0102F08E07A
:100A400017FB399A16F4419A01C04198EDDF110F56
:100A50000CD00A95A9F700C005D0E7DF06B105D094
:100A600002700895399A419A08953A9A42980895E1
:100A700040E0F8DF18E0D9DF440F31994395F5DF06
:100A800000C01A95C1F70023399A11F0419801C0AE
:100A9000419ACBDFCADFE9DFE5DFF9014083089542
:100AA000B9D3402E812F922FDA01B6DF440C042DEA
:100AB000C4DF442403C00D91C0DF43944816D8F32B
:100AC000992309F4B5DF00C0E5E0B0C3A4D3B02F8B
:100AD000A12FC901A1DFBB0FB1600B2FAEDFB0E0CA
:100AE00004C001E0C5DF0196B395BA1760F42B2F5F
:100AF00030E00A2F10E001501040201731079C0110
:100B000081F700E0EFCF94DFE4E091C385D3219734
:100B10000883C901A12FAE0121E011E005E4C0DF87
:100B20009C011A2F05E4D2DF00E02196E3E080C3A8
:100B30006097103108F01FE0088300E050E009C022
:100B4000F901E00FF51F6081FE01E00FF51F6183E1
:100B500003950117A8F3AE0120E0139505E4A0DF8B
:100B600000E06096089557D3AAE9B2E000E0DED035
:100B700049C000919F02002321F4009104020093D8
:100B80009D0200919F0200FD07C0012F00FF04C0DD
:100B9000D1D010910402B7D0B9D00C7F028300915C
:100BA0009E0200939F02BCD0C1F000919C0206708F
:100BB000063099F4579A5F9807E813E10150104006
:100BC000E9F700C00000E0E1F2E00081046000838A
:100BD000EFE0F2E000810395008398D001FF11C09F
:100BE0008ED061F404E10093A00200910902002379
:100BF00011F000E0CCD28AD00460028302810D7F24
:100C0000028310D10D911C911197C80101968D930B
:100C10009C9311970130104118F0BAD000E086D0B3
:100C200000910D02033059F457985F98FBD0009162
:100C3000A402002339F377D06CD0F6F3E3CF009110
:100C4000A402002351F16FD05AD019F00A950093F5
:100C5000A0020091A102002319F00A950093A102BD
:100C600058D0F6F300FB8EF400914202009312027A
:100C7000037059F055D011F4579A5F9800919C0277
:100C80000D7F016000939C0208C057985F983ED08A
:100C900000FF03C00E7F0260028331D011F014E028
:100CA00009C00091090273D200910902002319F4CE
:100CB0001091040228D000E04A9901E0EEE9F2E048
:100CC00000FB008100F9008300910D02002311F464
:100CD00011E001C010E000810D7F110F012B008396
:100CE00000919F0210919E02011709F45CCF18D069
:100CF00009F03FCF1FD000910A0243D24DCF00919F
:100D0000A002002308950091D6010CC2FD010281CA
:100D10000895E2EAF2E00081118139DA10FB0895CA
:100D200000919E02EECF00E00093A4020D930C937D
:100D300011970895E0E1F2E000810B7F0083FD014F
:100D400002810B7F028300E00093A1020895F894D2
:100D500010E810936100009361007894089530D0FA
:100D60000CD0E2D915D000E0EAE4F2E00083018380
:100D7000789401E000930D02F6CE05D001E072DA1E
:100D800002D002E06FCA33E02091020210E0089521
:100D900008EB1BE010D000916F00026000936F0021
:100DA0000091810002600093810000918100086041
:100DB000009381000895109389000093880008959E
:100DC00002E0C5DF05B7006105BF3A98429803EC21
:100DD00019E001501040E9F700C00000329903C04B
:100DE00000E500930B02529807E83ADD6EDD01E062
:100DF00092C11895FA93EA932A931A930A932FB7FC
:100E000001E00093A402E2EAF2E000811181045FB4
:100E10001F4F008311832FBF099119912991E991E7
:100E2000F991189524DD002391F40091C70100FF8A
:100E30000CC001FF06C020E202EE11E054DD08D034
:100E400069D015DD002319F440CD16DDDFDD0895EE
:100E50008A9363DD1091E20110930C0220910C0241
:100E60002F3F19F4002309F453C08091E301022FAE
:100E700000590550A0F039F10A9551F1095009F4D3
:100E800047C0045099F1035009F442C00A9589F112
:100E90000A9591F10555A9F10A9581F134C08F7039
:100EA000806E182FF0E02F70E22FEA52FE4F008183
:100EB00039D100910C0210E00F70E2EEF1E0E00F8A
:100EC000F11F82A325C0082F5CD180930A0220C0A5
:100ED000009109020817E1F0109104020091D60177
:100EE00021D1082F54D18093090212C080930D02A2
:100EF0000FC08093020202C08093030229D93DDF14
:100F000013D91BD905C02A3018F4182F022FF8D096
:100F1000899108957ED1229700DD023008F079C0D2
:100F2000A2EEB1E02D0191E000910C02102F105AB9
:100F3000C1F01A95C1F01350D1F01A95D9F01A9555
:100F400099F11A9509F457C01A9509F457C01A95E2
:100F5000D1F01A9531F1165409F053C000910B02EB
:100F600053C00DE451C0EFE3F0E004914DC0009197
:100F700042024AC0009112020093E201FD0106A55F
:100F80000E7F06A743C000910E020093E20100E02D
:100F900000930E02FD0106A50D7F06A700E007A73E
:100FA00035C000910F0230C00AE3402E02E0502EFF
:100FB00080E090E03AD08830E8F302E3402E02E08F
:100FC000502E01C032D08031E8F3092F6AD908834E
:100FD0001983288127D0298125D093959430A8F3AF
:100FE0009AE12091420218D020914202217083950B
:100FF00013D02D010BC00091020206C00091030224
:1010000003C00A3018F476D00093E201292F820140
:101010003ADC2296E6E009C1E82FF0E0EE51FE4FFF
:1010200020830895F9DF83950895F20101912F013E
:10103000FC01EE51FE4F0083F6CF6F939F9368B192
:10104000902F9095692368B96BB1912F9095692382
:101050006BB9902F67B1692B67B96AB1912F692B72
:101060006AB9922F909565B1692365B964B1922FE1
:10107000692B64B95C98549A9F916F9108956F930E
:101080009F936AB1609377026093750267B1609332
:10109000780260937602602F609590917502962396
:1010A00090937502612F60959091760296239093AC
:1010B000760200270000000000006091760267B908
:1010C0009F916F9108952AB903B9000000000000B4
:1010D00057B900000000000037B94AB903B90895B4
:1010E0005C9A08955C986091780267B900000000EE
:1010F00000000895219711E09E0108DD088105C0D8
:101100002197188311E09E0113DD21960895006157
:10111000FDCC00610DCD389A409A1BE027E232E009
:1011200000E0F7CF7AD02397C80110E0E5EAF2E0BB
:10113000E00FF11F0081091709F1908313E09E0170
:1011400000E0E5DF20E0482F01E010E051D0FE0193
:1011500030E0E20FF31F90FB26F41081102B108378
:1011600005C0102F1095308131233083969523953B
:10117000233068F313E09E0100E0CBDF2396E2E02A
:1011800058C02197088311E09E0108E0BDCF0023DD
:1011900011F016E001C010E002E0C4CF0000889515
:1011A000FECF0FE90DBF01E00EBFC0E4D1E048D093
:1011B000002309F055D0D3DDF1DFF0CF4A9512F0CE
:1011C000000FE1F708954A9512F00695E1F70895AA
:1011D000002411240030010741F01695079510F402
:1011E000040E151E440F551FF5CF002D112D089527
:1011F0004A951AF0000F111FFBCF08954A951AF077
:1012000015950795FBCF0895AA929A928A927A92A1
:101210006A925A924A92BA93AA939A938A93089599
:10122000AA84998488847F806E805D804C80BB8195
:10123000AA8199818881F0E0EC0FFD1FEF010895EC
:1012400001E0089520E006D0E9F70895259102D045
:10125000E9F708952D9301501040202F212B089578
:1012600082E390E0FC0105911491FC013296A59176
:10127000B491FC01349625913491422F432B19F0FF
:10128000F901E4DF01C0DEDF069610E08E3391073E
:1012900048F3089501404040400000000000000075
:1012A000000000000000000000000000000000003E
:1012B00000000000000000000000F8000000000036
:1012C000000000000000000000000203010405000F
:1012D000000000000000000000000000000000000E
:1012E00000000000000000000000000000000000FE
:1012F0000000000000000A80000000000000005410
:101300000000000000000020002002200010022049
:1013100000800220004002030803080000004499F6
:10132000446666FF0F00FFFFFFFFFFFFFFFFFFFFA9
:10133000FFFFFFFFFFFFFFFFFFFFFFFFFFFFFFFFBD
:10134000FFFFFFFFFFFFFFFFFFFFFFFFFFFFFFFFAD
:10135000FFFFFFFFFFFFFFFFFFFFFFFFFFFFFFFF9D
:10136000FFFFFFFFFFFFFFFFFFFFFFFFFFFFFFFF8D
:1017F000FFFFFFFFFFFFFFFFFFFFFFFFFFFFD01116
:0400000300000000F9
:00000001FF
