:020000020000FC
:1000000089C9DAC7FFFFFFFFFFFFFFFFFFFFDEC762
:10001000FFFFFFFFFFFFFFFFFFFFFFFFFFFFFFFFF0
:10002000FFFFFFFFFFFFFFFFFFFFFFFFFFFFFFFFE0
:10003000A3C4FFFFFFFFFFFFFFFFFFFFFFFFFF1452
:1000400090010B099D08019D08019D08019D080173
:100050009D0801A50801A808099A0801AE0801B089
:100060000802B40801B70801BA0801D4080105095B
:1000700001080901C30801D10846AB08FB00700064
:1000800063020000C300A001A214CBD9C801202F35
:1000900026952695F894009164000E7F00936400E5
:1000A00030E0220FE1E6F2E0E20FF31F008100935F
:1000B0007C00009164000160009364001181F901EB
:1000C000E15AFD4F0181E8D8A02FF0E0E82FEF556D
:1000D000FE4F4080B0E01AC05091A9024091A802A2
:1000E0003091A7022091A6021A2F092FF9D83DD0EE
:1000F000E0EAF1E0008103950083023030F0033044
:1001000020F0043010F001E00083B395B415F894AA
:1001100018F3F3D800E010E000938500009384000A
:10012000B59A90E0880F991FE3E6F2E0E80FF91F17
:1001300000B705FF13C019D0B5990BC0009184001A
:100140001091850020E21032B8F300E00083218393
:1001500008C0009186001091870001C001E0008373
:100160001183CDD802D0E5E068C90091AA020FBF83
:1001700008950AD000E0E3E6F2E0048F058FE0D2B4
:100180008991089501D0FCCF8A9380E003C0082FA5
:10019000E3D0839588D0D8F3089500E000939B02C4
:1001A00004E00093750204E10093780205E00093F7
:1001B000790200E00093770204E10093760201E007
:1001C0000093740203E000937A02D6D200E0E3E6E3
:1001D000F2E0008F018F089524D9442490E0A3E633
:1001E000B2E0FD01428E438E448D558D9801241B53
:1001F000350B048F158F068D178D020F131F068F79
:10020000178F05C0085C1040068F178F9395068DD9
:10021000178D083C1405B0F700919C02002341F0B3
:10022000091718F440929C0203C0091B00939C021A
:10023000EFD2FD01008D118D0030140511F0F80191
:10024000099580E004C08C012CD1402A83952BD0E5
:10025000D0F3442021F0FD01038D0160038F00E005
:100260000093730280E018C0482F3CD0F801ED578E
:10027000FD4F0081087179F0282F26952695269547
:10028000482F477001E053D830E0FD01E20FF31F23
:100290001089102B108B839506D030F3FD01028D51
:1002A000138DE5E0CAC800919B0280170895702F56
:1002B000612F40919B0216D0E3E8F2E0E00DF11DC2
:1002C00023836770660F660F660F648375830481EE
:1002D0000C7F3370032B0483EBE9F2E0008103957C
:1002E0000083089550E006E010E02BC89BD8602FF3
:1002F00020E030E0402FF6DFA3E8B2E0A00DB11D12
:10030000FD015581038110E04091740230D8802FA7
:10031000043008F484E000919B026017D0F4052FAC
:10032000F1D19801082F0695069510E090E0081B82
:1003300010400217130724F4FD0104810B7F04838E
:10034000819590408217930724F0FD010481046099
:1003500004838901E4E072C88A93802F08D0482F73
:1003600045D001E000830FE00183899108955AD8B8
:100370003CD0058112E01083ADE7B2E01C91126021
:100380001C9310E0128320E8F801ED57FD4F228FF7
:1003900079C048D8C4D1E3E6F2E0E20FF31FA3E648
:1003A000B2E0A20FB31F1A3018F00D911C9111C0CA
:1003B0006ED02D913C9111972017310718F4015000
:1003C000104007C02D913C910217130718F40F5FDE
:1003D0001F4F60D057C081D120812360208305D07A
:1003E00000E1008300E001830895402F82D1E3E81B
:1003F000F2E0E00DF11D089515D8212F402F50E0B7
:10040000440F551FFA01ED59FD4F60817181E3E6FC
:10041000F2E0E40FF51F10E0A3E8B2E0A00FB11F77
:1004200036D00617170780F45A960C91020F0C93DA
:10043000102F5A97009179020058101718F124D004
:100440000F5F1F4F27D01EC06017710780F45A96A8
:100450000C91021B0C9300E810917802011B1C9177
:100460005A97011778F010D001501040EBCFFD01E2
:10047000028D013810F00A95028F028D003810F4B9
:100480000395028FE4E0DAC700E85A960C930085E2
:10049000118508950087118720D1008108600083AD
:1004A0000895B9D7902E412EAA2455241FDFC801E4
:1004B000492D1FD1A3E8B2E0A00DB11DFD010381BC
:1004C00044814370439538D7023008F402E06380DA
:1004D000772410E0601A710A0C910A9571F00A9560
:1004E000E1F00250A9F1045009F4AAC0085009F43F
:1004F0007FC0005109F4B6C0D3C0EBD002600183C5
:10050000FD011181058145DFFD0101810A9501830E
:1005100011F4092D2CDFCAD0C3C0048102FF06C02C
:10052000092D02D1502ED6D00061B9C0CAD020F01A
:1005300004E00C93A282B2C0442009F4B1C000913F
:100540009C02002309F0ACC0142D058155DFA8C022
:10055000B8D008F44AC0A7D003950283448008E3CA
:10056000402246944694469499F1882406C000811E
:10057000003139F1083029F1839400919B028016F3
:1005800028F58914C9F3482DB4D023E8622E22E05F
:10059000722E600C711CF301048108730695069598
:1005A0000695041549F7082DA1DEFD012381AC0154
:1005B000421B5040F3012381021B1040401751079A
:1005C000B4F6FD015282AA24A394D6CFAA2039F40E
:1005D00000917502002319F07CD0086001836BD074
:1005E00008F45EC0092DF7DE5BC0092DC0DE58C0DF
:1005F000048102FF08C010E8092D96D0502E6AD061
:100600000061018388CF63D00615170520F408E048
:100610000C936AD0F6CF64D04ED010F403950283C9
:1006200000917702002309F476CF1181101718F496
:10063000012F040DE6CF092D8FDE4BD00260E1CFF4
:1006400032D0002391F243D06016710620F400E10D
:100650000C9346D002C048D00183FD0102810A9567
:1006600002831EC0258103E812E0020F1A1DF80163
:10067000228D2395228FFD012481F801028D22FD18
:1006800005C007FFB2CF00E10C930AC010917A02B7
:10069000011720F0092D60DE539445CF25D001834A
:1006A000052DEBE0C4C602D00281089500917602C8
:1006B00000939C020895FD010281109175020117BB
:1006C000089505D0FD0123810217104008958C0183
:1006D00014C0539402D001810895EDE7F2E008952B
:1006E000FCDF00810160DBCE5394F7DF0181046001
:1006F000089550E006E010E024C6112312F400E053
:1007000010E008950CD0F901ED59FD4FC0DEF9015C
:10071000ED59FD4F20813181021B130B0895202FCD
:1007200030E0220F331F08957DD6212F5EDEA58194
:10073000B0E0A356BD4F2C9300E2008301E0A2CEAF
:1007400001E00093A00100E00093A1020093A20247
:100750000093A3020093A4020093A5020DED13E001
:1007600016D04091A5023091A4022091A3021091CD
:10077000A1020091A2026EC500E020E4F0E0E02FAB
:10078000EF55FE4F208303950430B8F308954AD601
:10079000D80180E00CC0482F50E006E010E0D1D531
:1007A000F801ED57FD4F0581FD01099583950091F5
:1007B0009B02801780F3E4E041C6602F63700695CA
:1007C0000695202F30E0220FF901E15AFD4F19D094
:1007D0001081102B1083F901EF59FD4F12D01181B8
:1007E000102B1183660F660FEFE4F2E0E60FF31FA4
:1007F0002281E381F0E0EF55FD4F0081022B008361
:100800000895408101E010E0ACD5E1EAF2E00895FE
:1008100004D60FB70093AA02A0917B00B0B7409016
:1008200080005090810066B2809184009091850094
:100830007090640080907C0000E400937B0004E0F2
:1008400000BF00E00093800001E800938100F8946D
:1008500000E414E09CDFA0937B00B0BF40928000D6
:100860005092810066BA90938500809384007092C4
:10087000640080927C000091AA020FBFE9E0D9C514
:10088000202F237030E0220F220FEFE4F2E0E20F7E
:10089000F31F408151814030530719F01281FA0152
:1008A00009950091AA020FBF08950093BA000FEFB7
:1008B0000093BB0004E039C01091BC00012F01700F
:1008C00008950091BC0000FDFCCF0091C601089581
:1008D000A9D5422F2091BC0020FDFCCFB5D040A36C
:1008E00020E00CC0D801A20FB31F5C91DF01A20F62
:1008F000B31F5C9323952417A8F32395241718F4AA
:1009000020E030E0F8CF00E002A308EF01A30CD014
:10091000E4E094C50091BC0000FDFCCF00E0009332
:10092000C70108EF0093C60105EC0093BC000895D1
:100930003091BC0030FDFCCF3091C70130FFFCCFBF
:1009400040E050E009C0FA01E555FD4F3081F80163
:10095000E40FF51F308343954217A8F378D00D7F3D
:1009600002A3ADCF0091C901013218F000E200935B
:10097000C9010091C9010895BA93AA93FA93EA9321
:100980003A932A931A930A933FB70091B9000058FB
:1009900009F446C0005109F443C0005189F10850E0
:1009A00049F0005169F0085019F1005A91F10051D5
:1009B00069F145C049D000E004A302A1086002A388
:1009C00043D004A110E0DF01A00FB11F0C910093F0
:1009D000BB0004A1039504A305ECA7DF3FBF099169
:1009E000199129913991E991F991A991B9911895A4
:1009F0002BD004A110A1011729F402A1016002A3C8
:100A000004E0EBCF0091B90001A3FACF20D004603D
:100A100002A31DD0026002A300E004A303A3DCCF65
:100A200013D02091BB00A3A1B0E0A555BD4F2C93DE
:100A300003A1039503A302A1016002A3CDCF0091FE
:100A4000B9000093C601DCCFE5EAF1E00895E5EADC
:100A5000F1E002A108958A93802F5CDF082F89912D
:100A6000089500E008952197188326D0D9D02196C3
:100A700008958A9321971091F9011017C9F00093F6
:100A8000F9010023389A99F0409A80E002E0809FB3
:100A9000EAECF1E0E00DF11D01810DD00081C0D044
:100AA0008395813198F30091EC015ED001C04098AC
:100AB000219689910895088311E09E010895B2D48A
:100AC0002497812F0730E0F510E0AAECB1E0A00FE9
:100AD000B11FFD0103A1081799F183A3082F0F701F
:100AE000B1F001E0C6DF01E00B83E6DF2D5F2FD020
:100AF0008883E2DF28D00983DFDF2F5F28D00091D1
:100B0000EC010A83D9DF2E5F3F4F00E218C000E0FE
:100B100021D013A11F7031F403950730C8F300E012
:100B2000A8DF0EC001E00A83C7DF2E5F10D000EE01
:100B30000983C2DF2F5F3F4F06D0BDDF0FE770D0C4
:100B40002496E4E07BC4FD0102A56AD08ACF3F4F22
:100B50000FE766C0F0E0E02FE653FE4F08952197BF
:100B60000093EC0101D083CF088311E09E0100E2E5
:100B700057C08A932197802F00E00BD0882311F073
:100B800002E001C00CE097DF0DE24AD001E001D0A5
:100B90008FCF088311E09E0100E342C025D006D02C
:100BA000399A419800C023D000C0089500C03A9AF5
:100BB000429AFACF399A4198F9DF16D0F5CF17D07B
:100BC000102F08E017FB399A16F4419A01C041989A
:100BD000EDDF110F0CD00A95A9F700C005D0E7DFB3
:100BE00006B105D002700895399A419A08953A9A4B
:100BF0004298089516D4402E812F922FDA01CEDF2D
:100C0000440C042DDCDF442403C00D91D8DF439451
:100C10004816D8F3992309F4CDDF00C0E5E00DC4F0
:100C20006097103108F01FE0088300E050E009C031
:100C3000F901E00FF51F6081FE01E00FF51F6183F0
:100C400003950117A8F3AE0120E0139504E7D2DF66
:100C500000E060960895E6D3ABECB2E000E035D159
:100C600001C0D4D10D911C911197C80101968D93AB
:100C70009C9311970130104118F069D100E025D103
:100C800000914802033079F457985F9810D100FF23
:100C900002C0BCD101C0C7D100911C02002311F3D6
:100CA00011D108D1DFCF00911C02002381F10AD1BC
:100CB000F8D019F00A950093D1020091D2020023D6
:100CC00019F00A950093D202F5D000FBD6F40091FA
:100CD000730200934E0210914E02097069F41630AF
:100CE00059F4E3D011F4579A5F980091CD020D7F2B
:100CF00001600093CD020BC0D1D000FF08C00E7F71
:100D000005C0CCD000FF03C00E7F02600283C9D0B3
:100D1000D9F0003118F08EE1801B02C08091D10221
:100D200000914B0202FF07C00FE0081B0093D202A4
:100D300000E00093D102A5D000913F020F70800F18
:100D4000803148F08FE007C00091D202002341F0CB
:100D50008FE0801B96D0107F8F70182B8CD010C026
:100D600080D002FF0DC000914B0202FD09C000912E
:100D70004402002311F001E0FCDE7BD07FD074D070
:100D800000E04A9901E0EFECF2E000FB008100F99D
:100D9000008300914802002311F411E001C010E02B
:100DA00000810D7F110F012B00830091D002109163
:100DB000CF02011719F179D059F4EBE4F2E0008188
:100DC0000B7F008351D000E00093D20257D010C0B7
:100DD0000091D002002321F400913F020093CE0243
:100DE0000091D00200FD04C010FF02C047D041D0E6
:100DF00038D00C7F02835BD00093D00256D0C1F074
:100E00000091CD020670063099F4579A5F9807E872
:100E100013E101501040E9F700C00000EBE4F2E0FC
:100E2000008104600083EAE4F2E00081039500831E
:100E300018D001FF11C035D061F40EE10093D1024A
:100E400000914402002311F000E093DE0AD0046018
:100E5000028302810D7F02832AD000FD02CFE3D0FE
:100E600001CFFD0102810895FD0102810B7F028304
:100E7000089510913F0200910C0221CE009145028D
:100E80006ECE00914502182F110F110F010F003483
:100E900008F00FE364DE10913F02089557985F98C1
:100EA000E0CF0091D1020023089501D0FCCF009142
:100EB000CF020895EAE1F2E0008111818DD910FBA3
:100EC000CEF3089500E000931C020D930C9311974C
:100ED0000895F89410E810936100009361007894ED
:100EE000089551D031D033D000E0EBE7F2E0008339
:100EF0000183789401E000934802ADCE00913E0258
:100F00000093A2010093A301E4E7F2E003E0018370
:100F100004E1048305E0058300E0038304E1028328
:100F200001E0008303E00683089509D000E006D0C5
:100F300001E004D002E002D003E0B9C9B8D933E03F
:100F400020913D0210E00895F0DF13D9D7CF00E0E3
:100F500000937000009118020295007F0093B30087
:100F6000009170000260009370000091B100056074
:100F70000093B10003E00093B0000091B100077F3F
:100F80000093B100089502E0A4DF05B7006105BF3A
:100F90003A98429803EC19E001501040E9F700C07C
:100FA0000000329903C000E500934602529807E81A
:100FB0007CDCB0DC01E05DCD1A930A931FB703B768
:100FC0000E7F03BF1FBF099119911895FA93EA93F9
:100FD0004A933A932A931A930A934FB701E00093E6
:100FE0001C020091180210911902E8E1F2E022813E
:100FF0003381200F311F228333834FBF0991199111
:10100000299139914991E991F991189500E000935E
:10101000690003B7016003BF07E003BF889503B70A
:101020000E7F03BF089548DC002391F40091C701AF
:1010300000FF0CC001FF06C020E20DE112E078DCE9
:1010400008D068D039DC002319F464CC3ADC03DD25
:1010500008958A9387DC10911D0210934702209116
:1010600047022F3F19F4002309F452C080911E0259
:10107000022F00590550A0F039F10A9551F109509D
:1010800009F446C0045099F1035009F441C00A958F
:1010900089F10A9591F10555A1F10A9581F133C0C5
:1010A0008F70806E182FF0E02F70E22FE45FFD4FFD
:1010B000008105DD0091470210E00F70EDE1F2E0E4
:1010C000E00FF11F82A324C0082F49DD8093450261
:1010D0001FC0009144020817D9F010913F020091FF
:1010E0000C02EDDC082F45DD8093440211C0809393
:1010F00048020EC080933D0202C080933E024DD84C
:1011000023DF40D805C0203818F4182F022FABDC9D
:101110008991089583D1229725DC023008F084C09C
:10112000ADE1B2E02D0191E080914702082FE0E4AB
:10113000F0E02CC100914D0272C0082F10E00F703A
:10114000FD01E00FF11F02A16AC00091450267C0D6
:101150000091440264C00091460261C00DE45FC08A
:10116000EFE3F0E004915BC00091480258C00091A9
:10117000730255C000914E0200931D02FD0106A5A9
:101180000E7F06A74EC00091490200931D0200E0A9
:1011900000934902FD0106A50D7F06A700E007A701
:1011A00040C000914A023BC00BE6402E02E0502EA8
:1011B00080E090E0F20101912F01FC01E35EFD4F20
:1011C00046D08830B8F303E6402E02E0502E05C02A
:1011D000F20101912F01F3013AD03D01680E791E11
:1011E0008031B0F300E023D0F3012ED001E01FD016
:1011F00026D02AD096E1209173021ED0209173024E
:101200002170839519D02D010CC000913D0207C0BB
:1012100000913E0204C0803820F4082F22DC0093A5
:101220001D02292F820154DB2296E8E003C15ED81B
:10123000088319830881089502D020830895E82F38
:10124000F0E0E35EFD4F089502D00981F8DF0083EE
:10125000839508956F939F9368B1902F909569231C
:1012600068B96BB1912F909569236BB9902F67B1D5
:10127000692B67B96AB1912F692B6AB9922F909542
:1012800065B1692365B964B1922F692B64B95C9823
:10129000549A9F916F9108956F939F936AB1609351
:1012A000A8026093A60267B16093A9026093A702A7
:1012B000602F60959091A60296239093A602612FCD
:1012C00060959091A70296239093A70200270000B3
:1012D000000000006091A70267B99F916F91089587
:1012E0002AB903B900000000000057B9000000004F
:1012F000000037B94AB903B908955C9A08955C981B
:101300006091A90267B90000000000000895000084
:101310008895FECF0FE90DBF01E00EBFC0E4D1E01C
:1013200096D0002309F0A3D0DCDDF1DFF0CF4A95A1
:1013300012F0000FE1F708954A9512F00695E1F7D3
:101340000895002411240030010741F016950795F7
:1013500010F4040E151E440F551FF5CF002D112D4E
:1013600008954A951AF0000F111FFBCF08954A9572
:101370001AF015950795FBCF0895759165915591D4
:101380004591159011FA259035900895F9DF041BC9
:1013900010E003C0F4DF041B150B20E030E005C0B3
:1013A000ECDF041B150B260B370BB8F010FC17C035
:1013B00045910590E00FF11F0417100540E0240748
:1013C000340758F436F404910024F101E01BF009CD
:1013D0000994E00FF11F25903590F101099411F463
:1013E000D6F7F1CF31960EF0319650E060E070E024
:1013F00045914B3F48F089F34F3F29F04E3F11F0A4
:101400007591659155914591041B150B260B370B72
:1014100039F318F3E7CFAA929A928A927A926A9253
:101420005A924A92BA93AA939A938A930895AA8455
:10143000998488847F806E805D804C80BB81AA8186
:1014400099818881F0E0EC0FFD1FEF01089501E024
:10145000089520E006D0E9F70895259102D0E9F734
:1014600008952D9301501040202F212B08958EE7D1
:1014700090E0FC0105911491FC013296A591B49184
:10148000FC01349625913491422F432B19F0F90138
:10149000E4DF01C0DEDF069610E08A38910748F3EA
:1014A000089501404040400000000000000000009E
:1014B000000000000000000000000000000000002C
:1014C0000000000000000000F80000007F0001089C
:1014D000113F20007F01010007000D0013001900DB
:1014E0001E007F0021482D007F002D0430010000E8
:1014F00000000000000001070D13190000000000AB
:1015000000000000000000000000000000000301D7
:10151000040002000000000000000C0000000000B9
:1015200000000000000000000000000000000000BB
:101530000000000000000000000000000000000AA1
:1015400080000000000000004200000000000000D9
:101550000045002002450010024500800245004081
:101560000203080308FFFFFFFFFFFFFFFFFFFFFF6E
:10157000FFFFFFFFFFFFFFFFFFFFFFFFFFFFFFFF7B
:10158000FFFFFFFFFFFFFFFFFFFFFFFFFFFFFFFF6B
:10159000FFFFFFFFFFFFFFFFFFFFFFFFFFFFFFFF5B
:1015A000FFFFFFFFFFFFFFFFFFFFFFFFFFFFFFFF4B
:101BF000FFFFFFFFFFFFFFFFFFFFFFFFFFFF388932
:0400000300000000F9
:00000001FF
