:020000020000FC
:10000000E5C944C8FFFFFFFFFFFFFFFFFFFF48C830
:10001000FFFFFFFFFFFFFFFFFFFFFFFFFFFFFFFFF0
:10002000FFFFFFFFFFFFFFFFFFFFFFFFFFFFFFFFE0
:10003000C0C4FFFFFFFFFFFFFFFFFFFFFFFFFF1732
:100040009001DB08A40801A40801A40801A4080188
:10005000A40801B80801BD0809E00804C60803E0C7
:100060000801CC0801CF0803D50851C90801D308FD
:1000700001D108FB9001670901090101090101098A
:10008000010109010109010909010C0909FE080121
:100090001109011309021709011A09011D09013586
:1000A00009016109016409012409012F09013209CB
:1000B000450E090C5E09FB00730064020000C400D9
:1000C000A0015A150ADAC801202F26952695F89422
:1000D000009164000E7F0093640030E0220FE2E69E
:1000E000F2E0E20FF31F008100937C0000916400B6
:1000F0000160009364001181F901E05AFD4F018114
:1001000027D9A02FF0E0E82FEF55FE4F4080B0E058
:100110001AC05091AA024091A9023091A8022091E0
:10012000A7021A2F092F38D93DD0E0EAF1E000816B
:1001300003950083023030F0033020F0043010F0DB
:1001400001E00083B395B415F89418F332D900E0B8
:1001500010E00093850000938400B59A90E0880F2A
:10016000991FE4E6F2E0E80FF91F00B705FF13C09E
:1001700019D0B5990BC0009184001091850020E240
:100180001032B8F300E00083218308C0009186009C
:100190001091870001C001E0008311830CD902D0C7
:1001A000E5E0A7C90091AB020FBF08950AD000E0B7
:1001B000E4E6F2E0048F058FE0D28991089501D042
:1001C000FCCF8A9380E003C0082FE3D0839588D0CA
:1001D000D8F3089500E000939C0204E000937602B7
:1001E00004E10093790205E000937A0200E00093B5
:1001F000780204E10093770201E00093750203E0C6
:1002000000937B02D6D200E0E4E6F2E0008F018F9B
:10021000089563D9442490E0A4E6B2E0FD01428E43
:10022000438E448D558D9801241B350B048F158FFB
:10023000068D178D020F131F068F178F05C0085CE0
:100240001040068F178F9395068D178D083C140567
:10025000B0F700919D02002341F0091718F4409275
:100260009D0203C0091B00939D02EFD2FD01008D8A
:10027000118D0030140511F0F801099580E004C0DB
:100280008C012CD1402A83952BD0D0F3442021F02F
:10029000FD01038D0160038F00E00093740280E094
:1002A00018C0482F3CD0F801EC57FD4F0081087171
:1002B00079F0282F269526952695482F477001E03E
:1002C00092D830E0FD01E20FF31F1089102B108B44
:1002D000839506D030F3FD01028D138DE5E009C949
:1002E00000919C0280170895702F612F40919C020D
:1002F00016D0E4E8F2E0E00DF11D23836770660F8D
:10030000660F660F6483758304810C7F3370032B43
:100310000483ECE9F2E0008103950083089550E046
:1003200006E010E06AC8DAD8602F20E030E0402F05
:10033000F6DFA4E8B2E0A00DB11DFD0155810381F7
:1003400010E0409175026FD8802F043008F484E0EB
:1003500000919C026017D0F4052FF1D19801082F6D
:100360000695069510E090E0081B10400217130751
:1003700024F4FD0104810B7F048381959040821752
:10038000930724F0FD010481046004838901E4E003
:10039000B1C88A93802F08D0482F45D001E0008350
:1003A0000FE001838991089599D83CD0058112E02E
:1003B0001083AEE7B2E01C9112601C9310E0128330
:1003C00020E8F801EC57FD4F228F79C087D8C4D1BF
:1003D000E4E6F2E0E20FF31FA4E6B2E0A20FB31FDF
:1003E0001A3018F00D911C9111C06ED02D913C91D6
:1003F00011972017310718F40150104007C02D91B4
:100400003C910217130718F40F5F1F4F60D057C0BD
:1004100081D120812360208305D000E1008300E0AA
:1004200001830895402F82D1E4E8F2E0E00DF11D50
:10043000089554D8212F402F50E0440F551FFA0142
:10044000EC59FD4F60817181E4E6F2E0E40FF51FA5
:1004500010E0A4E8B2E0A00FB11F36D006171707CE
:1004600080F45A960C91020F0C93102F5A9700911A
:100470007A020058101718F124D00F5F1F4F27D0B1
:100480001EC06017710780F45A960C91021B0C93E2
:1004900000E810917902011B1C915A97011778F01E
:1004A00010D001501040EBCFFD01028D013810F04B
:1004B0000A95028F028D003810F40395028FE4E054
:1004C00019C800E85A960C93008511850895008795
:1004D000118720D10081086000830895F8D7902EFD
:1004E000412EAA2455241FDFC801492D1FD1A4E89D
:1004F000B2E0A00DB11DFD0103814481437043951D
:1005000077D7023008F402E06380772410E0601AA5
:10051000710A0C910A9571F00A95E1F00250A9F167
:10052000045009F4AAC0085009F47FC0005109F42E
:10053000B6C0D3C0EBD002600183FD0111810581FB
:1005400045DFFD0101810A95018311F4092D2CDF9E
:10055000CAD0C3C0048102FF06C0092D02D1502EAB
:10056000D6D00061B9C0CAD020F004E00C93A282BA
:10057000B2C0442009F4B1C000919D02002309F0EB
:10058000ACC0142D058155DFA8C0B8D008F44AC00E
:10059000A7D003950283448008E340224694469402
:1005A000469499F1882406C00081003139F1083061
:1005B00029F1839400919C02801628F58914C9F3CF
:1005C000482DB4D024E8622E22E0722E600C711CFB
:1005D000F30104810873069506950695041549F7FD
:1005E000082DA1DEFD012381AC01421B5040F30127
:1005F0002381021B104040175107B4F6FD015282BF
:10060000AA24A394D6CFAA2039F40091760200231D
:1006100019F07CD0086001836BD008F45EC0092D0E
:10062000F7DE5BC0092DC0DE58C0048102FF08C0A0
:1006300010E8092D96D0502E6AD00061018388CF32
:1006400063D00615170520F408E00C936AD0F6CFA6
:1006500064D04ED010F403950283009178020023F9
:1006600009F476CF1181101718F4012F040DE6CF8D
:10067000092D8FDE4BD00260E1CF32D0002391F202
:1006800043D06016710620F400E10C9346D002C0FE
:1006900048D00183FD0102810A9502831EC0258195
:1006A00004E812E0020F1A1DF801228D2395228F13
:1006B000FD012481F801028D22FD05C007FFB2CFA4
:1006C00000E10C930AC010917B02011720F0092D64
:1006D00060DE539445CF25D00183052DEBE003C7A1
:1006E00002D0028108950091770200939D0208953F
:1006F000FD010281109176020117089505D0FD01D8
:1007000023810217104008958C0114C0539402D025
:1007100001810895EEE7F2E00895FCDF00810160B9
:10072000DBCE5394F7DF01810460089550E006E0CA
:1007300010E063C6112312F400E010E008950CD01D
:10074000F901EC59FD4FC0DEF901EC59FD4F208154
:100750003181021B130B0895202F30E0220F331F2D
:100760000895BCD6212F5EDEA581B0E0A256BD4F14
:100770002C9300E2008301E0A2CE01E00093A001EF
:1007800000E00093A2020093A3020093A40200934E
:10079000A5020093A6020AEF13E016D04091A6022C
:1007A0003091A5022091A4021091A2020091A3020F
:1007B000ADC500E020E4F0E0E02FEF55FE4F2083D0
:1007C00003950430B8F3089589D6D80180E00CC0B1
:1007D000482F50E006E010E010D6F801EC57FD4F2E
:1007E0000581FD010995839500919C02801780F396
:1007F000E4E080C6602F637006950695202F30E0F8
:10080000220FF901E05AFD4F19D01081102B1083EF
:10081000F901EE59FD4F12D01181102B1183660F93
:10082000660FE0E5F2E0E60FF31F2281E381F0E0DE
:10083000EE55FD4F0081022B00830895408101E0B9
:1008400010E0EBD5E2EAF2E0089543D60FB700934B
:10085000AB02A0917B00B0B7409080005090810027
:1008600066B28091840090918500709064008090C1
:100870007C0000E400937B0004E000BF00E00093F4
:10088000800001E800938100F8940DE514E09CDFFE
:10089000A0937B00B0BF409280005092810066BA66
:1008A00090938500809384007092640080927C0015
:1008B0000091AB020FBFE9E018C6202F237030E093
:1008C000220F220FE0E5F2E0E20FF31F4081518199
:1008D0004030530719F01281FA0109950091AB02DB
:1008E0000FBF08950093BA000FEF0093BB0004E020
:1008F00039C01091BC00012F017008950091BC0017
:1009000000FDFCCF0091C6010895E8D5422F20914B
:10091000BC0020FDFCCFB5D040A320E00CC0D80126
:10092000A20FB31F5C91DF01A20FB31F5C9323954D
:100930002417A8F32395241718F420E030E0F8CF0B
:1009400000E002A308EF01A30CD0E4E0D3C50091BE
:10095000BC0000FDFCCF00E00093C70108EF00934E
:10096000C60105EC0093BC0008953091BC0030FD39
:10097000FCCF3091C70130FFFCCF40E050E009C010
:10098000FA01E455FD4F3081F801E40FF51F308383
:1009900043954217A8F378D00D7F02A3ADCF009105
:1009A000C901013218F000E20093C9010091C901A8
:1009B0000895BA93AA93FA93EA933A932A931A93CF
:1009C0000A933FB70091B900005809F446C000519E
:1009D00009F443C0005189F1085049F0005169F011
:1009E000085019F1005A91F1005169F145C049D000
:1009F00000E004A302A1086002A343D004A110E018
:100A0000DF01A00FB11F0C910093BB0004A103955F
:100A100004A305ECA7DF3FBF0991199129913991F2
:100A2000E991F991A991B99118952BD004A110A140
:100A3000011729F402A1016002A304E0EBCF0091A9
:100A4000B90001A3FACF20D0046002A31DD0026038
:100A500002A300E004A303A3DCCF13D02091BB00CA
:100A6000A3A1B0E0A455BD4F2C9303A1039503A30C
:100A700002A1016002A3CDCF0091B9000093C6018D
:100A8000DCCFE5EAF1E00895E5EAF1E002A108959E
:100A90008A93802F5CDF082F8991089500E00895E4
:100AA0002197188326D0D9D0219608958A9321972B
:100AB0001091F9011017C9F00093F9010023389A39
:100AC00099F0409A80E002E0809FEAECF1E0E00DCE
:100AD000F11D01810DD00081C0D08395813198F343
:100AE0000091EC015ED001C0409821968991089553
:100AF000088311E09E010895F1D42497812F0730D7
:100B0000E0F510E0AAECB1E0A00FB11FFD0103A1D8
:100B1000081799F183A3082F0F70B1F001E0C6DF29
:100B200001E00B83E6DF2D5F2FD08883E2DF28D042
:100B30000983DFDF2F5F28D00091EC010A83D9DF22
:100B40002E5F3F4F00E218C000E021D013A11F70BC
:100B500031F403950730C8F300E0A8DF0EC001E0D0
:100B60000A83C7DF2E5F10D000EE0983C2DF2F5F3C
:100B70003F4F06D0BDDF0FE770D02496E4E0BAC443
:100B8000FD0102A56AD08ACF3F4F0FE766C0F0E0B3
:100B9000E02FE653FE4F089521970093EC0101D01A
:100BA00083CF088311E09E0100E257C08A9321970A
:100BB000802F00E00BD0882311F002E001C00CE090
:100BC00097DF0DE24AD001E001D08FCF088311E01A
:100BD0009E0100E342C025D006D0399A419800C05A
:100BE00023D000C0089500C03A9A429AFACF399AA9
:100BF0004198F9DF16D0F5CF17D0102F08E017FB7A
:100C0000399A16F4419A01C04198EDDF110F0CD0CA
:100C10000A95A9F700C005D0E7DF06B105D002703C
:100C20000895399A419A08953A9A4298089555D468
:100C3000402E812F922FDA01CEDF440C042DDCDF11
:100C4000442403C00D91D8DF43944816D8F3992368
:100C500009F4CDDF00C0E5E04CC46097103108F026
:100C60001FE0088300E050E009C0F901E00FF51F24
:100C70006081FE01E00FF51F618303950117A8F362
:100C8000AE0120E0139504E7D2DF00E060960895FE
:100C9000F89410E81093610000936100789408952F
:100CA0001CD4DBD1BBD1BDD100E0ECE7F2E06DD1CB
:100CB0007894A8E1B2E001E0009348028CEC92E065
:100CC00001C00ED2FC012081318189010F5F1F4FCD
:100CD000008311832130304118F0A3D100E054D1BA
:100CE00000914802033091F457985F98028100FF09
:100CF00002C0F6D101C001D200914F02002311F3CE
:100D000000E000934F0240D138D1DCCF00914F0278
:100D1000002309F44AC000E000934F0236D1048159
:100D2000002311F00A9504830581002311F00A9530
:100D300005830681002311F00A950683018500FFD3
:100D400003C0078103950783018501FF03C0008568
:100D50000395008712D100FBEEF4109174021093FA
:100D60004E02012F1091CE02112329F020913E0254
:100D7000302F322379F4067069F0112311F4579A59
:100D80005F9806D100FD11C000E0078301850D7F4B
:100D900001600AC057985F98FBD000FF06C000E0D2
:100DA000008701850E7F0260018700914502148152
:100DB0001123F1F0103120F02EE1422E411A01C032
:100DC000412EFD0114A912FF07C01FE01419109352
:100DD000D10210E01093D002C8D000913F02102F32
:100DE0000F70400E00E1401660F00FE0402E09C089
:100DF0001581112361F02FE0422E411AB6D01091D7
:100E00003F02107F0FE040221429E1D124C0018568
:100E100002FF0DC078D202FD0AC0D4D1002311F028
:100E200001E0C4DED2D19ED0B3D00B7F01876BD25C
:100E300002FF11C00091CE02002369F00091D2029E
:100E4000002349F404A90B7F04AB0FE00093D00208
:100E500000E00093D10200E04A9901E0FC0100FBB0
:100E6000028100F9028300914802002311F411E08D
:100E700001C010E002810D7F110F012B028323813D
:100E80002017A9F0002319F486D06CD00BC0109164
:100E90003F02222309F4128720FD04C000FF02C094
:100EA0007AD095D175D00C7F0187028103830091A0
:100EB0004B020130B1F40281002351F1018500FFA2
:100EC00027C00091D302013318F11DD202FD20C0CA
:100ED0006DD004A93ED00FE00093D10200E0009352
:100EE000D00200914B02002399F40091CE0200231E
:100EF00079F04ED001FF28C006D202FD09C048D0CB
:100F000002FF06C053D001850D7F0187FCD121D09F
:100F10003FD001FF19C00481002399F4F4D10B7F65
:100F200004AB00E00093D2020093D1020EE10093E3
:100F3000D00248D1002311F000E038DE29D004604F
:100F4000018701850D7F0187028100FDBACED5D0D2
:100F5000B9CE046004AB00EF0093D20202A903955E
:100F600002AB08950091450217CE142D110F110FF9
:100F7000010F003408F00FE30FCEFD0102A113A111
:100F800048D910FBD6F30895FC010083018308952E
:100F9000FC0101850895FD0104A90B7F04ABFC0150
:100FA00001850B7F018700E005830895579A5F98BC
:100FB00007E813E101501040E9F700C00000089570
:100FC000E1EAF1E000E30083038300913D02018345
:100FD0000283E5E7F2E003E0018304E1048305E036
:100FE000058300E0038304E1028301E0008303E062
:100FF0000683089533E028E010E000E009D001E026
:1010000007D002E071D933E028E010E003E06CC9BA
:101010006BD933E020913C0210E00895EBDFC6D895
:10102000CFCF00E000937000009118020295007F7E
:101030000093B30000917000026000937000009173
:10104000B10005600093B10003E00093B00000918F
:10105000B100077F0093B100089502E019DE05B7E3
:10106000006105BF3A98429803EC19E00150104026
:10107000E9F700C00000329903C000E50093460282
:10108000529807E82FDC63DC01E010CD1A930A9335
:101090001FB703B70E7F03BF1FBF099119911895A2
:1010A000FA93EA934A933A932A931A930A934FB77F
:1010B00001E000934F020091180210911902E8E13B
:1010C000F2E022A133A1200F311F22A333A34FBF8F
:1010D00009911991299139914991E991F9911895BD
:1010E00000E00093690003B7016003BF07E003BF9E
:1010F000889503B70E7F03BF0895FBDB002391F4AF
:101100000091C70100FF0CC001FF06C020E20AE108
:1011100012E02BDC08D05ED0ECDB002319F417CCF6
:10112000EDDBB6DC0895DBD13ADC80911A028093C6
:1011300047028F3F19F4002309F442C0A0911B021B
:10114000082FE0E4F0E07EC1AF70A06E1A2FF0E04F
:101150008F70E82FE45FFD4F0081CEDC00914702E5
:1011600010E00F70E8E1F2E0E00FF11FA7A328C044
:101170000A2F12DDA093450223C024D00A1701F1E3
:1011800024D00A2F13DDA09344021AC0A093480272
:1011900017C0A0933E0214C0A0933C0202C0A093CB
:1011A0003D0218D83BDF0BD80BC0A0934B0200E0E8
:1011B00000934A0205C0803818F41A2F082F70DCFB
:1011C000E3E099C100914402089510913F0200911B
:1011D0000C0292CC81D12297E2DB023008F080C071
:1011E000A8E1B2E02D0102E0400E00E0501E91E0C7
:1011F00080914702082FE4E7F0E024C100914D02FE
:101200006AC0082F10E00F70FD01E00FF11F07A169
:1012100062C0009145025FC0D5DF5DC0009146020B
:101220005AC00DE458C0EFE3F0E0049154C00091BF
:10123000480251C0009174024EC000914E020093CA
:101240001A0261D00E7F09C00091490200931A0270
:1012500000E00093490257D00D7F04AB3EC00091DF
:101260004A0239C000914B0236C00CE6402E02E023
:10127000502E80E090E03FD08830E8F304E6402E26
:1012800002E0502E01C037D08031E8F3092F4BD84F
:1012900008831983288110E02BD0298129D09395C8
:1012A0009430A0F39AE1209174021DD02091740231
:1012B0002170839518D012962D010FC000913E0227
:1012C0000AC000913C0207C000913D0204C0803872
:1012D00020F4082FE3DB00931A02292F820115DB8B
:1012E0002296E6E005C1FD01E80FF11F2283089573
:1012F000FADF83950895F20101912F01FD01E80FB6
:10130000F91F0283F6CFFD0104A908956F939F93FF
:1013100068B1902F9095692368B96BB1912F909522
:1013200069236BB9902F67B1692B67B96AB1912FA7
:10133000692B6AB9922F909565B1692365B964B13B
:10134000922F692B64B95C98549A9F916F9108957C
:101350006F939F936AB16093A9026093A70267B1EC
:101360006093AA026093A802602F60959091A702F3
:1013700096239093A702612F60959091A8029623DF
:101380009093A80200270000000000006091A802CE
:1013900067B99F916F9108952AB903B900000000C1
:1013A000000057B900000000000037B94AB903B97E
:1013B00008955C9A08955C986091AA0267B900004C
:1013C00000000000089500008895FECF0FE90DBFD2
:1013D00001E00EBFC0E4D1E096D0002309F0A3D015
:1013E0005FDCF1DFF0CF4A9512F0000FE1F70895CE
:1013F0004A9512F00695E1F7089500241124003073
:10140000010741F01695079510F4040E151E440FC0
:10141000551FF5CF002D112D08954A951AF0000F94
:10142000111FFBCF08954A951AF015950795FBCF2C
:1014300008957591659155914591159011FA2590F2
:1014400035900895F9DF041B10E003C0F4DF041B9E
:10145000150B20E030E005C0ECDF041B150B260B5C
:10146000370BB8F010FC17C045910590E00FF11F45
:101470000417100540E02407340758F436F40491AB
:101480000024F101E01BF0090994E00FF11F259001
:101490003590F101099411F4D6F7F1CF31960EF0A1
:1014A000319650E060E070E045914B3F48F089F3A1
:1014B0004F3F29F04E3F11F075916591559145913F
:1014C000041B150B260B370B39F318F3E7CFAA9241
:1014D0009A928A927A926A925A924A92BA93AA936A
:1014E0009A938A930895AA84998488847F806E80D1
:1014F0005D804C80BB81AA8199818881F0E0EC0FEE
:10150000FD1FEF01089501E0089520E006D0E9F7FE
:101510000895259102D0E9F708952D9301501040C8
:10152000202F212B089588EB90E0FC010591149168
:10153000FC013296A591B491FC0134962591349129
:10154000422F432B19F0F901E4DF01C0DEDF0696DC
:1015500010E0843C910748F308950140404040006A
:10156000000000000000000000000000000000007B
:10157000000000000000000000000000000000006B
:10158000F80000007F000108113F20007F010100EA
:1015900007000D00130019001E007F0021482D00D8
:1015A0007F002D0430010000000000000000010752
:1015B0000D131900000000000000000000000000F2
:1015C0000000000000000301040002000000000011
:1015D00000000C00000000000000000000000000FF
:1015E00000000000000000000000000000000000FB
:1015F0000000000000000A40080000000000000099
:1016000042000000000000000000620020026200B2
:101610001002620080026200400203080308FFFF1C
:10162000FFFFFFFFFFFFFFFFFFFFFFFFFFFFFFFFCA
:10163000FFFFFFFFFFFFFFFFFFFFFFFFFFFFFFFFBA
:10164000FFFFFFFFFFFFFFFFFFFFFFFFFFFFFFFFAA
:10165000FFFFFFFFFFFFFFFFFFFFFFFFFFFFFFFF9A
:101BF000FFFFFFFFFFFFFFFFFFFFFFFFFFFF23D4FC
:0400000300000000F9
:00000001FF
