:020000020000FC
:10000000DBCAA7C2FFFFFFFFFFFFFFFFFFFFFFFFEE
:10001000FFFFFFFFFFFF9EC2FFFFFFFFFFFFFFFF8E
:10002000FFFFFFFFFFFFFFFFFFFFFFFFFFFFFFFFE0
:100030006EC0C700010200006100A001E816FF0CBD
:100040000093BA000FEF0093BB0004E039C0109199
:10005000BC00012F017008950091BC0000FDFCCF91
:100060000091C101089501DB422F2091BC0020FDC9
:10007000FCCFB5D040A320E00CC0D801A20FB31F25
:100080005C91DF01A20FB31F5C9323952417A8F3A3
:100090002395241718F420E030E0F8CF00E002A305
:1000A00008EF01A30CD0E4E0ECCA0091BC0000FD15
:1000B000FCCF00E00093C20108EF0093C10105EC02
:1000C0000093BC0008953091BC0030FDFCCF30910E
:1000D000C20130FFFCCF40E050E009C0FA01EF5F01
:1000E000FD4F3081F801E40FF51F3083439542172F
:1000F000A8F378D00D7F02A3ADCF0091C4010132E7
:1001000018F000E20093C4010091C4010895BA936D
:10011000AA93FA93EA933A932A931A930A933FB7CE
:100120000091B900005809F446C0005109F443C0D9
:10013000005189F1085049F0005169F0085019F157
:10014000005A91F1005169F145C049D000E004A383
:1001500002A1086002A343D004A110E0DF01A00FB8
:10016000B11F0C910093BB0004A1039504A305ECFF
:10017000A7DF3FBF0991199129913991E991F9912F
:10018000A991B99118952BD004A110A1011729F4B8
:1001900002A1016002A304E0EBCF0091B90001A32A
:1001A000FACF20D0046002A31DD0026002A300E0B9
:1001B00004A303A3DCCF13D02091BB00A3A1B0E024
:1001C000AF5FBD4F2C9303A1039503A302A1016070
:1001D00002A3CDCF0091B9000093C101DCCFE0EACA
:1001E000F1E00895E0EAF1E002A108958A93802FFA
:1001F0005CDF082F8991089525D006D0399A41985F
:1002000000C023D000C0089500C03A9A429AFACFA5
:10021000399A4198F9DF16D0F5CF17D0102F08E0A2
:1002200017FB399A16F4419A01C04198EDDF110F7E
:100230000CD00A95A9F700C005D0E7DF06B105D0BC
:1002400002700895399A419A08953A9A4298089509
:1002500040E0F8DF18E0D9DF440F31994395F5DF2E
:1002600000C01A95C1F70023399A11F0419801C0D6
:10027000419ACBDFCADFE9DFE5DFF901408308956A
:10028000F3D9402E812F922FDA01B6DF440C042DD2
:10029000C4DF442403C00D91C0DF43944816D8F353
:1002A000992309F4B5DF00C0E5E0EAC9DED9B02F33
:1002B000A12FC901A1DFBB0FB1600B2FAEDFB0E0F2
:1002C00004C001E0C5DF0196B395BA1760F42B2F87
:1002D00030E00A2F10E001501040201731079C0138
:1002E00081F700E0EFCF94DFE4E0CBC9BFD92197DD
:1002F0000883C901A12FAE0121E011E005E4C0DFB0
:100300009C011A2F05E4D2DF00E02196E3E0BAC990
:100310006097103108F01FE0088300E050E009C04A
:10032000F901E00FF51F6081FE01E00FF51F618309
:1003300003950117A8F3AE0120E0139505E4A0DFB3
:1003400000E06096089593D980E090E009D0918B09
:1003500010E004857FD283958530C0F3E2E093C935
:10036000E5ECF1E0E80FF91F08952B3008F02AE0E2
:1003700060E045EC51E070E009C0F801E60FF71FBE
:100380003081FB01EB53FE4F308363956217A8F376
:100390000FEF0093CE01FA0142875387778B768B5C
:1003A000D2CF0AC009E100935302008104600083A8
:1003B0008DD00D7F0083E6D0009156020023C1F15D
:1003C00000E0009356027FD019F00A950093530283
:1003D000E4E5F2E00081118124D310FBCEF300FBB1
:1003E000EEF400916F020093500214E0019F01E0CF
:1003F000101659F002E0101641F057985F9866D039
:1004000000FF16C00E7F008313C059D011F4579A15
:100410005F98009121020D7F016008C057985F9896
:100420000091210200FF04C00E7F026000932102B0
:100430000091210202FF10C046D011F014E009C063
:10044000009147023CD200914702002329F4109109
:1004500042020091D101FED100E04A9901E0E1E5BC
:10046000F2E000FB008100F9008300914B020023C1
:1004700011F411E001C010E000810D7F110F012B7C
:1004800000830091520210915102011751F017D0D0
:1004900031F000E00093530219D00B7F00831093DA
:1004A00052020DD009F487CF11D001FF84CF0BD0B9
:1004B00009F478CF579A5F98EDE4F2E076CF009197
:1004C00051020023089500915302FBCFE1E2F2E0D4
:1004D00000810895F89410E8109361000093610082
:1004E000789408952BD01DD065D208EB1BE021D065
:1004F00000916F00026000936F0000918100026024
:10050000009381000091810008600093810000E069
:10051000E7E7F2E000830183789401E000934B0267
:1005200040CF60E057E043E03FE020E013E000E030
:1005300009C61093890000938800089502E0CADF7D
:1005400005B7006105BF529807E87ADDAEDD01E02E
:100550007AC11895FA93EA932A931A930A932FB7BC
:1005600001E000935602E4E5F2E000811181045FAE
:100570001F4F008311832FBF099119912991E99190
:10058000F991189564DD002391F40091C20100FFF8
:100590000CC001FF06C020E202E212E094DD08D0A8
:1005A0005DD055DD002319F480CD56DD1FDE0895A2
:1005B0008A93A3DD1091220210934A0220914A02ED
:1005C0002F3F19F4002309F447C0809123021059EA
:1005D000155070F0F9F01A9511F1195029F11450D5
:1005E00071F11350C9F1175581F11A9559F12FC0C6
:1005F000182FF0E02F70E22FEF52FE4F00812AD12A
:1006000000914A0210E00F70E2E2F2E0E00FF11F09
:1006100080A322C0082F4DD1809348021DC0082F0F
:100620004ED18093470218C080934F020A95202F25
:1006300003E212E09ADE01E0009349020DC08093CC
:100640004B020AC0CDD16DDFB5D1BDD105C02A3076
:1006500018F4182F022FECD08991089502D8229710
:100660004CDD023008F078C0A2E2B2E02D0191E04A
:1006700000914A02102F105A79F01A9579F0135010
:1006800089F01A9591F01A9539F11350B9F0175471
:1006900009F05AC004E55BC00DE459C0EFE3F0E097
:1006A000049155C000916E0252C000915002009317
:1006B0002202FD0103A50E7F03A74BC000914C024F
:1006C0000093220200E000934C02FD0103A50D7F80
:1006D00003A700E004A73DC00EE512E0280128E0D2
:1006E000420E20E0521E80E090E0F20121912F01A5
:1006F000FC0137D083958830C0F3280106C0F20191
:1007000001912F01F301008383953D01680E791E4D
:100710008031A8F300E0F4D1088319830881F30144
:10072000008383950981E82FF0E0EE5DFD4F0083A3
:10073000839594E120916F0212D020916E02217076
:1007400083950DD02D0105C00A3018F46BD00093AD
:100750002202292F820187DC2296E8E08EC7E82F4B
:10076000F0E0EE5DFD4F208308956F939F9368B195
:10077000902F9095692368B96BB1912F909569235B
:100780006BB9902F67B1692B67B96AB1912F692B4B
:100790006AB9922F909565B1692365B964B1922FBA
:1007A000692B64B95C98549A9F916F9108956F93E7
:1007B0009F936AB16093AC026093AA0267B16093A1
:1007C000AD026093AB02602F60959091AA029623D0
:1007D0009093AA02612F60959091AB02962390931B
:1007E000AB0200270000000000006091AB0267B977
:1007F0009F916F9108952AB903B90000000000008D
:1008000057B900000000000037B94AB903B908958C
:100810005C9A08955C986091AD0267B90000000091
:1008200000000895219711E09E0160DD088105C058
:100830002197188311E09E016BDD219608950061D8
:1008400055CD006165CD389A409A1BE021EF31E02B
:1008500000E0F7CF0CD72397C80110E0E7E5F2E0FE
:10086000E00FF11F0081091709F1908313E09E0149
:1008700000E0E5DF20E0482F01E010E0C4D6FE01F3
:1008800030E0E20FF31F90FB26F41081102B108351
:1008900005C0102F10953081312330839695239514
:1008A000233068F313E09E0100E0CBDF2396E2E003
:1008B000EAC62197088311E09E0108E0BDCF00231E
:1008C00011F016E001C010E002E0C4CFCDD6C8019F
:1008D000202F26952695F894009164000E7F0093B2
:1008E000640030E0220FEFEEF1E0E20FF31F008131
:1008F00000937C000091640001600093640011810A
:10090000F901E351FE4F018152DFA02FF0E0E82F03
:10091000E350FE4F4080B0E01AC05091AD024091CC
:10092000AC023091AB022091AA021A2F092F63DF8B
:100930003DD0ECEFF1E0008103950083023030F010
:10094000033020F0043010F001E00083B395B415BB
:10095000F89418F35DDF00E010E000938500009349
:100960008400B59A90E0880F991FEEE5F2E0E80F59
:10097000F91F00B705FF13C019D0B5990BC000913E
:1009800084001091850020E21032B8F300E000836B
:10099000218308C0009186001091870001C001E00A
:1009A0000083118337DF02D0E5E06AC60091AE0212
:1009B0000FBF08950AD000E0EEE5F2E0058F068F44
:1009C000FFD28991089501D0FCCF8A9380E003C0C3
:1009D000082FD6D0839500919F028017C8F3089501
:1009E00000E000939F020093C70204E000937102AD
:1009F00004E10093740205E00093750200E00093A7
:100A0000730204E10093720201E00093700203E0BC
:100A100000937602F1D200E0EEE5F2E0018F028F62
:100A2000089522D6442490E0AEE5B2E0FD01438E65
:100A3000448E458D568D9801241B350B058F168FDE
:100A4000078D10A1020F131F078F10A305C0085CAC
:100A50001040078F10A39395078D10A1083C140533
:100A6000B0F70091A002002341F0091718F440925A
:100A7000A00203C0091B0093A00217D3FD01018D42
:100A8000128D0030140511F0F801099580E004C0C2
:100A90008C0145D1402A83952DD08017C8F344207E
:100AA00021F0FD01048D0160048F00E000936E02CF
:100AB00080E018C0082F21D0F801E158FD4F0081D7
:100AC000087179F0282F269526952695482F47708E
:100AD00001E07FD530E0FD01E20FF31F1089102BFC
:100AE000108B839507D0801728F3FD01038D148D9B
:100AF000E5E0C6C500919F02089510E043E083C57C
:100B0000B4D5302F60E070E0F8DFAFE7B2E0A00FBF
:100B1000B11FFD015581038110E0409170027FD526
:100B2000802F043008F484E0E5DF301730F50481CD
:100B3000007CD9F4052F26D2B801082F069506951A
:100B400010E090E0081B10400617170724F4FD0181
:100B500004810B7F048381959040861797076CF082
:100B6000FD0104810460048308C004810B7F0483B9
:100B7000282F152F032F29D3B8018B01E4E081C55D
:100B80008A93802F08D0082F62D001E000830FE005
:100B900001838991089569D55AD01581368102E083
:100BA0000083A9E7B2E00C9102600C9300E002839D
:100BB000012F07C020E8F0E0E02FE158FD4F22A30D
:100BC00003953017B8F731C050D5D1D116969C9106
:100BD0008E91159706C011961C911197082F04D07D
:100BE00083959817C0F721C040D5D9D1EEE5F2E042
:100BF000E20FF31FAEE5B2E0A20FB31F1A3018F0F8
:100C00000D911C9111C07ED02D913C911197201710
:100C1000310718F40150104007C02D913C91021784
:100C2000130718F40F5F1F4F70D0E4E02AC5202F80
:100C300072D003600083022F0AD000E1008300E03D
:100C400001830481007C11F0022F3FD3089565D108
:100C5000EFE7F2E0E00FF11F089508D5812FF7DFED
:100C6000A681958104C0182F092F05D09395A91747
:100C7000D0F7E3E007C5F9D4212F402F50E0440F0F
:100C8000551FFA01E25AFD4F60817181EEE5F2E0F5
:100C9000E40FF51F10E06CD135D00617170780F46C
:100CA00092960C91020F0C93102F9297009175025F
:100CB0000058101718F123D00F5F1F4F26D01EC009
:100CC0006017710780F492960C91021B0C9300E858
:100CD00010917402011B1C919297011778F00FD0AC
:100CE00001501040EBCFFD0102A1013810F00A9530
:100CF00002A302A1003810F4039502A396CF00E8E6
:100D000092960C930085118508950087118703D072
:100D1000086000830895E9E7F2E0008108959ED419
:100D2000902E412EAA245524EBDEC801092D1FD197
:100D3000FD01038144814370439550D4023008F48F
:100D400002E06380772410E0601A710A0C910A9522
:100D500071F00A95C9F0025089F1045009F4AAC053
:100D6000085009F47BC0005109F4B6C0D3C0F1D0DB
:100D70000183092D29DFFD0101810A95018311F409
:100D8000092D09DFD0D0C6C0048102FF05C0092D9E
:100D90000BD1502EDBD0BDC0CBD020F004E00C93A3
:100DA000A282B6C0442009F4B5C00091A00200237D
:100DB00009F0B0C0142D092D50DFACC0B9D008F433
:100DC0004AC0AED003950283448008E34022469493
:100DD0004694469499F1882406C00081003139F187
:100DE000083029F1839400919F02801628F5891418
:100DF000C9F3082D92D02FE7622E22E0722E600EEA
:100E0000711EF30104810873069506950695041575
:100E100049F7082D75DEFD012381AC01421B5040CE
:100E2000F3012381021B104040175107B4F6FD0166
:100E30005282AA24A394D6CFAA2039F40091710239
:100E4000002319F089D0086001837AD008F462C0C9
:100E5000092DEDDE5FC0092D9EDE5CC0048102FF1E
:100E600007C010E8092DA0D0502E70D001838ACF82
:100E700065D00615170520F408E00C9375D0F6CF61
:100E800070D05ED010F4039502830481007C11F0D1
:100E9000092DE8D100917302002309F473CFFD01FD
:100EA0001181101718F4012F040DE0CF092D68DE11
:100EB00050D0DCCF35D0002371F240D060167106DF
:100EC00020F400E10C934DD002C04ED00183FD010F
:100ED00002810A9502831EC025810FE712E0020FEE
:100EE0001A1DF80122A1239522A3FD012481F801F6
:100EF00002A122FD05C007FFAECF00E10C930AC09E
:100F000010917602011720F0092D3ADE539442CF5A
:100F10002BD00183052DEBE0ADC310E043E073C39C
:100F200002D002810895009172020093A0020895F8
:100F300005D0FD0123810217104008958C011DC0CA
:100F4000FD010281109171020117089506D0006120
:100F5000089502D0026008955394E9E7F2E0018118
:100F60000895D9DE0160D5CEF7DF04600895D5DF9E
:100F7000AFE7B2E0A00FB11F0895112312F400E013
:100F800010E008950CD0F901E25AFD4FBBDEF901E3
:100F9000E25AFD4F20813181021B130B0895202F4F
:100FA00030E0220F331F089560D3212F50DEA5813A
:100FB000B0E0AF55BD4F2C9300E2008301E035CE89
:100FC00001E00093FC0100E00093A5020093A6025B
:100FD0000093A7020093A8020093A9020AE218E076
:100FE00016D04091A9023091A8022091A702109139
:100FF000A5020091A602B9CB00E020E4F0E0E02FCA
:10100000E350FE4F208303950430B8F308952CD3AA
:10101000C801A0E007C00B2FFC010995B3954B1642
:10102000D0F7A39500919F02A01790F40A2F10E02B
:1010300043E0E9D2EFE7F2E0E00FF11F0581148110
:10104000107C19F4FC010995ECCF4680B02FE7CF56
:10105000E5E016C3602F637006950695202F30E0FB
:10106000220FF901E351FE4F19D01081102B10838C
:10107000F901E151FE4F12D01181102B1183660F3F
:10108000660FEDEDF1E0E60FF31F2281E381F0E062
:10109000EB55FD4F0081022B00830895408101E054
:1010A00010E0B1D2E5EAF2E00895DAD20FB700938A
:1010B000AE02A0917B00B0B74090800050908100BC
:1010C00066B2809184009091850070906400809059
:1010D0007C0000E400937B0004E000BF00E000938C
:1010E000800001E800938100F8940DE818E08FDF9C
:1010F000A0937B00B0BF409280005092810066BAFE
:1011000090938500809384007092640080927C00AC
:101110000091AE020FBFE9E0AFC2202F237030E094
:10112000220F220FEDEDF1E0E20FF31F408151811C
:101130004030530719F01281FA0109950091AE026F
:101140000FBF089570E008D000680483EFE9F2E073
:10115000008103950083089505D000919F02C5D0BA
:10116000048108950801232E342F00919F021ED27E
:10117000EFE7F2E017D2238200E004830091C70278
:1011800007831481177C2770220F220F220F122B46
:1011900014830582168214811C7F3370132B1483F1
:1011A00005D2EFEAF2E0FED15295507F550F6770FD
:1011B000562B508B772319F0052F0860008BEFEA30
:1011C000F2E0008D0395008F08954CD2312F822FCD
:1011D00044245524EBD1AFE7B2E0A00FB11FFD01CD
:1011E0006680932F0FC0092FCDDE282F30E0219588
:1011F000304068D024F0FD01248124602483400E17
:10120000511E9395691678F78201E7E037C22FD215
:1012100080E090E04395522F532B51F48FEF9FEFD6
:10122000442311F08FEF9FEFA3C04A95000F111FC9
:1012300017FB16F04423C9F737FB26F04395220F1E
:10124000331FFACF442381F397FB66F3880F991F6E
:101250004A950217130718F0021B130B01963695D7
:101260002795F0CF00D23CD028019FD1AFEAB2E061
:10127000A00FB11F21D069D09D01205F3F4F48D002
:101280001BD079D0FD010189128947E02089229580
:101290002F702695421BBDD190E0EEE5F2E0E80FFD
:1012A000F91F21890ED031F0018BE9E7F2E00081CE
:1012B00004600083E6E0E3C19D01205F3F4F8201AF
:1012C000089530E02017310708958A9309D0B801B6
:1012D0002FEB32E06AD1B5D08B010CD08991089503
:1012E000202F03D08781022FAFC060D1F801E158D1
:1012F000FD4F0895F90140814770018312834683B1
:10130000458340E0478346E07ED1038314830895FC
:10131000B80111231AF471956195704050E0452F82
:1013200000E410E076D10617170758F4F901078199
:10133000501710F40A9503C0063030F40395078364
:1013400008955395563058F3089591D1C801F90185
:101350004CD0801B910B008103FF0AC0813800E054
:10136000900714F09A9504C0803894070CF4939574
:101370008C01E2E088C179D1D9018C918770E5DFD9
:10138000FD012781013030E013075CF032D059D0E5
:10139000238334830C9103FF0FC014811F731483C4
:1013A0000BC011950195104024D0201B310B2383D5
:1013B00034830C9103FDF1CF9D0101811281C5DFC2
:1013C000FD0125817EDF1CF48683358309C02681DB
:1013D000219530400217130734F400E0068385831B
:1013E00004D001831283E4E04CC10381148146E000
:1013F00010C146E008D1422F0CD1238134810895D9
:101400001801F901BA012416350668F01AD00EEF5A
:101410001FEFE9D0200D311D4AE0E61BF70B8F01CD
:10142000F6DE14500895E40FF51F0EEF1FEFA10133
:10143000DAD0E00DF11D9F014AE0621973098B01BA
:10144000E6CE200F311F08950BD155246624AED06F
:101450002FE732E0F6DFAFEAB2E0F9010781A6D06C
:10146000A0D0408808E04022F90176808580872D51
:1014700088198395982D03C05082518293957916CF
:1014800088F0092F7FDD292F30E028193040220F06
:10149000331FFD01E20FF31F013015056CF30083CC
:1014A0001183ECCF2D913C91119791E009C0092F48
:1014B00075D00081118106DF10F4692E9801939593
:1014C0009817A8F3062D10E0000F111FAD01400F73
:1014D000511F662091F4442069F0082F5FD03297A5
:1014E00000811181FD01628173816017710748F4E9
:1014F000539407C000E010E004C0FA013297008165
:101500001181682F6A95661641F4442019F04D91B7
:101510005C9106C040E050E003C0FA014281538173
:10152000552011F0B82F01C0B62DBB0FBB0F68DFDF
:10153000A02FB10F833050F0442040E0282F30E03E
:1015400011F4215030401B2F62DED8011B2F1C7F6D
:1015500011F0AFEFB3E0442029F0B695A795B6950A
:10156000A79519C0A63600E0B00718F4A0E0B0E0D7
:1015700002C0A656B0408D0120E030E048E35FE9AC
:1015800060E070E052D0890116950795D8011130BE
:1015900010F0AFEFB0E08D01E9E06EC010E0000F99
:1015A000111FFD01E00FF11F0895082F10E043E027
:1015B0002AC000008895FECF0FE90DBF01E00EBFE5
:1015C000C0E4D1E067D0002309F074D08BD7F1DFFD
:1015D000F0CF4A9512F0000FE1F708954A9512F006
:1015E0000695E1F70895002411240030010741F029
:1015F0001695079510F4040E151E440F551FF5CFD0
:10160000002D112D08954A951AF0000F111FFBCFE0
:1016100008954A951AF016950795FBCF08954A95B7
:101620001AF015950795FBCF089500241124100199
:10163000E02FE12BE22BE32B71F0369527951795E0
:10164000079520F4040E151E261E371E440F551F45
:10165000661F771FEDCF800191010895AA929A929B
:101660008A927A926A925A924A92BA93AA939A93D7
:101670008A930895AA84998488847F806E805D808F
:101680004C80BB81AA8199818881F0E0EC0FFD1F1D
:10169000EF01089501E0089520E006D0E9F70895EC
:1016A000259102D0E9F708952D9301501040202F85
:1016B000212B089582E390E0FC0105911491FC0137
:1016C0003296A591B491FC01349625913491422F24
:1016D000432B19F0F901E4DF01C0DEDF069610E0CC
:1016E0008E33910748F308950000000000000000C9
:1016F00000000000000000000000000000000000EA
:10170000000000000000000000F8000000000000E1
:1017100000000000000000000002030104050000BA
:1017200000000000006604200266041002660480C7
:10173000026604400203080308000000449944665E
:1017400066FF0F000140404040FFFFFFFFFFFFFF2B
:10175000FFFFFFFFFFFFFFFFFFFFFFFFFFFFFFFF99
:10176000FFFFFFFFFFFFFFFFFFFFFFFFFFFFFFFF89
:10177000FFFFFFFFFFFFFFFFFFFFFFFFFFFFFFFF79
:10178000FFFFFFFFFFFFFFFFFFFFFFFFFFFFFFFF69
:10179000FFFFFFFFFFFFFFFFFFFFFFFFFFFFFFFF59
:1017A000FFFFFFFFFFFFFFFFFFFFFFFFFFFFFFFF49
:1017B000FFFFFFFFFFFFFFFFFFFFFFFFFFFFFFFF39
:1017C000FFFFFFFFFFFFFFFFFFFFFFFFFFFFFFFF29
:1017D000FFFFFFFFFFFFFFFFFFFFFFFFFFFFFFFF19
:1017E000FFFFFFFFFFFFFFFFFFFFFFFFFFFFFFFF09
:1017F000FFFFFFFFFFFFFFFFFFFFFFFFFFFF3CB506
:0400000300000000F9
:00000001FF
