:020000020000FC
:1000000062C8A4C6FFFFFFFFFFFFFFFFFFFFFFFF68
:10001000FFFFFFFFFFFF9BC6FFFFFFFFFFFFFFFF8D
:10002000FFFFFFFFFFFFFFFFFFFFFFFFFFFFFFFFE0
:100030007EC476002F0200008F00A001B811FF10CF
:100040007BD8C801202F26952695F894009164004E
:100050000E7F0093640030E0220FE2E2F2E0E20F54
:10006000F31F008100937C00009164000160009305
:1000700064001181F901E05EFD4F018192D7A02F4C
:10008000F0E0E82FEF55FE4F4080B0E01AC05091ED
:1000900075024091740230917302209172021A2FFE
:1000A000092FA3D73DD0E0EAF1E00081039500835A
:1000B000023030F0033020F0043010F001E0008313
:1000C000B395B415F89418F39DD700E010E00093B1
:1000D000850000938400B59A90E0880F991FEFE2A5
:1000E000F2E0E80FF91F00B705FF13C019D0B5996A
:1000F0000BC0009184001091850020E21032B8F30B
:1001000000E00083218308C00091860010918700E1
:1001100001C001E00083118377D702D0E5E018C861
:10012000009176020FBF08950AD000E0EFE2F2E0FE
:10013000048F058FE0D28991089501D0FCCF8A9376
:1001400080E003C0082FE3D0839588D0D8F30895CA
:1001500000E00093670204E00093410204E1009391
:10016000440205E00093450200E00093430204E1ED
:100170000093420201E00093400203E00093460234
:10018000D6D200E0EFE2F2E0008F018F0895D4D7DD
:10019000442490E0AFE2B2E0FD01428E438E448DF4
:1001A000558D9801241B350B048F158F068D178DE7
:1001B000020F131F068F178F05C0085C1040068FB3
:1001C000178F9395068D178D083C1405B0F7009195
:1001D0006802002341F0091718F44092680203C036
:1001E000091B00936802EFD2FD01008D118D0030D4
:1001F000140511F0F801099580E004C08C012CD1A0
:10020000402A83952BD0D0F3442021F0FD01038DAB
:100210000160038F00E000933F0280E018C0482F88
:100220003CD0F801E15BFD4F0081087179F0282F87
:10023000269526952695482F477001E051D730E046
:10024000FD01E20FF31F1089102B108B839506D050
:1002500030F3FD01028D138DE5E07AC7009167024E
:1002600080170895702F612F4091670216D0EFE438
:10027000F2E0E00DF11D23836770660F660F660FD5
:100280006483758304810C7F3370032B0483E7E65A
:10029000F2E0008103950083089550E006E010E04D
:1002A00029C74BD7602F20E030E0402FF6DFAFE4C6
:1002B000B2E0A00DB11DFD015581038110E0409118
:1002C00040022ED7802F043008F484E000916702AA
:1002D0006017D0F4052FF1D19801082F06950695E7
:1002E00010E090E0081B10400217130724F4FD01F2
:1002F00004810B7F0483819590408217930724F03B
:10030000FD010481046004838901E4E022C78A932B
:10031000802F08D0482F45D001E000830FE00183F3
:10032000899108950AD73CD0058112E01083A9E491
:10033000B2E01C9112601C9310E0128320E8F801D7
:10034000E15BFD4F228F79C0F8D6C4D1EFE2F2E035
:10035000E20FF31FAFE2B2E0A20FB31F1A3018F0A2
:100360000D911C9111C06ED02D913C9111972017C9
:10037000310718F40150104007C02D913C9102172D
:10038000130718F40F5F1F4F60D057C081D1208131
:100390002360208305D000E1008300E001830895FD
:1003A000402F82D1EFE4F2E0E00DF11D0895C5D6B3
:1003B000212F402F50E0440F551FFA01E15DFD4F02
:1003C00060817181EFE2F2E0E40FF51F10E0AFE42D
:1003D000B2E0A00FB11F36D00617170780F45A9667
:1003E0000C91020F0C93102F5A9700914502005860
:1003F000101718F124D00F5F1F4F27D01EC06017B1
:10040000710780F45A960C91021B0C9300E810912E
:100410004402011B1C915A97011778F010D001502B
:100420001040EBCFFD01028D013810F00A95028FCC
:10043000028D003810F40395028FE4E08AC600E8CC
:100440005A960C930085118508950087118720D155
:10045000008108600083089569D6902E412EAA2459
:1004600055241FDFC801492D1FD1AFE4B2E0A00D14
:10047000B11DFD01038144814370439536D602309E
:1004800008F402E06380772410E0601A710A0C918E
:100490000A9571F00A95E1F00250A9F1045009F4AF
:1004A000AAC0085009F47FC0005109F4B6C0D3C0F7
:1004B000EBD002600183FD011181058145DFFD0163
:1004C00001810A95018311F4092D2CDFCAD0C3C024
:1004D000048102FF06C0092D02D1502ED6D0006142
:1004E000B9C0CAD020F004E00C93A282B2C044206C
:1004F00009F4B1C000916802002309F0ACC0142DCA
:10050000058155DFA8C0B8D008F44AC0A7D003952C
:100510000283448008E3402246944694469499F12D
:10052000882406C00081003139F1083029F1839414
:1005300000916702801628F58914C9F3482DB4D0BC
:100540002FE4622E22E0722E600C711CF3010481F4
:100550000873069506950695041549F7082DA1DE42
:10056000FD012381AC01421B5040F3012381021B9A
:10057000104040175107B4F6FD015282AA24A394FB
:10058000D6CFAA2039F400914102002319F07CD083
:10059000086001836BD008F45EC0092DF7DE5BC0F4
:1005A000092DC0DE58C0048102FF08C010E8092DE3
:1005B00096D0502E6AD00061018388CF63D0061593
:1005C000170520F408E00C936AD0F6CF64D04ED023
:1005D00010F40395028300914302002309F476CFBF
:1005E0001181101718F4012F040DE6CF092D8FDEAD
:1005F0004BD00260E1CF32D0002391F243D060169D
:10060000710620F400E10C9346D002C048D001836B
:10061000FD0102810A9502831EC025810FE412E0CC
:10062000020F1A1DF801228D2395228FFD012481CE
:10063000F801028D22FD05C007FFB2CF00E10C9347
:100640000AC010914602011720F0092D60DE539474
:1006500045CF25D00183052DEBE074C502D0028182
:10066000089500914202009368020895FD010281FD
:10067000109141020117089505D0FD012381021751
:10068000104008958C0114C0539402D00181089544
:10069000E9E4F2E00895FCDF00810160DBCE5394D1
:1006A000F7DF01810460089550E006E010E022C504
:1006B000112312F400E010E008950CD0F901E15D7F
:1006C000FD4FC0DEF901E15DFD4F20813181021B4C
:1006D000130B0895202F30E0220F331F08952DD5DE
:1006E000212F5EDEA581B0E0A759BD4F2C9300E21B
:1006F000008301E0A2CE01E00093A00100E000939E
:100700006D0200936E0200936F02009370020093DB
:10071000710208EB13E016D0409171023091700223
:1007200020916F0210916D0200916E0218C400E0DA
:1007300020E4F0E0E02FEF55FE4F208303950430D6
:10074000B8F30895FAD4D80180E00CC0482F50E0E7
:1007500006E010E0CFD4F801E15BFD4F0581FD011B
:100760000995839500916702801780F3E4E0F1C456
:10077000602F637006950695202F30E0220FF90157
:10078000E05EFD4F19D01081102B1083F901EE5D52
:10079000FD4F12D01181102B1183660F660FE0E11F
:1007A000F2E0E60FF31F2281E381F0E0E359FD4F11
:1007B0000081022B00830895408101E010E0AAD45B
:1007C000EDE6F2E00895B4D40FB700937602A0915D
:1007D0007B00B0B7409080005090810066B280915D
:1007E0008400909185007090640080907C0000E40B
:1007F00000937B0004E000BF00E00093800001E86C
:1008000000938100F8940BE114E09CDFA0937B003F
:10081000B0BF409280005092810066BA90938500EC
:10082000809384007092640080927C000091760234
:100830000FBFE9E089C4202F237030E0220F220F80
:10084000E0E1F2E0E20FF31F4081518140305307B5
:1008500019F01281FA010995009176020FBF0895EF
:100860000093BA000FEF0093BB0004E039C0109171
:10087000BC00012F017008950091BC0000FDFCCF69
:100880000091C601089559D4422F2091BC0020FD4B
:10089000FCCFB5D040A320E00CC0D801A20FB31FFD
:1008A0005C91DF01A20FB31F5C9323952417A8F37B
:1008B0002395241718F420E030E0F8CF00E002A3DD
:1008C00008EF01A30CD0E4E044C40091BC0000FD9B
:1008D000FCCF00E00093C70108EF0093C60105ECD0
:1008E0000093BC0008953091BC0030FDFCCF3091E6
:1008F000C70130FFFCCF40E050E009C0FA01E958E1
:10090000FD4F3081F801E40FF51F30834395421706
:10091000A8F378D00D7F02A3ADCF0091C9010132B9
:1009200018F000E20093C9010091C9010895BA933B
:10093000AA93FA93EA933A932A931A930A933FB7A6
:100940000091B900005809F446C0005109F443C0B1
:10095000005189F1085049F0005169F0085019F12F
:10096000005A91F1005169F145C049D000E004A35B
:1009700002A1086002A343D004A110E0DF01A00F90
:10098000B11F0C910093BB0004A1039504A305ECD7
:10099000A7DF3FBF0991199129913991E991F99107
:1009A000A991B99118952BD004A110A1011729F490
:1009B00002A1016002A304E0EBCF0091B90001A302
:1009C000FACF20D0046002A31DD0026002A300E091
:1009D00004A303A3DCCF13D02091BB00A3A1B0E0FC
:1009E000A958BD4F2C9303A1039503A302A1016055
:1009F00002A3CDCF0091B9000093C601DCCFE5EA98
:100A0000F1E00895E5EAF1E002A108958A93802FCC
:100A10005CDF082F8991089525D006D0399A419836
:100A200000C023D000C0089500C03A9A429AFACF7D
:100A3000399A4198F9DF16D0F5CF17D0102F08E07A
:100A400017FB399A16F4419A01C04198EDDF110F56
:100A50000CD00A95A9F700C005D0E7DF06B105D094
:100A600002700895399A419A08953A9A42980895E1
:100A700040E0F8DF18E0D9DF440F31994395F5DF06
:100A800000C01A95C1F70023399A11F0419801C0AE
:100A9000419ACBDFCADFE9DFE5DFF9014083089542
:100AA0004BD3402E812F922FDA01B6DF440C042D58
:100AB000C4DF442403C00D91C0DF43944816D8F32B
:100AC000992309F4B5DF00C0E5E042C336D3B02F67
:100AD000A12FC901A1DFBB0FB1600B2FAEDFB0E0CA
:100AE00004C001E0C5DF0196B395BA1760F42B2F5F
:100AF00030E00A2F10E001501040201731079C0110
:100B000081F700E0EFCF94DFE4E023C317D3219710
:100B10000883C901A12FAE0121E011E005E4C0DF87
:100B20009C011A2F05E4D2DF00E02196E3E012C316
:100B30006097103108F01FE0088300E050E009C022
:100B4000F901E00FF51F6081FE01E00FF51F6183E1
:100B500003950117A8F3AE0120E0139505E4A0DF8B
:100B600000E06096089503C057985F9808D10091FF
:100B70000B020330C9F300919D020023A1F100E0B4
:100B800000939D028CD019F00A9500939A02EBE92C
:100B9000F2E000811181FBDA10FBCEF300FBCEF412
:100BA00000913F0200930F02002359F00091980238
:100BB000002311F4579A5F98009197020D7F01600E
:100BC00010C057985F986FD000FF0DC00E7F008354
:100BD0000AC057985F980091970200FF04C00E7FEB
:100BE0000260009397025BD011F014E009C00091FD
:100BF00007025FD200910702002329F4109102023C
:100C00000091D60121D200E04A9901E0E8E9F2E042
:100C100000FB008100F9008300910B02002311F416
:100C200011E001C010E000810D7F110F012B008346
:100C30000091990210919802011729F034D00C7F8D
:100C400000831093990200919802002399F000917B
:100C500097020670063071F4579A5F9807E813E11F
:100C600001501040E9F700C00000EDE0F2E0008123
:100C70000460008318D001FF79CF11D061F409E13D
:100C800000939A0200910702002311F000E011D2B4
:100C90000AD00460008300810D7F008367CF00913C
:100CA0009A0200230895E7E9F2E000810895F8949C
:100CB00010E81093610000936100789408952DD09E
:100CC0001DD032DA08EB1BE023D000916F000260E8
:100CD00000936F00009181000260009381000091F9
:100CE000810008600093810000E0E7E4F2E0008307
:100CF0000183789401E000930B0235CF33E02AE0C2
:100D000010E001E0AFDA33E02AE010E002E0AACA26
:100D10001093890000938800089502E0C8DF05B7AA
:100D2000006105BF3A98429803EC19E00150104069
:100D3000E9F700C00000329903C000E50093090202
:100D4000529807E88DDDC1DD01E077C11895FA936F
:100D5000EA932A931A930A932FB701E000939D0216
:100D6000EBE9F2E000811181045F1F4F00831183E2
:100D70002FBF099119912991E991F991189577DD82
:100D8000002391F40091C70100FF0CC001FF06C0D1
:100D900020E202EE11E0A7DD08D05AD068DD002382
:100DA00019F493CD69DD32DE08958A93B6DD109192
:100DB000E20110930A0220910A022F3F19F4002346
:100DC00009F444C08091E301022F0059055070F0EE
:100DD00009F10A9521F10950C9F1045051F103506C
:100DE000A9F1075561F10A9539F12BC08F70806E1A
:100DF000182FF0E02F70E22FEA52FE4F008124D12D
:100E000000910A0210E00F70E2EEF1E0E00FF11F36
:100E100080A31CC0082F47D18093080217C01091EF
:100E200002020091D60110D1082F43D1809307020E
:100E30000DC080930B020AC08BD960DF75D97DD9B4
:100E400005C02A3018F4182F022FECD0899108958C
:100E500070D1229762DD023008F073C0A2EEB1E0DB
:100E60002D0191E000910A02102F105A81F01A957D
:100E700081F0135091F01A9599F01A9541F11350A1
:100E8000C1F0175409F055C00091090255C00DE496
:100E900053C0EFE3F0E004914FC000913F024CC01B
:100EA00000910F020093E201FD0103A50E7F03A74D
:100EB00045C000910C020093E20100E000930C0297
:100EC000FD0103A50D7F03A700E004A737C007E3DA
:100ED000402E02E0502E80E090E0F20101912F01BF
:100EE000FC0138D08830C8F30FE2402E02E0502ECB
:100EF00005C0F20101912F01F3012ED03D01680ED2
:100F0000791E8031B0F300E0CCD9088319830881C1
:100F1000F30122D00981E82FF0E01CD094E1209168
:100F20003F0212D020913F02217083950DD02D01F8
:100F300005C00A3018F470D00093E201292F820115
:100F4000A2DC2296E8E001C1E82FF0E0EE51FE4F6E
:100F500020830895EE51FE4F0083839508956F938B
:100F60009F9368B1902F9095692368B96BB1912FC9
:100F7000909569236BB9902F67B1692B67B96AB1F6
:100F8000912F692B6AB9922F909565B1692365B944
:100F900064B1922F692B64B95C98549A9F916F91B8
:100FA00008956F939F936AB1609374026093720285
:100FB00067B16093750260937302602F60959091A2
:100FC0007202962390937202612F60959091730242
:100FD00096239093730200270000000000006091A8
:100FE000730267B99F916F9108952AB903B9000000
:100FF0000000000057B900000000000037B94AB9EE
:1010000003B908955C9A08955C986091750267B978
:101010000000000000000895219711E09E0176DD98
:10102000088105C02197188311E09E0181DD21967A
:10103000089500616BCD00617BCD389A409A1BE02A
:1010400024E232E000E0F7CF7AD02397C80110E025
:10105000EEE9F2E0E00FF11F0081091709F190833A
:1010600013E09E0100E0E5DF20E0482F01E010E002
:1010700051D0FE0130E0E20FF31F90FB26F4108107
:10108000102B108305C0102F109530813123308331
:1010900096952395233068F313E09E0100E0CBDFA3
:1010A0002396E2E058C02197088311E09E0108E0F2
:1010B000BDCF002311F016E001C010E002E0C4CF64
:1010C00000008895FECF0FE90DBF01E00EBFC0E420
:1010D000D1E048D0002309F055D0F1DDF1DFF0CFA9
:1010E0004A9512F0000FE1F708954A9512F006951F
:1010F000E1F70895002411240030010741F016950E
:10110000079510F4040E151E440F551FF5CF002D42
:10111000112D08954A951AF0000F111FFBCF089565
:101120004A951AF015950795FBCF0895AA929A92C1
:101130008A927A926A925A924A92BA93AA939A930C
:101140008A930895AA84998488847F806E805D80C4
:101150004C80BB81AA8199818881F0E0EC0FFD1F52
:10116000EF01089501E0089520E006D0E9F7089521
:10117000259102D0E9F708952D9301501040202FBA
:10118000212B089582E390E0FC0105911491FC016C
:101190003296A591B491FC01349625913491422F59
:1011A000432B19F0F901E4DF01C0DEDF069610E001
:1011B0008E33910748F308950140404040000000FD
:1011C000000000000000000000000000000000001F
:1011D0000000000000000000000000000000F80017
:1011E00000000000000000000000000000000203FA
:1011F00001040500000000000000000000000000E5
:1012000000000000000000000000000000000000DE
:1012100000000000000000000000000000000000CE
:1012200000540000000000002000200220001002F6
:101230002000800220004002030803080000004450
:1012400099446666FF0F00FFFFFFFFFFFFFFFFFFF0
:10125000FFFFFFFFFFFFFFFFFFFFFFFFFFFFFFFF9E
:10126000FFFFFFFFFFFFFFFFFFFFFFFFFFFFFFFF8E
:10127000FFFFFFFFFFFFFFFFFFFFFFFFFFFFFFFF7E
:10128000FFFFFFFFFFFFFFFFFFFFFFFFFFFFFFFF6E
:1017F000FFFFFFFFFFFFFFFFFFFFFFFFFFFFDA9984
:0400000300000000F9
:00000001FF
