:020000020000FC
:100000002ECA7CC8FFFFFFFFFFFFFFFFFFFF82C874
:10001000FFFFFFFFFFFFFFFFFFFFFFFFFFFFFFFFF0
:10002000FFFFFFFFFFFFFFFFFFFFFFFFFFFFFFFFE0
:10003000C0C4FFFFFFFFFFFFFFFFFFFFFFFFFF1930
:1000400090011F09E50801E50801E50801E508013F
:10005000E50801F90801FE08092409040709032439
:1000600009010D09011009031909510A09011409AF
:10007000011209FB9001AD0948090148090148092D
:1000800001480901480901500901530909450901BD
:100090005809015A09025E09016009016309017BDF
:1000A0000901A70901AA09016A090175090178096D
:1000B0004555090CA409FB00730066020000C60048
:1000C000A001EC1553DAC801202F26952695F89447
:1000D000009164000E7F0093640030E0220FE4E69C
:1000E000F2E0E20FF31F008100937C0000916400B6
:1000F0000160009364001181F901EE59FD4F018107
:1001000070D9A02FF0E0E82FEF55FE4F4080B0E00F
:100110001AC05091AC024091AB023091AA022091DA
:10012000A9021A2F092F81D93DD0E0EAF1E0008120
:1001300003950083023030F0033020F0043010F0DB
:1001400001E00083B395B415F89418F37BD900E06F
:1001500010E00093850000938400B59A90E0880F2A
:10016000991FE6E6F2E0E80FF91F00B705FF13C09C
:1001700019D0B5990BC0009184001091850020E240
:100180001032B8F300E00083218308C0009186009C
:100190001091870001C001E00083118355D902D07E
:1001A000E5E0F0C90091AD020FBF08950AD000E06C
:1001B000E6E6F2E0048F058FE0D28991089501D040
:1001C000FCCF8A9380E003C0082FE3D0839588D0CA
:1001D000D8F3089500E000939E0204E000937802B3
:1001E00004E100937B0205E000937C0200E00093B1
:1001F0007A0204E10093790201E00093770203E0C0
:1002000000937D02D6D200E0E6E6F2E0008F018F97
:100210000895ACD9442490E0A6E6B2E0FD01428EF8
:10022000438E448D558D9801241B350B048F158FFB
:10023000068D178D020F131F068F178F05C0085CE0
:100240001040068F178F9395068D178D083C140567
:10025000B0F700919F02002341F0091718F4409273
:100260009F0203C0091B00939F02EFD2FD01008D86
:10027000118D0030140511F0F801099580E004C0DB
:100280008C012CD1402A83952BD0D0F3442021F02F
:10029000FD01038D0160038F00E00093760280E092
:1002A00018C0482F3CD0F801EA57FD4F0081087173
:1002B00079F0282F269526952695482F477001E03E
:1002C000DBD830E0FD01E20FF31F1089102B108BFB
:1002D000839506D030F3FD01028D138DE5E052C900
:1002E00000919E0280170895702F612F40919E0209
:1002F00016D0E6E8F2E0E00DF11D23836770660F8B
:10030000660F660F6483758304810C7F3370032B43
:100310000483EEE9F2E0008103950083089550E044
:1003200006E010E0B3C823D9602F20E030E0402F72
:10033000F6DFA6E8B2E0A00DB11DFD0155810381F5
:1003400010E040917702B8D8802F043008F484E0A0
:1003500000919E026017D0F4052FF1D19801082F6B
:100360000695069510E090E0081B10400217130751
:1003700024F4FD0104810B7F048381959040821752
:10038000930724F0FD010481046004838901E4E003
:10039000FAC88A93802F08D0482F45D001E0008307
:1003A0000FE0018389910895E2D83CD0058112E0E5
:1003B0001083A0E8B2E01C9112601C9310E012833D
:1003C00020E8F801EA57FD4F228F79C0D0D8C4D178
:1003D000E6E6F2E0E20FF31FA6E6B2E0A20FB31FDB
:1003E0001A3018F00D911C9111C06ED02D913C91D6
:1003F00011972017310718F40150104007C02D91B4
:100400003C910217130718F40F5F1F4F60D057C0BD
:1004100081D120812360208305D000E1008300E0AA
:1004200001830895402F82D1E6E8F2E0E00DF11D4E
:1004300008959DD8212F402F50E0440F551FFA01F9
:10044000EA59FD4F60817181E6E6F2E0E40FF51FA5
:1004500010E0A6E8B2E0A00FB11F36D006171707CC
:1004600080F45A960C91020F0C93102F5A9700911A
:100470007C020058101718F124D00F5F1F4F27D0AF
:100480001EC06017710780F45A960C91021B0C93E2
:1004900000E810917B02011B1C915A97011778F01C
:1004A00010D001501040EBCFFD01028D013810F04B
:1004B0000A95028F028D003810F40395028FE4E054
:1004C00062C800E85A960C9300851185089500874C
:1004D000118720D1008108600083089541D8902EB3
:1004E000412EAA2455241FDFC801492D1FD1A6E89B
:1004F000B2E0A00DB11DFD0103814481437043951D
:10050000C0D7023008F402E06380772410E0601A5C
:10051000710A0C910A9571F00A95E1F00250A9F167
:10052000045009F4AAC0085009F47FC0005109F42E
:10053000B6C0D3C0EBD002600183FD0111810581FB
:1005400045DFFD0101810A95018311F4092D2CDF9E
:10055000CAD0C3C0048102FF06C0092D02D1502EAB
:10056000D6D00061B9C0CAD020F004E00C93A282BA
:10057000B2C0442009F4B1C000919F02002309F0E9
:10058000ACC0142D058155DFA8C0B8D008F44AC00E
:10059000A7D003950283448008E340224694469402
:1005A000469499F1882406C00081003139F1083061
:1005B00029F1839400919E02801628F58914C9F3CD
:1005C000482DB4D026E8622E22E0722E600C711CF9
:1005D000F30104810873069506950695041549F7FD
:1005E000082DA1DEFD012381AC01421B5040F30127
:1005F0002381021B104040175107B4F6FD015282BF
:10060000AA24A394D6CFAA2039F40091780200231B
:1006100019F07CD0086001836BD008F45EC0092D0E
:10062000F7DE5BC0092DC0DE58C0048102FF08C0A0
:1006300010E8092D96D0502E6AD00061018388CF32
:1006400063D00615170520F408E00C936AD0F6CFA6
:1006500064D04ED010F40395028300917A020023F7
:1006600009F476CF1181101718F4012F040DE6CF8D
:10067000092D8FDE4BD00260E1CF32D0002391F202
:1006800043D06016710620F400E10C9346D002C0FE
:1006900048D00183FD0102810A9502831EC0258195
:1006A00006E812E0020F1A1DF801228D2395228F11
:1006B000FD012481F801028D22FD05C007FFB2CFA4
:1006C00000E10C930AC010917D02011720F0092D62
:1006D00060DE539445CF25D00183052DEBE04CC758
:1006E00002D0028108950091790200939F0208953B
:1006F000FD010281109178020117089505D0FD01D6
:1007000023810217104008958C0114C0539402D025
:1007100001810895E0E8F2E00895FCDF00810160C6
:10072000DBCE5394F7DF01810460089550E006E0CA
:1007300010E0ACC6112312F400E010E008950CD0D4
:10074000F901EA59FD4FC0DEF901EA59FD4F208158
:100750003181021B130B0895202F30E0220F331F2D
:10076000089505D7212F5EDEA581B0E0A056BD4FCC
:100770002C9300E2008301E0A2CE01E00093A001EF
:1007800000E00093A4020093A5020093A602009348
:10079000A7020093A8020AEF13E016D04091A80226
:1007A0003091A7022091A6021091A4020091A50207
:1007B000F6C500E020E4F0E0E02FEF55FE4F208387
:1007C00003950430B8F30895D2D6D80180E00CC068
:1007D000482F50E006E010E059D6F801EA57FD4FE7
:1007E0000581FD010995839500919E02801780F394
:1007F000E4E0C9C6602F637006950695202F30E0AF
:10080000220FF901EE59FD4F19D01081102B1083E2
:10081000F901EC59FD4F12D01181102B1183660F95
:10082000660FE2E5F2E0E60FF31F2281E381F0E0DC
:10083000EC55FD4F0081022B00830895408101E0BB
:1008400010E034D6E4EAF2E008958CD60FB70093B6
:10085000AD02A0917B00B0B7409080005090810025
:1008600066B28091840090918500709064008090C1
:100870007C0000E400937B0004E000BF00E00093F4
:10088000800001E800938100F8940DE514E09CDFFE
:10089000A0937B00B0BF409280005092810066BA66
:1008A00090938500809384007092640080927C0015
:1008B0000091AD020FBFE9E061C6202F237030E048
:1008C000220F220FE2E5F2E0E20FF31F4081518197
:1008D0004030530719F01281FA0109950091AD02D9
:1008E0000FBF08950093BA000FEF0093BB0004E020
:1008F00039C01091BC00012F017008950091BC0017
:1009000000FDFCCF0091C601089531D6422F209101
:10091000BC0020FDFCCFB5D040A320E00CC0D80126
:10092000A20FB31F5C91DF01A20FB31F5C9323954D
:100930002417A8F32395241718F420E030E0F8CF0B
:1009400000E002A308EF01A30CD0E4E01CC6009174
:10095000BC0000FDFCCF00E00093C70108EF00934E
:10096000C60105EC0093BC0008953091BC0030FD39
:10097000FCCF3091C70130FFFCCF40E050E009C010
:10098000FA01E255FD4F3081F801E40FF51F308385
:1009900043954217A8F378D00D7F02A3ADCF009105
:1009A000C901013218F000E20093C9010091C901A8
:1009B0000895BA93AA93FA93EA933A932A931A93CF
:1009C0000A933FB70091B900005809F446C000519E
:1009D00009F443C0005189F1085049F0005169F011
:1009E000085019F1005A91F1005169F145C049D000
:1009F00000E004A302A1086002A343D004A110E018
:100A0000DF01A00FB11F0C910093BB0004A103955F
:100A100004A305ECA7DF3FBF0991199129913991F2
:100A2000E991F991A991B99118952BD004A110A140
:100A3000011729F402A1016002A304E0EBCF0091A9
:100A4000B90001A3FACF20D0046002A31DD0026038
:100A500002A300E004A303A3DCCF13D02091BB00CA
:100A6000A3A1B0E0A255BD4F2C9303A1039503A30E
:100A700002A1016002A3CDCF0091B9000093C6018D
:100A8000DCCFE5EAF1E00895E5EAF1E002A108959E
:100A90008A93802F5CDF082F8991089500E00895E4
:100AA0002197188326D0E6D0219608958A9321971E
:100AB0001091F9011017C9F00093F9010023389A39
:100AC00099F0409A80E002E0809FEAECF1E0E00DCE
:100AD000F11D01810DD00081CDD08395813198F336
:100AE0000091EC015ED001C0409821968991089553
:100AF000088311E09E0108953AD52497812F07308D
:100B0000E0F510E0AAECB1E0A00FB11FFD0103A1D8
:100B1000081799F183A3082F0F70B1F001E0C6DF29
:100B200001E00B83E6DF2D5F2FD08883E2DF28D042
:100B30000983DFDF2F5F28D00091EC010A83D9DF22
:100B40002E5F3F4F00E218C000E021D013A11F70BC
:100B500031F403950730C8F300E0A8DF0EC001E0D0
:100B60000A83C7DF2E5F10D000EE0983C2DF2F5F3C
:100B70003F4F06D0BDDF0FE77DD02496E4E003C5EC
:100B8000FD0102A577D08ACF3F4F0FE773C0F0E099
:100B9000E02FE653FE4F089521970093EC0101D01A
:100BA00083CF088311E09E0100E264C08A932197FD
:100BB000802F00E00BD0882311F002E001C00CE090
:100BC00097DF0DE257D001E001D08FCF088311E00D
:100BD0009E0100E34FC02BD009D0419830D02AD0DD
:100BE0002EC0399A419802D0419A29C028D025D0E8
:100BF000399A08951FD0102F08E017FB399A16F480
:100C0000419A01C041980ED03A9A429A0BD0110FE6
:100C100011D00A9591F713D00AD00FD006B10AD09F
:100C20000270089523E02A95F1F700000895399A9B
:100C3000419A08953A9A429808953A9A429A03E05E
:100C40000A95F1F70000089591D4402E812F922F3C
:100C5000DA01C1DF440C042DCDDF442403C00D9123
:100C6000C9DF43944816D8F3992309F4BADFE7DFC4
:100C7000E5E088C46097103108F01FE0088300E0C9
:100C800050E009C0F901E00FF51F6081FE01E00F9F
:100C9000F51F618303950117A8F3AE0120E01395BA
:100CA00004E7D2DF00E060960895F89410E810930E
:100CB0006100009361007894089558D406D2E6D17B
:100CC000E8D100E0EEE7F2E0008301837894A8E148
:100CD000B2E001E000934A028EEC92E001C03AD209
:100CE000FC012081318189010F5F1F4F0083118337
:100CF0002130304128F0CDD100E0FC010083018398
:100D00004BD3043039F400E0D1DE04E0CEDFF894B8
:100D10002ED2FCD141D3033081F457985F98FC0167
:100D2000028100FF02C016D201C028D200915102F8
:100D30000023B1F267D155D1D3CFFD0102A113A198
:100D4000013B144010F000E089D2009151020023D1
:100D500009F45EC057D10481002311F00A95048381
:100D60000581002311F00A9505830681002311F007
:100D70000A950683018500FF03C007810395078359
:100D8000018501FF03C00085039500872AD100FB80
:100D90009EF5FD0102A113A10F5F1F4F02A313A334
:100DA0001091760210AF012F209140021223209162
:100DB000D002222311F0112379F4067069F0222366
:100DC00011F4579A5F9827D100FD22C000E00783F5
:100DD00001850D7F01601BC01CD100FF06C000E033
:100DE000008701850E7F02600187222389F011238D
:100DF00079F001850A7F0BC000E010E0FD0102A33D
:100E000003A307D100FF04C010870E7F0260018793
:100E1000009147021091D2021123F1F0103120F01D
:100E20002EE1422E411A01C0412EFD0116A912FFEA
:100E300007C01FE014191093D30210E01093D202E0
:100E4000C8D000914102102F0F70400E00E14016F3
:100E500068F00FE0402E0AC01091D302112361F018
:100E60002FE0422E411AB5D010914102107F0FE0C1
:100E700040221429F0D124C0CED002FF0DC089D267
:100E800002FD0AC0E3D1002311F001E08FDEE1D1C1
:100E90009DD0C1D00B7F01877CD202FF11C0009191
:100EA000D002002369F00091D402002349F406A97E
:100EB0000B7F06AB0FE00093D20200E00093D30259
:100EC00000E04A9901E0FC0100FB028100F9028385
:100ED00063D2002311F411E001C010E002810D7F04
:100EE000110F012B028323812017A9F0002319F48D
:100EF00095D06CD00BC010914102222309F41287C7
:100F000020FD04C000FF02C089D0A5D184D00C7F91
:100F100001870281038300914D020130B1F4028107
:100F2000002351F1018500FF27C00091D502013354
:100F300018F12FD202FD20C05BD006A93ED00FE0F1
:100F40000093D30200E00093D20200914D020023EF
:100F500099F40091D002002379F05DD001FF28C000
:100F600018D202FD09C057D002FF06C041D001854A
:100F70000D7F01870ED221D04ED001FF19C0048110
:100F8000002399F406D20B7F06AB00E00093D40255
:100F90000093D3020EE10093D20258D1002311F046
:100FA00000E004DE38D00460018701850D7F0187F1
:100FB000028100FD94CEE2D093CE046006AB00EF38
:100FC0000093D40204A9039504AB0895009147024D
:100FD000E3CD142D110F110F010F003408F00FE3B2
:100FE000DBCDFD0104A115A114D910FBD6F30895A2
:100FF000579A5F9807E813E101501040E9F700C0E5
:101000000000089500E000935102FC010083018379
:10101000089557985F98FC0101850895FD0106A980
:101020000B7F06ABFC0101850B7F018700E0058388
:10103000089500E020913F02102F110F110BF801CD
:10104000EF55FE4F208303950430A4F3E7E7F2E069
:1010500003E0018304E1048305E0058300E00383EA
:1010600004E1028301E0008303E00683089509D0D0
:1010700000E006D001E004D002E002D003E034C971
:1010800033D933E020913E0210E00895F0DF8ED88E
:10109000D0CF00E000937000009118020295007F0D
:1010A0000093B30000917000026000937000009103
:1010B000B10005600093B10003E00093B00000911F
:1010C000B100077F0093B100089502E0EEDD05B79F
:1010D000006105BF3A98429803EC19E001501040B6
:1010E000E9F700C00000329903C000E50093480210
:1010F000529807E8F7DB2BDC01E0D8CC1A930A936F
:101100001FB704D01FBF09911991189503B70E7F1F
:1011100003BF0895FA93EA934A933A932A931A9352
:101120000A934FB701E00093510200911802109109
:101130001902E8E1F2E024A135A1200F311F24A318
:1011400035A34FBF09911991299139914991E9919D
:10115000F991189500E00093690003B7016003BF9F
:1011600007E003BF889503B70E7F03BF089503B759
:10117000016003BF05E003BF88950895BADB002333
:1011800091F40091C70100FF0CC001FF06C020E2EE
:101190000AE112E0EADB08D064D0ABDB002319F4EB
:1011A000D6CBACDB75DC0895E3D1F9DB80911A0274
:1011B000809349028F3F19F4002309F445C0A091A0
:1011C0001B02082FE0E4F0E086C1AF70A06E1A2F7A
:1011D000F0E08F70E82FE45FFD4F00818DDC00911F
:1011E000490210E00F70E8E1F2E0E00FF11FA1A763
:1011F0002BC00A2FD1DCA093470226C027D00A17A4
:1012000019F127D00A2FD2DCA09346021DC0A0936B
:101210004A021AC0A093400217C0A0933E0202C027
:10122000A0933F02D7D732DF00E0E8E1F2E016D02A
:101230000BC0A0934D0200E000934C0205C0803823
:1012400018F41A2F082F2CDCE3E09EC1009146020F
:1012500008951091410200910C024ECC02A303A309
:10126000AEC783D122979BDB023008F07FC0A8E194
:10127000B2E02D0102E0400E00E0501E91E08091AE
:101280004902082FE4E7F0E026C100914F0269C04F
:10129000082F10E00F70FD01E00FF11F01A561C0E4
:1012A000009147025EC0D2DF5CC00091480259C085
:1012B0000DE457C0EFE3F0E0049153C06DD051C08E
:1012C000009176024EC00091500200931A0261D044
:1012D0000E7F09C000914B0200931A0200E00093B8
:1012E0004B0257D00D7F06AB3EC000914C0239C077
:1012F00000914D0236C00EE6402E02E0502E80E0F6
:1013000090E03FD08830E8F306E6402E02E0502E11
:1013100001C037D08031E8F3092F05D8088319833D
:10132000288110E02BD0298129D093959430A0F307
:101330009AE1209176021DD020917602217083954A
:1013400018D012962D010FC0009140020AC00091E2
:101350003E0207C000913F0204C0803820F4082FED
:101360009DDB00931A02292F8201CFDA2296E6E054
:1013700008C1FD01E80FF11F22830895FADF83956C
:101380000895F20101912F01FD01E80FF91F028379
:10139000F6CFFD0106A9089500914A0208956F93C2
:1013A0009F9368B1902F9095692368B96BB1912F85
:1013B000909569236BB9902F67B1692B67B96AB1B2
:1013C000912F692B6AB9922F909565B1692365B900
:1013D00064B1922F692B64B95C98549A9F916F9174
:1013E00008956F939F936AB16093AB026093A902D3
:1013F00067B16093AC026093AA02602F60959091F0
:10140000A90296239093A902612F60959091AA0258
:1014100096239093AA02002700000000000060912C
:10142000AA0267B99F916F9108952AB903B9000084
:101430000000000057B900000000000037B94AB9A9
:1014400003B908955C9A08955C986091AC0267B9FD
:10145000000000000000089500008895FECF0FE90D
:101460000DBF01E00EBFC0E4D1E096D0002309F02B
:10147000A3D023DCF1DFF0CF4A9512F0000FE1F7A3
:1014800008954A9512F00695E1F708950024112475
:101490000030010741F01695079510F4040E151E53
:1014A000440F551FF5CF002D112D08954A951AF0C0
:1014B000000F111FFBCF08954A951AF01595079557
:1014C000FBCF08957591659155914591159011FA4D
:1014D000259035900895F9DF041B10E003C0F4DF78
:1014E000041B150B20E030E005C0ECDF041B150BDE
:1014F000260B370BB8F010FC17C045910590E00F94
:10150000F11F0417100540E02407340758F436F49F
:1015100004910024F101E01BF0090994E00FF11F90
:1015200025903590F101099411F4D6F7F1CF319659
:101530000EF0319650E060E070E045914B3F48F08E
:1015400089F34F3F29F04E3F11F075916591559108
:101550004591041B150B260B370B39F318F3E7CF16
:10156000AA929A928A927A926A925A924A92BA93DA
:10157000AA939A938A930895AA84998488847F80F1
:101580006E805D804C80BB81AA8199818881F0E06A
:10159000EC0FFD1FEF01089501E0089520E006D053
:1015A000E9F70895259102D0E9F708952D930150A8
:1015B0001040202F212B089588EB90E0FC0105912D
:1015C0001491FC013296A591B491FC0134962591B9
:1015D0003491422F432B19F0F901E4DF01C0DEDF23
:1015E000069610E0843C910748F30895014040407E
:1015F00040000000000000000000000000000000AB
:1016000000000000000000000000000000000000DA
:101610000000F80000007F000108113F20007F015A
:10162000010007000D00130019001E007F00214873
:101630002D007F002D04300100000000000000009C
:1016400001070D1319000000000000000000000059
:101650000000000000000000030104000200000080
:10166000000000000C00000000000000000000006E
:10167000000000000000000000000000000000006A
:10168000000000000000000000000A400800000008
:1016900000000000420000000000000000006200A6
:1016A0002002620010026200800262004002030811
:1016B0000308FFFFFFFFFFFFFFFFFFFFFFFFFFFF2D
:1016C000FFFFFFFFFFFFFFFFFFFFFFFFFFFFFFFF2A
:1016D000FFFFFFFFFFFFFFFFFFFFFFFFFFFFFFFF1A
:1016E000FFFFFFFFFFFFFFFFFFFFFFFFFFFFFFFF0A
:1016F000FFFFFFFFFFFFFFFFFFFFFFFFFFFFFFFFFA
:101BF000FFFFFFFFFFFFFFFFFFFFFFFFFFFF82CAA7
:0400000300000000F9
:00000001FF
