:020000020000FC
:100000001DCB15C3FFFFFFFFFFFFFFFFFFFF19C35E
:10001000FFFFFFFFFFFFFFFFFFFFFFFFFFFFFFFFF0
:10002000FFFFFFFFFFFFFFFFFFFFFFFFFFFFFFFFE0
:100030006EC0BD00310200009100A0016C17FF0EE0
:100040000093BA000FEF0093BB0004E039C0109199
:10005000BC00012F017008950091BC0000FDFCCF91
:100060000091C101089543DB422F2091BC0020FD87
:10007000FCCFB5D040A320E00CC0D801A20FB31F25
:100080005C91DF01A20FB31F5C9323952417A8F3A3
:100090002395241718F420E030E0F8CF00E002A305
:1000A00008EF01A30CD0E4E02ECB0091BC0000FDD2
:1000B000FCCF00E00093C20108EF0093C10105EC02
:1000C0000093BC0008953091BC0030FDFCCF30910E
:1000D000C20130FFFCCF40E050E009C0FA01EF5C04
:1000E000FD4F3081F801E40FF51F3083439542172F
:1000F000A8F378D00D7F02A3ADCF0091C4010132E7
:1001000018F000E20093C4010091C4010895BA936D
:10011000AA93FA93EA933A932A931A930A933FB7CE
:100120000091B900005809F446C0005109F443C0D9
:10013000005189F1085049F0005169F0085019F157
:10014000005A91F1005169F145C049D000E004A383
:1001500002A1086002A343D004A110E0DF01A00FB8
:10016000B11F0C910093BB0004A1039504A305ECFF
:10017000A7DF3FBF0991199129913991E991F9912F
:10018000A991B99118952BD004A110A1011729F4B8
:1001900002A1016002A304E0EBCF0091B90001A32A
:1001A000FACF20D0046002A31DD0026002A300E0B9
:1001B00004A303A3DCCF13D02091BB00A3A1B0E024
:1001C000AF5CBD4F2C9303A1039503A302A1016073
:1001D00002A3CDCF0091B9000093C101DCCFE0EACA
:1001E000F1E00895E0EAF1E002A108958A93802FFA
:1001F0005CDF082F8991089500E008952197188306
:1002000026D0D9D0219608958A9321971091F40190
:100210001017C9F00093F4010023389A99F0409A1E
:1002200080E002E0809FE5ECF1E0E00DF11D01814E
:100230000DD00081C0D08395813198F30091E70102
:100240005ED001C04098219689910895088311E0FD
:100250009E0108954CDA2497812F0730E0F510E0D5
:10026000A5ECB1E0A00FB11FFD0103A1081799F1A2
:1002700083A3082F0F70B1F001E0C6DF01E00B830C
:10028000E6DF2D5F2FD08883E2DF28D00983DFDF10
:100290002F5F28D00091E7010A83D9DF2E5F3F4FFF
:1002A00000E218C000E021D013A11F7031F40395C3
:1002B0000730C8F300E0A8DF0EC001E00A83C7DF03
:1002C0002E5F10D000EC0983C2DF2F5F3F4F06D0B6
:1002D000BDDF0FE770D02496E4E015CAFD0102A54A
:1002E0006AD08ACF3F4F0FE766C0F0E0E02FEB53B4
:1002F000FE4F089521970093E70101D083CF088333
:1003000011E09E0100E257C08A932197802F00E000
:100310000BD0882311F006E001C00CE097DF0DE25E
:100320004AD001E001D08FCF088311E09E0100E3A5
:1003300042C025D006D0399A419800C023D000C0D1
:10034000089500C03A9A429AFACF399A4198F9DF53
:1003500016D0F5CF17D0102F08E017FB399A16F4F6
:10036000419A01C04198EDDF110F0CD00A95A9F711
:1003700000C005D0E7DF06B105D002700895399AB4
:10038000419A08953A9A42980895B0D9402E812F03
:10039000922FDA01CEDF440C042DDCDF442403C0AD
:1003A0000D91D8DF43944816D8F3992309F4CDDF93
:1003B00000C0E5E0A7C96097103108F01FE008838E
:1003C00000E050E009C0F901E00FF51F6081FE0177
:1003D000E00FF51F618303950117A8F3AE0120E03C
:1003E000139504E7D2DF00E06096089506C05798A1
:1003F0005F98ABD000FFA1C044D100917B020330D5
:10040000B1F300911702002391F100E0009317026D
:100410009FD019F00A9500938302E5E1F2E0008194
:10042000118141D310FBCEF300FBC6F4009195027D
:100430000093800295D0002349F087D0002311F467
:10044000579A5F987FD00D7F01600FC057985F98D3
:1004500083D000FF0CC00E7F008309C057985F98BF
:1004600071D000FF04C00E7F02600093510270D073
:1004700081F0003118F01EE1101B02C010918302C0
:10048000009172020F70100F103108F01FE057D06A
:100490000FC058D002FF0CC000917702002311F06A
:1004A00001E032DF109172024AD056D00B7F0083F8
:1004B00000E04A9901E0E1E8F2E000FB008100F988
:1004C000008300917B02002311F411E001C010E0D1
:1004D00000810D7F110F012B00830091820210918A
:1004E0008102011729F038D00C7F0083109382021B
:1004F0002CD0002359F026D00670063039F4579AD4
:100500005F98EDE7F2E000810460008325D001FFF1
:1005100011C01ED061F40EE10093830200917702B6
:10052000002311F000E0F0DE17D0046000830081AA
:100530000D7F00830AD000FD5FCFB0D05ECF009169
:10054000070288CE0091510208950091810208951A
:100550000091830200230895E1E5F2E0008108950F
:1005600010918102112349F414E0019F012D013003
:1005700039F0023029F000E0089501550E35D8F722
:1005800001E00895F89410E8109361000093610071
:100590007894089541D0EAD023D000E0EDE9F2E06C
:1005A00000830183789401E000937B021FCFE6E98A
:1005B000F2E002E0018304E1048305E0058300E04A
:1005C000038304E1028301E0008303E006830895CE
:1005D00060E057E043E03AE020E013E000E0F4C5DB
:1005E00000E000937000009113020295007F0093D9
:1005F000B300009170000260009370000091B100A0
:1006000005600093B10003E00093B0000091B100D9
:10061000077F0093B100089502E0B4DF05B70061E1
:1006200005BF529807E80CDD40DD01E0EDCD1A93DF
:100630000A931FB703B70E7F03BF1FBF099119911C
:100640001895FA93EA934A933A932A931A930A9342
:100650004FB701E0009317020091130210911402AA
:10066000E3E1F2E022813381200F311F22833383C3
:100670004FBF09911991299139914991E991F991C6
:10068000189500E00093690003B7016003BF07E01D
:1006900003BF889503B70E7F03BF0895D8DC0023FE
:1006A00091F40091C20100FF0CC001FF06C020E2DE
:1006B00002E512E008DD08D05CD0C9DC002319F4A3
:1006C000F4CCCADC93DD08958A9317DD10915202B1
:1006D00010937A0220917A022F3F19F4002309F433
:1006E00043C080915302022F0059055070F009F168
:1006F0000A9521F10950C1F1045051F10350A1F1C3
:10070000075559F10A9539F12AC08F70806C182F5E
:10071000F0E02F70E22FE95FFD4F00819BDD00913B
:100720007A0210E00F70E2E5F2E0E00FF11F80A323
:100730001BC0082FDFDD8093780216C01091720273
:100740000091070287DD082FDFDD809377020CC060
:1007500080937B0209C086D109D077D105C02038AB
:1007600018F4182F022F4ADD8991089531DF64D1E2
:100770001ECFB9D72297C1DC023008F081C0A2E5B4
:10078000B2E02D0191E000917A02102F1F5989F0FB
:100790001A95A1F01A95A1F01250B1F01A95B9F07E
:1007A0001A95C1F01A9569F11350E9F0175421F028
:1007B0005FC000917F025FC002E45DC00DE45BC0DA
:1007C000EFE3F0E0049157C000917B0254C0009128
:1007D000940251C00091800200935202FD0103A5D2
:1007E0000E7F03A74AC000917C020093520200E0F2
:1007F00000937C02FD0103A50D7F03A700E004A781
:100800003CC004E812E0280128E0420E20E0521E1D
:1008100080E090E0F20121912F01FC01EE5AFD4FA2
:10082000208383958830B0F3280106C0F20101913E
:100830002F01F301008383953D01680E791E8031FD
:10084000A8F300E09FD1088319830881F301008396
:10085000839509811BD00083839594E120919502B3
:1008600012D020919402217083950DD02D0105C0E6
:10087000003818F4C1DC00935202292F8201F3DB07
:100880002296E8E03CC702D020830895E82FF0E0EC
:10089000EE5AFD4F08956F939F9368B1902F9095F6
:1008A000692368B96BB1912F909569236BB9902F2B
:1008B00067B1692B67B96AB1912F692B6AB9922F19
:1008C000909565B1692365B964B1922F692B64B9BC
:1008D0005C98549A9F916F9108956F939F936AB11A
:1008E0006093D2026093D00267B16093D3026093A9
:1008F000D102602F60959091D00296239093D00200
:10090000612F60959091D10296239093D102002798
:100910000000000000006091D10267B99F916F91C3
:1009200008952AB903B900000000000057B900007B
:100930000000000037B94AB903B908955C9A0895D8
:100940005C986091D30267B9000000000000089530
:10095000CDD6C801202F26952695F89400916400E5
:100960000E7F0093640030E0220FEAE2F2E0E20F33
:10097000F31F008100937C000091640001600093EC
:1009800064001181F901E85DFD4F0181A6DFA02F10
:10099000F0E0E82FE35DFD4F4080B0E01AC05091D9
:1009A000D3024091D2023091D1022091D0021A2F6D
:1009B000092FB7DF3DD0ECE2F2E000810395008320
:1009C000023030F0033020F0043010F001E00083FA
:1009D000B395B415F89418F3B1DF00E010E000937C
:1009E000850000938400B59A90E0880F991FE4E891
:1009F000F2E0E80FF91F00B705FF13C019D0B59951
:100A00000BC0009184001091850020E21032B8F3F1
:100A100000E00083218308C00091860010918700C8
:100A200001C001E0008311838BDF02D0E5E06AC6DC
:100A30000091D4020FBF08950AD000E0E4E8F2E08C
:100A4000058F068FFFD28991089501D0FCCF8A933C
:100A500080E003C0082FD6D083950091C50280178F
:100A6000C8F3089500E00093C5020093ED0204E08E
:100A70000093970204E100939A0205E000939B0221
:100A800000E00093990204E10093980201E00093D2
:100A9000960203E000939C02F1D200E0E4E8F2E069
:100AA000018F028F089522D6442490E0A4E8B2E09A
:100AB000FD01438E448E458D568D9801241B350BC8
:100AC000058F168F078D10A1020F131F078F10A31C
:100AD00005C0085C1040078F10A39395078D10A1E7
:100AE000083C1405B0F70091C602002341F0091735
:100AF00018F44092C60203C0091B0093C60217D324
:100B0000FD01018D128D0030140511F0F8010995D9
:100B100080E004C08C0145D1402A83952DD08017F8
:100B2000C8F3442021F0FD01048D0160048F00E032
:100B30000093940280E018C0082F21D0F801EB55F3
:100B4000FD4F0081087179F0282F2695269526956E
:100B5000482F477001E07FD530E0FD01E20FF31F21
:100B60001089102B108B839507D0801728F3FD0177
:100B7000038D148DE5E0C6C50091C502089510E00F
:100B800043E083C5B4D5302F60E070E0F8DFA5EA1C
:100B9000B2E0A00FB11FFD015581038110E040912B
:100BA00096027FD5802F043008F484E0E5DF30170B
:100BB00030F50481007CD9F4052F26D2B801082F26
:100BC0000695069510E090E0081B104006171707E1
:100BD00024F4FD0104810B7F0483819590408617E6
:100BE00097076CF0FD0104810460048308C0048150
:100BF0000B7F0483282F152F032F29D3B8018B01D6
:100C0000E4E081C58A93802F08D0082F62D001E0EC
:100C100000830FE001838991089569D55AD0158129
:100C2000368102E00083AFE9B2E00C9102600C93E0
:100C300000E00283012F07C020E8F0E0E02FEB5531
:100C4000FD4F22A303953017B8F731C050D5D1D14D
:100C500016969C918E91159706C011961C9111972E
:100C6000082F04D083959817C0F721C040D5D9D15B
:100C7000E4E8F2E0E20FF31FA4E8B2E0A20FB31F32
:100C80001A3018F00D911C9111C07ED02D913C911D
:100C900011972017310718F40150104007C02D910B
:100CA0003C910217130718F40F5F1F4F70D0E4E058
:100CB0002AC5202F72D003600083022F0AD000E1E2
:100CC000008300E001830481007C11F0022F3FD3F8
:100CD000089565D1E5EAF2E0E00FF11F089508D527
:100CE000812FF7DFA681958104C0182F092F05D029
:100CF0009395A917D0F7E3E007C5F9D4212F402F2A
:100D000050E0440F551FFA01EC57FD4F608171818F
:100D1000E4E8F2E0E40FF51F10E06CD135D00617DF
:100D2000170780F492960C91020F0C93102F929754
:100D300000919B020058101718F123D00F5F1F4F2E
:100D400026D01EC06017710780F492960C91021B8A
:100D50000C9300E810919A02011B1C9192970117C5
:100D600078F00FD001501040EBCFFD0102A1013807
:100D700010F00A9502A302A1003810F4039502A313
:100D800096CF00E892960C93008511850895008710
:100D9000118703D0086000830895EFE9F2E0008135
:100DA00008959ED4902E412EAA245524EBDEC8012E
:100DB000092D1FD1FD01038144814370439550D417
:100DC000023008F402E06380772410E0601A710AB0
:100DD0000C910A9571F00A95C9F0025089F10450FE
:100DE00009F4AAC0085009F47BC0005109F4B6C048
:100DF000D3C0F1D00183092D29DFFD0101810A95BE
:100E0000018311F4092D09DFD0D0C6C0048102FF8F
:100E100005C0092D0BD1502EDBD0BDC0CBD020F0AA
:100E200004E00C93A282B6C0442009F4B5C000913E
:100E3000C602002309F0B0C0142D092D50DFACC04C
:100E4000B9D008F44AC0AED003950283448008E3C9
:100E5000402246944694469499F1882406C0008125
:100E6000003139F1083029F183940091C5028016D0
:100E700028F58914C9F3082D92D025EA622E22E0C4
:100E8000722E600E711EF30104810873069506959B
:100E90000695041549F7082D75DEFD012381AC0187
:100EA000421B5040F3012381021B104040175107A1
:100EB000B4F6FD015282AA24A394D6CFAA2039F415
:100EC00000919702002319F089D0086001837AD03D
:100ED00008F462C0092DEDDE5FC0092D9EDE5CC006
:100EE000048102FF07C010E8092DA0D0502E70D059
:100EF00001838ACF65D00615170520F408E00C930E
:100F000075D0F6CF70D05ED010F4039502830481C3
:100F1000007C11F0092DE8D100919902002309F419
:100F200073CFFD011181101718F4012F040DE0CFCC
:100F3000092D68DE50D0DCCF35D0002371F240D0CF
:100F40006016710620F400E10C934DD002C04ED023
:100F50000183FD0102810A9502831EC0258105EAF5
:100F600012E0020F1A1DF80122A1239522A3FD0110
:100F70002481F80102A122FD05C007FFAECF00E1E8
:100F80000C930AC010919C02011720F0092D3ADE43
:100F9000539442CF2BD00183052DEBE0ADC310E07D
:100FA00043E073C302D00281089500919802009338
:100FB000C602089505D0FD0123810217104008954F
:100FC0008C011DC0FD010281109197020117089547
:100FD00006D00061089502D0026008955394EFE9AD
:100FE000F2E001810895D9DE0160D5CEF7DF04601B
:100FF0000895D5DFA5EAB2E0A00FB11F089511232F
:1010000012F400E010E008950CD0F901EC57FD4F08
:10101000BBDEF901EC57FD4F20813181021B130B20
:101020000895202F30E0220F331F089560D3212F21
:1010300050DEA581B0E0A953BD4F2C9300E20083A0
:1010400001E035CE01E000932C0200E00093CB02DA
:101050000093CC020093CD020093CE020093CF0206
:101060000CE618E016D04091CF023091CE022091CC
:10107000CD021091CB020091CC020DCC00E020E417
:10108000F0E0E02FE35DFD4F208303950430B8F3DB
:1010900008952CD3C801A0E007C00B2FFC010995CF
:1010A000B3954B16D0F7A3950091C502A01790F405
:1010B0000A2F10E043E0E9D2E5EAF2E0E00FF11F89
:1010C00005811481107C19F4FC010995ECCF468050
:1010D000B02FE7CFE5E016C3602F63700695069545
:1010E000202F30E0220FF901E85DFD4F19D010816B
:1010F000102B1083F901E65DFD4F12D01181102BEA
:101100001183660F660FE8E1F2E0E60FF31F22811C
:10111000E381F0E0E553FD4F0081022B0083089549
:10112000408101E010E0B1D2EBECF2E00895DAD2B8
:101130000FB70093D402A0917B00B0B7409080001D
:101140005090810066B280918400909185007090EB
:10115000640080907C0000E400937B0004E000BF0A
:1011600000E00093800001E800938100F8940FEC08
:1011700018E08FDFA0937B00B0BF409280005092B8
:10118000810066BA90938500809384007092640019
:1011900080927C000091D4020FBFE9E0AFC2202F03
:1011A000237030E0220F220FE8E1F2E0E20FF31F9C
:1011B000408151814030530719F01281FA0109959D
:1011C0000091D4020FBF089570E008D00068048336
:1011D000E5ECF2E0008103950083089505D00091CD
:1011E000C502C5D0048108950801232E342F009133
:1011F000C5021ED2E5EAF2E017D2238200E00483A2
:101200000091ED0207831481177C2770220F220FB3
:10121000220F122B14830582168214811C7F3370D7
:10122000132B148305D2E5EDF2E0FED15295507FE9
:10123000550F6770562B508B772319F0052F0860D8
:10124000008BE5EDF2E0008D0395008F08954CD200
:10125000312F822F44245524EBD1A5EAB2E0A00F10
:10126000B11FFD016680932F0FC0092FCDDE282FFF
:1012700030E02195304068D024F0FD0124812460C5
:101280002483400E511E9395691678F78201E7E09A
:1012900037C22FD280E090E04395522F532B51F468
:1012A0008FEF9FEF442311F08FEF9FEFA3C04A957C
:1012B000000F111F17FB16F04423C9F737FB26F068
:1012C0004395220F331FFACF442381F397FB66F334
:1012D000880F991F4A950217130718F0021B130B6A
:1012E000019636952795F0CF00D23CD028019FD1AA
:1012F000A5EDB2E0A00FB11F21D069D09D01205F04
:101300003F4F48D01BD079D0FD010189128947E0B9
:10131000208922952F702695421BBDD190E0E4E8EC
:10132000F2E0E80FF91F21890ED031F0018BEFE9CF
:10133000F2E0008104600083E6E0E3C19D01205FEC
:101340003F4F8201089530E02017310708958A93B6
:1013500009D0B80125EE32E06AD1B5D08B010CD0AE
:1013600089910895202F03D08781022FAFC060D1CB
:10137000F801EB55FD4F0895F90140814770018355
:1013800012834683458340E0478346E07ED1038352
:1013900014830895B80111231AF471956195704072
:1013A00050E0452F00E410E076D10617170758F4F7
:1013B000F9010781501710F40A9503C0063030F484
:1013C0000395078308955395563058F3089591D1A6
:1013D000C801F9014CD0801B910B008103FF0AC0AA
:1013E000813800E0900714F09A9504C08038940783
:1013F0000CF493958C01E2E088C179D1D9018C91EC
:101400008770E5DFFD012781013030E013075CF0D4
:1014100032D059D0238334830C9103FF0FC0148141
:101420001F7314830BC011950195104024D0201B0D
:10143000310B238334830C9103FDF1CF9D01018196
:101440001281C5DFFD0125817EDF1CF48683358393
:1014500009C02681219530400217130734F400E0BB
:101460000683858304D001831283E4E04CC10381A9
:10147000148146E010C146E008D1422F0CD12381EF
:10148000348108951801F901BA012416350668F06F
:101490001AD00EEF1FEFE9D0200D311D4AE0E61BF8
:1014A000F70B8F01F6DE14500895E40FF51F0EEFD1
:1014B0001FEFA101DAD0E00DF11D9F014AE0621992
:1014C00073098B01E6CE200F311F08950BD15524EF
:1014D0006624AED025EA32E0F6DFA5EDB2E0F901F0
:1014E0000781A6D0A0D0408808E04022F90176808C
:1014F0008580872D88198395982D03C0508251824D
:101500009395791688F0092F7FDD292F30E028196F
:101510003040220F331FFD01E20FF31F013015058C
:101520006CF300831183ECCF2D913C91119791E0E6
:1015300009C0092F75D00081118106DF10F4692ED2
:10154000980193959817A8F3062D10E0000F111F2E
:10155000AD01400F511F662091F4442069F0082F1F
:101560005FD0329700811181FD0162817381601724
:10157000710748F4539407C000E010E004C0FA017A
:10158000329700811181682F6A95661641F44420D4
:1015900019F04D915C9106C040E050E003C0FA01A3
:1015A00042815381552011F0B82F01C0B62DBB0FD9
:1015B000BB0F68DFA02FB10F833050F0442040E014
:1015C000282F30E011F4215030401B2F62DED8016B
:1015D0001B2F1C7F11F0AFEFB3E0442029F0B6952C
:1015E000A795B695A79519C0A63600E0B00718F4E0
:1015F000A0E0B0E002C0A656B0408D0120E030E08F
:1016000048E35FE960E070E052D0890116950795E4
:10161000D801113010F0AFEFB0E08D01E9E06EC0FD
:1016200010E0000F111FFD01E00FF11F0895082FBA
:1016300010E043E02AC000008895FECF0FE90DBFFF
:1016400001E00EBFC0E4D1E067D0002309F074D000
:10165000A1D7F1DFF0CF4A9512F0000FE1F708951E
:101660004A9512F00695E1F7089500241124003000
:10167000010741F01695079510F4040E151E440F4E
:10168000551FF5CF002D112D08954A951AF0000F22
:10169000111FFBCF08954A951AF016950795FBCFB9
:1016A00008954A951AF015950795FBCF08950024E3
:1016B00011241001E02FE12BE22BE32B71F0369582
:1016C00027951795079520F4040E151E261E371E24
:1016D000440F551F661F771FEDCF800191010895BC
:1016E000AA929A928A927A926A925A924A92BA9359
:1016F000AA939A938A930895AA84998488847F8070
:101700006E805D804C80BB81AA8199818881F0E0E8
:10171000EC0FFD1FEF01089501E0089520E006D0D1
:10172000E9F70895259102D0E9F708952D93015026
:101730001040202F212B089582E390E0FC010591B9
:101740001491FC013296A591B491FC013496259137
:101750003491422F432B19F0F901E4DF01C0DEDFA1
:10176000069610E08E33910748F3089500000000BC
:101770000000000000000000000000000000000069
:1017800000000000000000000000000000F8000061
:10179000007F000108113F20007F01010007000DBC
:1017A00000130019001E007F0021482D007F002D2E
:1017B000043001000000000000000001070D1319B3
:1017C0000000000000000000000000000000000019
:1017D0000000000301040002000000000000000CF3
:1017E00000000000A8042002A8041002A80480023F
:1017F000A8044002030803080140404040FFFFFFE7
:10180000FFFFFFFFFFFFFFFFFFFFFFFFFFFFFFFFE8
:10181000FFFFFFFFFFFFFFFFFFFFFFFFFFFFFFFFD8
:10182000FFFFFFFFFFFFFFFFFFFFFFFFFFFFFFFFC8
:10183000FFFFFFFFFFFFFFFFFFFFFFFFFFFFFFFFB8
:101BF000FFFFFFFFFFFFFFFFFFFFFFFFFFFF4E7E27
:0400000300000000F9
:00000001FF
