:020000020000FC
:100000000ECBA4C2FFFFFFFFFFFFA2C2FFFFFFFF57
:10001000FFFFFFFFFFFFA7C2FFFFFFFFFFFFFFFF85
:10002000FFFFFFFFFFFFFFFFFFFFFFFFFFFFFFFFE0
:1000300076C05A00A0017A17B100FA0100000093BF
:10004000BA000FEF0093BB0004E03AC01091BC006F
:10005000012F017008950091BC0000FDFCCF0091BC
:10006000C10108954BDB422F2091BC0020FDFCCF45
:1000700045D040A320E00DC0D801A20FB31F5C9172
:10008000DF01A20FB31F50965C9323952417A0F3B2
:100090002395241718F420E030E0F8CF00E002A305
:1000A00008EF01A30CD0E4E035CB0091BC0000FDCB
:1000B000FCCF00E00093C20108EF0093C10105EC02
:1000C0000093BC0008953091BC0030FDFCCF16D0E9
:1000D00032A130FF11C040E050E009C0FA01E05603
:1000E000FE4F3081F801E40FF51F3083439542172E
:1000F000A8F378D00D7F02A302A1ABCFE0EAF1E034
:1001000008950091BC0000FDFCCF0091C4010131B5
:1001100018F000E10093C4010091C4010895BA935E
:10012000AA93FA93EA933A932A931A930A933FB7BE
:100130000091B9000058F9F10051E9F1005161F165
:10014000085049F0005151F00850F1F0005A69F19F
:10015000005141F13DC000E00093C401CFDF04A194
:100160003CD050960C910093BB0004A1039504A3CE
:1001700005ECA6DF3FBF0991199129913991E991C9
:10018000F991A991B9911895B9DF04A110A10117AE
:1001900029F402A1016002A304E0EBCF0091B900B1
:1001A00001A3FACF1FD0046002A31CD0026002A3F7
:1001B00000E003A3DDCFA2DF2091BB0003A10DD09F
:1001C0002C9303A1039503A302A1016002A3D0CF46
:1001D0000091B9000093C101DFCF10E0DF01A00F53
:1001E000B11F0895E0EAF1E002A108958A93802FFB
:1001F0005CDF082F89910895012B11F03A9801C016
:100200003A9A42980895012B11F0399801C0399A11
:100210004198089501E009D000E005D000E048C011
:1002200000E003D001E03DD045C03BD043D001E029
:100230003FC066DA802F37D0982F88E097FB16F4FE
:1002400001E001C000E0F1DF990F2DD08A95B1F7F0
:1002500031D001E02BD086B126D081FB16F401E02D
:1002600001C000E0E2E058CA48DA402EC901B0E01F
:1002700017D0A8E01CD0BB0F3199B39500E018D07F
:10028000AA95C1F7442011F000E001C001E00ED0B2
:100290000ED009D005D0FC01B08300E0E5E039CAFA
:1002A00001E010E0B0CF00E010E0A6CFFADF01E0FF
:1002B00010E0A2DF03E00A95F1F7000008951DDACF
:1002C000402E812F922FDA01A5DF440C042DB1DFDF
:1002D000442403C00D91ADDF43944816D8F399230D
:1002E00009F49EDFE7DFDACF08DAB02FA12FC901CA
:1002F00091DFBB0FB1600B2F9CDFB0E002C0019615
:10030000B395BA1788F42B2F30E00A2F10E0015074
:100310001040201731079C0111F400E001C001E0FA
:10032000A3DF402E44205AF77BDF042DB7CFE7D957
:1003300021970883C901A12FAE0121E011E005E456
:10034000BEDF9C011A2F05E4CFDF00E02196E3E039
:10035000E2C96097103108F01FE0088300E050E028
:1003600009C0F901E00FF51F6081FE01E00FF51FE4
:10037000618303950117A8F3AE0120E0139505E40E
:100380009EDF00E060960895B9D9D3D060E057E0D1
:1003900043E03AE020E013E000E0FFD664D3B2D0BF
:1003A000A5ECB1E00AEF10E04D915C911197BBD044
:1003B00000916F00026000936F0000918100026065
:1003C000009381000091810008600093810000E0AB
:1003D000EAE5F2E000830183789401E00093DC0118
:1003E00001C0E1D00091E001002309F460C000E009
:1003F0000093E001FD010489158949D3802F10FB8A
:10040000CEF3FD0122893389022F0F7310E0EAEF4A
:10041000F1E0D4D180FB46F46AD00091DF010023E3
:1004200061F1579A5F980AC0232B11F060D046D132
:1004300057985F980091DF010023F9F00091DE01E9
:100440000023A9F100915102002391F04CD0802F9C
:10045000002339F416E042D043D0823029F516E06B
:1004600024C014E03BD08130B9F716E001E003C0AE
:1004700037D014E003E021D217C0009151020023CD
:1004800031F410E02ED010E029D010E00EC02BD0B7
:10049000002319F414E003E009C0013019F414E05A
:1004A00001E004C0023019F414E004E006D24A99D5
:1004B00002C001E001C000E00093DF0100FD91CF28
:1004C0000091DD01053039F4579A5F9802E40A95EE
:1004D000F1F700C087CF57985F9884CF03E0EDC154
:1004E00014E001E0EAC10091520246E5AFC8009174
:1004F00052020083FD01028913890F5F1F4F028B97
:10050000138B0895E3E5F2E004E0018304E1048342
:1005100005E0058300E0038304E1028301E000833A
:1005200003E006830895B0D81093890000938800F3
:10053000089500E80093610002E00093610005B7B0
:10054000006105BF529807E87ADDAFCD02D018955B
:10055000FDCF1A930A931FB703B70E7F03BF1FBFC8
:10056000099119910895FA93EA934A933A932A9339
:100570001A930A934FB701E00093E0010091C5017F
:100580001091C601E5ECF1E024893589200F311F77
:10059000248B358B4FBF099119912991399149913C
:1005A000E991F991189552DD0023A1F40091C2015F
:1005B00000FF0EC001FF07C020E107EC11E083DD62
:1005C0000AD031D001C0000041DD002319F46DCD07
:1005D00042DD0CDE08950091C7010A3A18F5009338
:1005E000DB011091C801202F2B5058F02550D0F07E
:1005F0002B5040F02650B0F0245070F02A5071F08B
:10060000089543C17EDD023068F0102F1A9528EC62
:1006100031E00091DB0141C100524FC11093DE0176
:1006200000E03DD108956AD8A7ECB1E080E10091E7
:10063000DB01102F105A31F11A9531F1125031F1BE
:100640001A9539F11A9551F1145059F1175588F14D
:100650001B5058F0155068F11B5048F0155048F1E8
:10066000175058F0185059F024C008D114C08BE12D
:10067000801B182F9D010FD11CC077D10CC0009199
:10068000DE0109C00DE407C006E005C00091DC01F1
:1006900002C0009151020093C7010AC0A2E5B2E076
:1006A00007C00091DD010093C70100E00093DD0168
:1006B00081E0282F8D01D6DCE4E02CC81DD860979E
:1006C000E5ECF1E042895389CA0100E010E00197AE
:1006D000282F2F7330E0F901E650FE4F20816DD0B6
:1006E0002083282F292B21F065D0003113077CF3BC
:1006F000288134E0239F13941092DD01413220E0E1
:10070000504008F045C0202F2395022F10E030E024
:1007100003C053D030834ED000311307D4F32A9551
:1007200080E090E04424552400E010E008C0641705
:1007300008F44394860F931F841B90403BD002170C
:100740001307FE013CF43AD041816081461778F7E7
:100750005394F0CFE20FF31F008110E02881021BB9
:10076000104055D7FC01B096E13420E0F04080F015
:10077000013510406CF08132904004E024F04016C6
:1007800038F405E003C0501618F406E00093DD01CC
:1007900000E010E0F801E650FE4F20830BD000345B
:1007A0001207C4F300E0E5ECF1E0028B038B6096E6
:1007B000E6E0AEC70F5F1F4F0895FE01E00FF11F87
:1007C00008956F939F9368B1902F9095692368B9AE
:1007D0006BB1912F909569236BB9902F67B1692BFD
:1007E00067B96AB1912F692B6AB9922F909565B15B
:1007F000692365B964B1922F692B64B95C98549AE6
:100800009F916F9108956F939F936AB160938F0248
:1008100060938D0267B16093900260938E02602FA7
:10082000609590918D02962390938D02612F609533
:1008300090918E02962390938E0200270000000074
:10084000000060918E0267B99F916F9108952AB957
:1008500003B900000000000057B9000000000000CC
:1008600037B94AB903B908955C9A08955C986091C4
:10087000900267B90000000000000895219711E080
:100880009E0155DD0881219608952197188311E076
:100890009E015FDDF8CF00614ACD00615ACD002393
:1008A000389A11F0409A0895409800E020E064D012
:1008B000208303950730D8F308958A932397212F37
:1008C000073008F043C0183008F040C010E0EAE3F9
:1008D000F2E0E00FF11F00810217C1F12083223006
:1008E00080F480E036D00081023018F001E0D7DFDC
:1008F00003C083958730B0F3873029F400E0CFDF61
:1009000025C001E0CCDF80E024D02081482F01E029
:1009100010E0C2D6302F309558815323022F01703A
:1009200010E0482FB9D6502B58835981532321FB0F
:1009300015D059835A81532322FB10D05A838395B3
:10094000873010F313E09E0100E0A7DF2396899122
:100950000895F0E0E82FE65CFD4F089500E010E018
:1009600000F9482F99D6502B0895073010F00FEF5B
:10097000089502D000810895F0E0E02FECCFBDD6BD
:10098000C801202F26952695F894009164000E7FCB
:100990000093640030E0220FE3EFF1E0E20FF31F79
:1009A000008100937C00009164000160009364006A
:1009B0001181F901EF50FE4F018125DFA02FF0E0FA
:1009C000E82FEA50FE4F4080B0E01AC050919002EC
:1009D00040918F0230918E0220918D021A2F092FA3
:1009E00036DF3DD0E5EFF1E0008103950083023072
:1009F00030F0033020F0043010F001E00083B395B4
:100A0000B415F89418F330DF00E010E0009385008F
:100A100000938400B59A90E0880F991FE1E4F2E01A
:100A2000E80FF91F00B705FF13C019D0B5990BC027
:100A3000009184001091850020E21032B8F300E0AC
:100A40000083218308C0009186001091870001C0B7
:100A500001E0008311830ADF02D0E5E05AC600916D
:100A600091020FBF089508D000E0E1E4F2E0058FA5
:100A7000068FDCD2899108958A9380E003C0082F05
:100A8000B5D08395009182028017C8F3089535D6BA
:100A9000442490E0A1E4B2E0FD01438E448E458DF4
:100AA000568D9801241B350B058F168F078D10A1CD
:100AB000020F131F078F10A305C0085C1040078F9B
:100AC00010A39395078D10A1083C1405B0F7009171
:100AD0008302002341F0091718F44092830203C0F7
:100AE000091B009383020CD3FD01018D128D003090
:100AF000140511F0F801099580E004C08C0145D17E
:100B0000402A83952DD08017C8F3442021F0FD01A1
:100B1000048D0160048F00E00093510280E018C052
:100B2000082F21D0F801EE59FD4F0081087179F0AE
:100B3000282F269526952695482F477001E07CD5CD
:100B400030E0FD01E20FF31F1089102B108B83950D
:100B500007D0801728F3FD01038D148DE5E0D9C57A
:100B600000918202089510E043E096C5C7D5302F6A
:100B700060E070E0F8DFA2E6B2E0A00FB11FFD0177
:100B80005581038110E04091530292D5802F0430AB
:100B900008F484E0E5DF301730F50481007CD9F4F7
:100BA000052F26D2B801082F0695069510E090E093
:100BB000081B10400617170724F4FD0104810B7F62
:100BC000048381959040861797076CF0FD0104819E
:100BD0000460048308C004810B7F0483282F152F31
:100BE000032F1ED3B8018B01E4E094C58A93802FB4
:100BF00008D0082F62D001E000830FE001838991C3
:100C000008957CD55AD01581368102E00083ACE589
:100C1000B2E00C9102600C9300E00283012F07C048
:100C200020E8F0E0E02FEE59FD4F22A303953017A6
:100C3000B8F731C063D5D1D116969C918E91159796
:100C400006C011961C911197082F04D08395981710
:100C5000C0F721C053D5D9D1E1E4F2E0E20FF31F90
:100C6000A1E4B2E0A20FB31F1A3018F00D911C914D
:100C700011C07ED02D913C9111972017310718F4A7
:100C80000150104007C02D913C910217130718F432
:100C90000F5F1F4F70D0E4E03DC5202F72D003607E
:100CA0000083022F0AD000E1008300E00183048169
:100CB000007C11F0022F34D3089565D1E2E6F2E012
:100CC000E00FF11F08951BD5812FF7DFA6819581D5
:100CD00004C0182F092F05D09395A917D0F7E3E08A
:100CE0001AC50CD5212F402F50E0440F551FFA0193
:100CF000EF5BFD4F60817181E1E4F2E0E40FF51FED
:100D000010E06CD135D00617170780F492960C913D
:100D1000020F0C93102F9297009158020058101751
:100D200018F123D00F5F1F4F26D01EC06017710728
:100D300080F492960C91021B0C9300E810915702DC
:100D4000011B1C919297011778F00FD001501040B1
:100D5000EBCFFD0102A1013810F00A9502A302A118
:100D6000003810F4039502A396CF00E892960C93F6
:100D70000085118508950087118703D008600083DE
:100D80000895ECE5F2E000810895B1D4902E412E53
:100D9000AA245524EBDEC801092D1FD1FD010381D2
:100DA0004481437043954DD4023008F402E06380DF
:100DB000772410E0601A710A0C910A9571F00A9577
:100DC000C9F0025089F1045009F4AAC0085009F48E
:100DD0007BC0005109F4B6C0D3C0F1D00183092D06
:100DE00029DFFD0101810A95018311F4092D09DF35
:100DF000D0D0C6C0048102FF05C0092D0BD1502EF2
:100E0000DBD0BDC0CBD020F004E00C93A282B6C0F2
:100E1000442009F4B5C000918302002309F0B0C05A
:100E2000142D092D50DFACC0B9D008F44AC0AED0A3
:100E300003950283448008E34022469446944694F6
:100E400099F1882406C00081003139F1083029F178
:100E5000839400918202801628F58914C9F3082D25
:100E600092D022E6622E22E0722E600E711EF301F5
:100E700004810873069506950695041549F7082D13
:100E800075DEFD012381AC01421B5040F30123813B
:100E9000021B104040175107B4F6FD015282AA24EC
:100EA000A394D6CFAA2039F400915402002319F05C
:100EB00089D0086001837AD008F462C0092DEDDE84
:100EC0005FC0092D9EDE5CC0048102FF07C010E8F0
:100ED000092DA0D0502E70D001838ACF65D0061581
:100EE000170520F408E00C9375D0F6CF70D05ED0D3
:100EF00010F4039502830481007C11F0092DDDD1EB
:100F000000915602002309F473CFFD0111811017DF
:100F100018F4012F040DE0CF092D68DE50D0DCCF8E
:100F200035D0002371F240D06016710620F400E144
:100F30000C934DD002C04ED00183FD0102810A9571
:100F400002831EC0258102E612E0020F1A1DF8017D
:100F500022A1239522A3FD012481F80102A122FDF3
:100F600005C007FFAECF00E10C930AC010915902F3
:100F7000011720F0092D3ADE539442CF2BD0018384
:100F8000052DEBE0C0C310E043E086C302D0028130
:100F900008950091550200938302089505D0FD0144
:100FA00023810217104008958C011DC0FD010281AC
:100FB000109154020117089506D00061089502D0DF
:100FC000026008955394ECE5F2E001810895D9DEC2
:100FD0000160D5CEF7DF04600895D5DFA2E6B2E068
:100FE000A00FB11F0895112312F400E010E008953E
:100FF0000CD0F901EF5BFD4FBBDEF901EF5BFD4F5C
:1010000020813181021B130B0895202F30E0220F25
:10101000331F089573D3212F50DEA581B0E0AC5764
:10102000BD4F2C9300E2008301E035CE01E0009338
:10103000F50100E0009388020093890200938A0280
:1010400000938B0200938C0205E518E00BD04091D1
:101050008C0230918B0220918A02109188020091BB
:101060008902AFCB4AD3C801A0E007C00B2FFC0117
:101070000995B3954B16D0F7A39500918202A0175E
:1010800090F40A2F10E043E007D3E2E6F2E0E00F2D
:10109000F11F05811481107C19F4FC010995ECCF36
:1010A0004680B02FE7CFE5E034C3602F637006952C
:1010B0000695202F30E0220FF901EF50FE4F19D096
:1010C0001081102B1083F901ED50FE4F12D01181C9
:1010D000102B1183660F660FE1EEF1E0E60FF31FB0
:1010E0002281E381F0E0E857FD4F0081022B00836D
:1010F0000895408101E010E0CFD2E8E8F2E00895E1
:10110000F8D20FB700939102A0917B00B0B7409046
:1011100080005090810066B280918400909185009B
:101120007090640080907C0000E400937B0004E0F9
:1011300000BF00E00093800001E800938100F89474
:1011400008EB18E08FDFA0937B00B0BF40928000D7
:101150005092810066BA90938500809384007092CB
:10116000640080927C00009191020FBFE9E0CDC243
:10117000202F237030E0220F220FE1EEF1E0E20F8A
:10118000F31F408151814030530719F01281FA0159
:101190000995009191020FBF089570E008D0006892
:1011A0000483E2E8F2E0008103950083089505D00E
:1011B00000918202C5D0048108950801232E342FA6
:1011C000009182021ED2E2E6F2E017D2238200E012
:1011D00004830091AA0207831481177C2770220FD1
:1011E000220F220F122B14830582168214811C7F7A
:1011F0003370132B148305D2E2E9F2E0FED152954D
:10120000507F550F6770562B508B772319F0052FA1
:101210000860008BE2E9F2E0008D0395008F0895ED
:101220006AD2312F822F44245524EBD1A2E6B2E0BA
:10123000A00FB11FFD016680932F0FC0092FD8DECC
:10124000282F30E02195304068D024F0FD01248122
:1012500024602483400E511E9395691678F782010D
:10126000E7E055C24DD280E090E04395522F532BDA
:1012700051F48FEF9FEF442311F08FEF9FEFA3C046
:101280004A95000F111F17FB16F04423C9F737FBCF
:1012900026F04395220F331FFACF442381F397FBA7
:1012A00066F3880F991F4A950217130718F0021B5F
:1012B000130B019636952795F0CF1ED23CD028010E
:1012C0009FD1A2E9B2E0A00FB11F21D069D09D014A
:1012D000205F3F4F48D01BD079D0FD010189128992
:1012E00047E0208922952F702695421BDBD190E0A4
:1012F000E1E4F2E0E80FF91F21890ED031F0018B13
:10130000ECE5F2E0008104600083E6E001C29D01AB
:10131000205F3F4F8201089530E020173107089584
:101320008A9309D0B80122EA32E06AD1B5D08B01A4
:101330000CD089910895202F03D08781022FAFC050
:1013400060D1F801EE59FD4F0895F90140814770D1
:10135000018312834683458340E0478346E09CD166
:10136000038314830895B80111231AF471956195CC
:10137000704050E0452F00E410E094D106171707A5
:1013800058F4F9010781501710F40A9503C006308C
:1013900030F40395078308955395563058F3089514
:1013A000AFD1C801F9014CD0801B910B008103FF24
:1013B0000AC0813800E0900714F09A9504C0803884
:1013C00094070CF493958C01E2E0A6C197D1D90162
:1013D0008C918770E5DFFD012781013030E0130734
:1013E0005CF032D059D0238334830C9103FF0FC0BB
:1013F00014811F7314830BC011950195104024D0E4
:10140000201B310B238334830C9103FDF1CF9D010D
:1014100001811281C5DFFD0125817EDF1CF48683F9
:10142000358309C02681219530400217130734F413
:1014300000E00683858304D001831283E4E06AC15F
:101440000381148146E02EC146E026D1422F2AD1E5
:101450002381348108951801F901BA012416350653
:1014600068F01AD00EEF1FEFFFD0200D311D4AE0BB
:10147000E61BF70B8F01F6DE14500895E40FF51FFD
:101480000EEF1FEFA101F0D0E00DF11D9F014AE02A
:10149000621973098B01E6CE200F311F089529D1FF
:1014A00055246624AED022E632E0F6DFA2E9B2E0AF
:1014B000F9010781A6D0A0D0408808E04022F901B8
:1014C00076808580872D88198395982D03C050825A
:1014D00051829395791688F0092F8ADD292F30E003
:1014E00028193040220F331FFD01E20FF31F013096
:1014F00015056CF300831183ECCF2D913C9111976E
:1015000091E009C0092F75D00081118106DF10F428
:10151000692E980193959817A8F3062D10E0000FF7
:10152000111FAD01400F511F662091F4442069F056
:10153000082F5FD0329700811181FD016281738194
:101540006017710748F4539407C000E010E004C02E
:10155000FA01329700811181682F6A95661641F46D
:10156000442019F04D915C9106C040E050E003C06A
:10157000FA0142815381552011F0B82F01C0B62DD8
:10158000BB0FBB0F68DFA02FB10F833050F044209A
:1015900040E0282F30E011F4215030401B2F62DE54
:1015A000D8011B2F1C7F11F0AFEFB3E0442029F0CE
:1015B000B695A795B695A79519C0A63600E0B007D1
:1015C00018F4A0E0B0E002C0A656B0408D0120E0C3
:1015D00030E048E35FE960E070E070D08901169583
:1015E0000795D801113010F0AFEFB0E08D01E9E0C0
:1015F0008CC010E0000F111FFD01E00FF11F0895D6
:10160000082F10E043E048C000008895FECF11236A
:101610001AF41195019510409801890108950FE978
:101620000DBF01E00EBFC0E4D1E07DD0002309F082
:101630008AD0AAD6E9DFE8CF4A9512F0000FE1F789
:1016400008954A9512F00695E1F708950024E8E020
:10165000EA9532F0001F001C0416D0F3041AF8CFEC
:10166000001F402D0095089500241124003001072B
:1016700041F01695079510F4040E151E440F551FE2
:10168000F5CF002D112D0895149F102D059F100DDD
:10169000049F002D110D08954A951AF0000F111F97
:1016A000FBCF08954A951AF016950795FBCF08953C
:1016B0004A951AF015950795FBCF0895002411243B
:1016C0001001E02FE12BE22BE32B71F036952795EB
:1016D0001795079520F4040E151E261E371E440F7D
:1016E000551F661F771FEDCF800191010895AA92C3
:1016F0009A928A927A926A925A924A92BA93AA9348
:101700009A938A930895AA84998488847F806E80AE
:101710005D804C80BB81AA8199818881F0E0EC0FCB
:10172000FD1FEF01089501E0089520E006D0E9F7DC
:101730000895259102D0E9F708952D9301501040A6
:10174000202F212B089582E390E0FC010591149154
:10175000FC013296A591B491FC0134962591349107
:10176000422F432B19F0F901E4DF01C0DEDF0696BA
:1017700010E08E33910748F3089500000000000048
:101780000000000000000000000000000000000059
:101790000000000000000000000000F80000001938
:1017A0000000000000000000000000000000000039
:1017B0000000000000000000010100BF042002BF83
:1017C000041002BF048002BF0440020308030801A2
:1017D00040404040FFFFFFFFFFFFFFFFFFFFFFFF15
:1017E000FFFFFFFFFFFFFFFFFFFFFFFFFFFFFFFF09
:1017F000FFFFFFFFFFFFFFFFFFFFFFFFFFFF423C79
:0400000300000000F9
:00000001FF
